:020000040800F2
:10000000F0FF01204106060815910508E16A020883
:10001000B9060608B9060608B90606080000000079
:100020000000000000000000000000001991050819
:100030001D91050800000000219105080D4B0208E4
:10004000B9060608B9060608B9060608B90606087C
:10005000B9060608B90606080D3502081535020866
:100060001D350208253502082D350208BDD90008C6
:10007000CDD90008DDD90008EDD9000801DA000863
:1000800015DA000829DA0008B906060800000000A1
:1000900000000000000000000000000035350208EC
:1000A000F16602088966020801670208796602089B
:1000B000B1660208C1660208D16602082DCB0008AD
:1000C00011D0000835CB000815D00008B906060885
:1000D000B9060608854A0208914A02080000000095
:1000E0003D350208B9060608CD9705080000000056
:1000F0000000000000000000000000003DDA0008E1
:100100000000000085FF0008E1660208B906060845
:1001100000000000000000000000000000000000DF
:1001200051DA000865DA000879DA00088DDA00088B
:10013000A1DA00080000000000000000000000003C
:1001400000000000000000000000000025910508EC
:10015000B5DA0008C9DA0008DDDA00089D4A0208AD
:100160003DCB000819D0000800000000000000008E
:10017000000000000000000000000000000000007F
:1001800000000000B90606080000000000000000A2
:08019000B9060608B9060608CD
:08019800D40106000100000083
:1001A0000A900100240000009C2F0020104D002028
:1001B00000000000395504080C4D00201402010015
:1001C000050000009C450020384D00200000000084
:1001D000B01B0708344D0020160215003F00000038
:1001E000E0380020444D0020000000008993010801
:1001F000404D002006100100260000002C30002099
:10020000884D00200000000091920108844D0020DC
:10021000FA01010004000000D4680020D06700202B
:100220000000000079920108CC670020FF21010046
:1002300005000000C8600020D86700200000000012
:1002400055930108D4670020053001000800000024
:10025000F0620020E467002000000000B81B0708DF
:10026000E06700201302010004000000EC6200209F
:10027000F067002000000000C01B0708EC670020AA
:100280000B3001001A0000002C5F002008680020DD
:1002900000000000C41B0708046800201F50010074
:1002A00024000000085F00202868002000000000F3
:1002B000E01B0708246800202B0201000C0000004E
:1002C000145000205068002000000000041C0708A3
:1002D0004C6800201E02010006000000085A0020A1
:1002E0006068002000000000101C07085C68002007
:1002F0000D12010014000000CC6100206C68002089
:1003000000000000181C07086868002003110100A5
:100310000A000000605900208468002000000000EE
:10032000252D0508806800200B2201003D000000FB
:100330000452002094680020000000002C1C0708D4
:100340009068002015001000700000006CAD0020C7
:10035000E4AD00200000000000000000E0AD00203F
:100360002A000800600000000CAD002058AE0020FC
:1003700000000000F5CE030854AE00202C0004005D
:1003800010000000FCAC0020BCAE0020000000000B
:10039000E1C10308B8AE002025201E002C0100009A
:1003A000D0AB0020D0AE0020000000000000000014
:1003B000CCAE00202B0012002400000088AB0020EF
:1003C00000B0002000000000F1C10308FCAF0020D5
:1003D0002920140078000000FC97002028B000209D
:1003E000000000000000000024B0002028300100C0
:1003F000160000008C970020A4B000200000000030
:1004000011670408A0B000200D1001004C0000008E
:100410003C970020C0B00020000000005376020886
:10042000BCB000200C50040080000000A49000200C
:1004300010B1002000000000B51403080CB100202A
:10044000012001000C0000002491002094B1002044
:10045000000000006C1C070890B10020270001007C
:100460000400000098910020A4B1002000000000CA
:10047000781C0708A0B10020232001001000000014
:1004800088910020ACB10020000000002555040830
:10049000A8B100200E50040058020000488E002031
:1004A000C0B1002000000000D5CE0308BCB1002080
:1004B000220201001C0100006C9A00201CB40020E4
:1004C0000000000031A9010818B400201F02080034
:1004D000100000004CB500203CB5002000000000DA
:1004E0006593010838B500201B02010010000000D0
:1004F00070B5002060B50020000000001D930108C9
:100500005CB50020280204000400000088B500202B
:1005100084B50020000000001193010880B5002080
:10052000270204000400000094B5002090B50020CC
:1005300000000000059301088CB500201C02020099
:100540001C000000A49700209CB5002000000000C3
:10055000799A010898B500201A0201003C000000B9
:10056000F8B50020BCB5002000000000519B010838
:10057000B8B500200400080080000000BC9D0020E9
:1005800038B60020000000000000000034B6002053
:10059000190201001000000088980020BCB600205D
:1005A0000000000045930108B8B6002008120300BF
:1005B0000F0000004C9E0020D0B60020000000007C
:1005C0000D920108CCB60020031201003D0000008E
:1005D000F49E0020E4B60020000000007C1C070808
:1005E000E0B60020010201000A000000FCA100208A
:1005F00028B70020000000006992010824B70020FD
:100600000C020100040000005C9E002038B70020AE
:10061000000000008192010834B70020FD1701009E
:100620009A0000000CA2002040B70020000000004B
:100630002BC404083CB70020131001000400000084
:1006400088970020E0B7002000000000BC1C0708CD
:10065000DCB700200202010003000000F8A1002026
:10066000E8B700200000000000000000E4B7002010
:10067000F5C1010074000000F8990020F0B70020D7
:1006800000000000ADD30408ECB70020F621010003
:100690000C000000A098002068B8002000000000B6
:1006A000C01C070864B800201212010004000000FA
:1006B00098E2002078B8002000000000CC1C070859
:1006C00074B8002011020100080000009CE2002024
:1006D00080B8002000000000D01C07087CB8002073
:1006E0003400010010000000A4E200208CB80020BB
:1006F00000000000A1BC030888B80020F831010008
:10070000060000002C970020A0B800200000000088
:10071000D81C07089CB80020020001000C00000053
:10072000AC9E0020ACB800200000000000000000DB
:10073000A8B80020FE0101001400000074980020F9
:10074000BCB8002000000000F5910108B8B80020F6
:100750000612030012000000989E0020D4B800206A
:1007600000000000019A0108D0B80020F701010044
:100770000600000098980020ECB80020000000005F
:10078000DE1C0708E8B80020FC0101000900000099
:10079000B4E20020F8B80020000000003193010806
:1007A000F4B80020FB01010001000000C0E20020BD
:1007B00008B90020000000003D93010804B90020A2
:1007C0001A0001000E0000003C9E002010B900201D
:1007D00000000000E41C07080CB900201400010010
:1007E000050000003497002024B90020000000001C
:1007F000F21C070820B90020FD01010024000000C0
:100800002E9D002030B90020000000007F1002085B
:100810002CB900201D02020006000000289D0020C7
:1008200058B90020000000000000000054B900206A
:100830001840010038000000C097002064B9002073
:1008400000000000BD9B010860B90020F901010013
:1008500004000000C4E20020A0B900200000000055
:10086000391002089CB9002012300100100000006D
:10087000688D0020A8B9002000000000F81C0708BF
:10088000A4B900200E02010002000000C4E4002010
:1008900020E5002000000000081D07081CE50020DE
:1008A0002F2001002200000028E50020C8E40020DD
:1008B000000000000A1D070824E5002001010100D6
:1008C000040000003CF2002080F200200000000044
:1008D000000000007CF20020000101000400000084
:1008E00038F2002088F20020000000002C1D0708CC
:1008F00084F20020020101000300000034F2002015
:1009000090F2002000000000590E03088CF2002035
:100910002630010008000000D0EA002098F20020F4
:100920000000000069C5040894F200202052010074
:1009300008000000C8EA0020A4F200200000000027
:10094000301D0708A0F200202A1201000800000054
:10095000C0EA0020B0F2002000000000381D0708A7
:10096000ACF20020384001000600000028E600201C
:10097000BCF2002000000000401D0708B8F2002073
:100980001620010006000000ACEA0020C8F200209A
:1009900000000000461D0708C4F2002010100100EE
:1009A00002000000A8EA0020D4F2002000000000AD
:1009B0004C1D0708D0F200201900010005000000BE
:1009C000B8EA0020DCF20020000000004E1D0708FD
:1009D000D8F200200300010001000000C007012040
:1009E000CC0901200000000000000000C80901201F
:1009F00005020100040000007CF40020D40901205D
:100A000000000000541D0708D00901202C0201003D
:100A10000400000048F40020FC0901200000000050
:100A2000581D0708F80901202D02010001000000EF
:100A3000D4F30020040A01200000000000000000A0
:100A4000000A0120290201004000000090F300206C
:100A50000C0A0120000000005C1D0708080A0120A4
:100A60002332010014000000200E0120341D01205B
:100A7000000000009C1D0708301D0120001201002D
:100A80000A000000782701203C2F01200000000010
:100A900000000000382F01201002010001000000BA
:100AA000507D01204C7D012000000000B01D070892
:100AB000487D01200902010001000000C47C0120E2
:100AC000587D012000000000B21D0708547D012060
:100AD00001010000A4000000000000000000000070
:100AE00000000401000002000100000210000000EC
:100AF0000700FF000060024010600240000000009C
:100B00000000000000000000000B000000000000DA
:100B10000000000000000000006002402860024069
:100B2000010000000000000000000000060C0000B2
:100B30000000000000000000000000000060024013
:100B400040600240020000000000000000000000C1
:100B5000100D000000000000000000000000000078
:100B600000600240586002400300000000000000E6
:100B700000000000160E0000000000000000000051
:100B800000000000006002407060024004000000AD
:100B90000000000000000000200F00000000000026
:100BA0000000000000000000006002408860024079
:100BB00005000000000000000000000026100000FA
:100BC0000000000000000000000000000060024083
:100BD000A0600240060000000000000000000000CD
:100BE00030110000000000000000000000000000C4
:100BF00000600240B86002400700000000000000F2
:100C000000000000362F000000000000000000007F
:100C10000000000000640240106402400000000078
:100C2000000000000000000000380000000000008C
:100C30000000000000000000006402402864024040
:100C40000100000000000000000000000639000064
:100C500000000000000000000000000000640240EE
:100C6000406402400200000000000000000000009C
:100C7000103A00000000000000000000000000002A
:100C800000640240586402400300000000000000BD
:100C900000000000163B0000000000000000000003
:100CA0000000000000640240706402400400000084
:100CB0000000000000000000203C000000000000D8
:100CC0000000000000000000006402408864024050
:100CD00005000000000000000000000026440000A5
:100CE000000000000000000000000000006402405E
:100CF000A0640240060000000000000000000000A8
:100D0000304500000000000000000000000000006E
:100D100000640240B86402400700000000000000C8
:100D20000000000036460000000000000000000047
:100D300000000000FF08E001F401000000000000D6
:100D40000000000000000000010000008D96000877
:100D50000000000000000000000000000100000092
:100D600000000000010B0101120100020000004020
:100D70008304205700020102030100000403090458
:100D80001A03000000000000000000000000000046
:100D900000000000000000000000010050C300003F
:100DA00060FECD000101000000010000204E0000A7
:100DB000000000000000000001010100000690603A
:100DC000060000008813000003040800010390706F
:100DD00006000000102700000304080002029080B3
:100DE00006000000204E000005040A000301909058
:100DF00006000000409C000006020A00000918508E
:100E000006000000D007000002040C000107186073
:100E100007000000A00F000003040E000205187078
:100E2000070000000A1A000004040C0003021880E6
:100E300007000000204E000005020C00000690FF95
:100E40001C11B80BC4095802881301038BFF4222FE
:100E5000AC0DC40958028813020288FF8444A00F15
:100E6000C40958028813030185FF84447017A00F3A
:100E700000008813000997FF8106C409C409030014
:100E80008813010794FFE40CB80BC409060088130B
:100E9000020590FFEF16AC0DC4090A008813030287
:100EA0008DFF2E2AA00FC409000088137EFF7EFF4D
:100EB000E2FFE2FF05000000380900200068002082
:100EC0000400000001000000E94F010800000000DC
:100ED0000000000000000000000000000000000012
:100EE00097000000A805002000000000030000009B
:100EF0000100000045500108000000000000000053
:100F00000000000000000000000000003409002084
:100F1000FC6700200400000001000000555001089B
:100F200000000000000000000000000000000000C1
:100F30000000000030090020000000000400000054
:100F400001000000C1500108000000000000000086
:100F50000000000000000000000000001B00000076
:100F60002406002000000000030000000000000034
:100F70000000000000000000000000000800000069
:100F8000010000007950010800000000000000008E
:100F90000000000000000000000000002C090020FC
:100FA000F8670020040000000100000069670108E4
:100FB0000000000000000000000000000000000031
:100FC00000000000860000008C06002000000000E9
:100FD000040000000100000089500108000000002A
:100FE0000000000000000000000000000000000001
:100FF000280900200000000004000000010000009B
:10100000C1500108000000000000000000000000C6
:101010000000000000000000240900200000000083
:1010200002000000000000000000000000000000BE
:10103000000000000800000001000000B15001089D
:1010400000000000000000000000000000000000A0
:101050000000000020090020000000000400000043
:1010600001000000C1500108000000000000000065
:10107000000000000000000000000000D800000098
:101080000000000005000000060000000200000053
:10109000000000001C090020F4670020020000008E
:1010A00001000000590F010818090020000000008D
:1010B0000100000001000000390F01085407002062
:1010C0000000000000000000000000000000000020
:1010D000000000000000000000000000010000000F
:1010E0000000000000000000000000000000000000
:1010F00001000000000000000000000000000000EF
:1011000000000000010000000000000003000000DB
:101110000000000005000000FFFFFFFF2A010000A3
:101120000426060825000000FFFFFFFF3D730108AD
:10113000C97301080D740108311201084D740108CA
:101140009974010835120108F4080020057301089C
:10115000191101083D11010861110108651101080B
:10116000C11101082D120108D008002089120108C0
:10117000B5120108CD120108D1120108E574010869
:10118000D5120108D9120108C02806086D5B0508B0
:10119000E5310508F55905080000000000000000D1
:1011A000294E0508694E05080000000000000000F7
:1011B00000000000253205087510010881100108A3
:1011C000B1720108897201088D100108CD72010801
:1011D000E97201081F0000001C0000001F00000051
:1011E0001E0000001F0000001E0000001F00000085
:1011F0001F0000001E0000001F0000001E00000075
:101200001F0000000068214C008002021F00000047
:1012100053544D202020202050726F64757420207C
:101220002020202020202020302E3031008002027B
:101230001F00000053544D202020202050726F6466
:10124000757420202020202020202020302E3031B6
:1012500006000000050000008300FFFF1A000000E8
:101260008200FFFF1D0000008200FFFF170000004A
:101270001500000055340508593405085D3405088B
:10128000693405086D3405086134050865340508BE
:10129000FFFF0000FFFFFFFF01000000255E0508C3
:1012A0009D5E050849670508DD770508696605083C
:1012B000DD5F05083132050899320508AD320508B1
:1012C0000101FF00084006083C400608704006087F
:1012D000FFFFFFFFA54B0208000101010000000015
:1012E000FFFFFFFF10A4060800000802050303002B
:1012F000000000001CA40608010008020504030009
:101300000000000028A406080000080205030300EE
:101310000000000030A406080100080205040300D4
:1013200000000000900407080200FE010110030005
:1013300000000000809A0608030014020003000069
:101340000000000038A4060804001F020200080084
:101350000000000040A4060805001F02020108006A
:10136000000000007D00000002000000CCA4060880
:1013700030A8060800000000BD0D0308A08601008B
:1013800004000000CCA4060870000708000000005C
:1013900019430208E803000004000000489B060807
:1013A00000000000000000008D1B03087D0000000D
:1013B000FF000000449F060800000000000000003D
:1013C000294003087D000000FF0000006C0B0708A7
:1013D0000000000000000000590404087D00000027
:1013E000FF000000C4A80608000000000000000084
:1013F000091B0208E80300000300000028A10608FA
:10140000000000000000000025F203081027000083
:101410000300000034A406080000000029C40308EB
:10142000B1AF02085F76000005000000B0AA060810
:101430000000000000000000717202081027000088
:101440000200000078000708000000000000000013
:10145000E5110208E8030000050000008400070809
:10146000000000000000000029160308204E0000C4
:1014700003000000940007080000000000000000C6
:1014800025340308204E000003000000A4000708D4
:10149000000000000000000085170208400D030056
:1014A00003000000A8A506080000000000000000DE
:1014B000BDAD02081027000002000000B4000708BC
:1014C00000000000000000004D790208A086010025
:1014D00002000000EC9F0608000000000000000071
:1014E00099760208A8610000020000009C9D060891
:1014F0000000000000000000D97202081027000060
:1015000002000000B8AA0608000000000000000069
:10151000C17B0208A00F000002000000B0A5060871
:101520000000000059C40408250B0508854501008A
:10153000020000005C9D06080000000000000000A2
:10154000E5C60408102700000200000044A80608B1
:10155000000000000000000071AA040850C3000051
:1015600002000000BC0007080000000000000000AE
:1015700085380508400D030001000000C40007087D
:10158000000000000000000071EF040850C30000DC
:1015900003000000D0000708000000000000000069
:1015A0006931030840420F0001000000DC00070819
:1015B00000000000000000006582020850C3000027
:1015C00001000000E8000708000000000000000023
:1015D00041F804081027000002000000A95905087E
:1015E000913105088D58050800000000C13105083B
:1015F000DD590508ED460508C9460508000000004C
:1016000000000000B53105082534050849340508F7
:1016100041770508257705085D770508797705087E
:1016200095770508FD5805086D3105087D560508B4
:10163000000000003D3105081D450508BD450508B1
:10164000A546050800000000000000006131050803
:101650000000803F000000000000000000000000CB
:101660000000803F000000000000000000000000BB
:101670000000803F000000000000000000000000AB
:10168000FFFFFFFFD1830208000000000000000000
:1016900000000000E58302080000000000000000D8
:1016A00000000000FFFFFFFF01010000000000003C
:1016B000E80901200800000000000000D80901200E
:1016C00008000000FFFFFFFFFC0A0120500B012073
:1016D00001F11F3F141D0120221D0120D601000031
:1016E000FF1FFF1FFF00000089AD0208000000007F
:1016F00000000000000000000000FA430000FA4370
:101700000000803F0000000000000000000000001A
:1017100000000000000000000000000000000000C9
:1017200000000000000000000000803F00FF0000FB
:101730000000000000000000DD5E04080000000062
:1017400000000000BC7A0608010000000000000054
:1017500000000000000000002C7F060800000000D0
:101760000000000000000000E47F06080000000008
:101770000000000000000000907F0608557A040871
:101780000000000000000000E890060800000000D3
:10179000000000009174040846210120FF000000B1
:1017A00001000000FA00000001000000010000003C
:1017B000B5B904080000000000000000907E060893
:1017C000D13705080000000000000000047E060874
:1017D000E7B404080000000000000000BC7D06081B
:1017E0002D202D2D202D2D2D2D202D2D2D000000D7
:1017F00000000000000000000000000000000001E8
:10180000010000006E1E012088136F170100000008
:10181000701E012088136F1700000000721E012047
:1018200088136F1701000000741E012088136F17C2
:10183000000000008D5E04080000000000000000B1
:10184000247B06087E21012001000000787B060829
:10185000771E012001000000847B06081C1F012068
:10186000020000008C7B0608B55E04080000000042
:1018700000000000987B0608000000000000000047
:1018800000000000EC7B06080000000000000000E3
:10189000000000005C7C06086C1E012002000000B5
:1018A000A47C06088C250120E0150C170000000020
:1018B000C01200004E2601200000000000000000C1
:1018C0004C26012000000000000000004A260120F4
:1018D0000000000000000000482601200000000079
:1018E000000000004626012000000000000000006B
:1018F000442601200000000000000000780F0020B6
:101900000000000000000000761E0120030000001F
:10191000947C0608000000000000000000000000A9
:10192000B07C060852260120E0150C1700000000CC
:101930005426012002000000A47C06082D202D2D35
:10194000202D2D2D2D202D2D2D2D000000000000EF
:101950000000000000000000000000000000000087
:101960000000000000000000E87C06085626012068
:101970009CFF2C010000000066250120E0150C17DB
:1019800000000000CE24012002000000A47C060814
:101990002D202D2D202D2D2D2D202D2D2D2D0000F8
:1019A0000000000000000000000000000000000037
:1019B000000000000000000000000000207D06087C
:1019C000081E012000C80100071E01200050010070
:1019D000061E0120005A0100041E01200200000022
:1019E0007835060868080708700807085A1F01209C
:1019F0000100C40900000000581F01200100C409B3
:101A000000000000561F01200100C4090000000072
:101A1000541F01200100C40900000000501F0120D4
:101A20000100C40900000000521F01200100C40988
:101A3000000000004E1F01200100C409000000004A
:101A40004C1F01200100C409000000004D1E0120B0
:101A500000C801004C1E012000C801004A1E0120E0
:101A60000000FFFF0A000000481E01200100C8001E
:101A700001000000461E01203200307532000000D7
:101A8000441E0120E2FF140005000000421E012058
:101A90007EFF140005000000401E012005002C01FF
:101AA000050000003E1E0120055A0500531E0120BE
:101AB00000FF0100511E012002000000AC100020B8
:101AC0004F1E0120030000002C800608521E01203A
:101AD00000FF0100501E012002000000AC10002099
:101AE0004E1E0120030000002C8006082C1F012040
:101AF000FF7F0100281F012000000000FFFFFFFF03
:101B000001000000241F012000000000FFFFFFFF74
:101B100001000000201F012000000000FFFFFFFF68
:101B200001000000CC1D0120EE02CA0801000000E7
:101B3000CA1D012000C8010064000000C91D012069
:101B400002C8010064000000C81D0120010000005F
:101B50003C8006086A1E01200000803E050000004F
:101B6000681E012080C1803E05000000661E012025
:101B70000083007D05000000641E012080C1803EBE
:101B800005000000621E012000FF0100601E012010
:101B90006400F401010000005E1E01206400F401F5
:101BA000010000005C1E01206400F401010000003F
:101BB0005A1E01200400000084390608591E012025
:101BC0000200000078390608000000000000000054
:101BD0000000000044800608C71D01204F000000DF
:101BE000F8360608C51D0120030000007C800608A9
:101BF000C61D01200400000098390608371E012088
:101C0000030000008C800608361E0120030000003F
:101C10008C8006082A1E0120000A0100281E0120CF
:101C20000000E80301000000261E01200000E80378
:101C300001000000241E0120000A0100221E0120D4
:101C40000000E80301000000201E01200000E8035E
:101C500001000000181E0120C800E8030100000078
:101C60001E1E01201400FA00010000001C1E0120AD
:101C70000100E803010000001A1E01200005010018
:101C8000161E01200200000034360608141E012032
:101C90000000F40101000000121E01200000F40108
:101CA00001000000101E01200000F40101000000EE
:101CB0000E1E01200000F401010000000C1E012096
:101CC0000000E803010000000A1E01200000E803F4
:101CD00001000000031E0120006401000A00000052
:101CE000021E0120006401000A000000F11D012015
:101CF00019640100F01D01200200000028360608CA
:101D0000E51D012000640100E41D012000640100C4
:101D1000EC1D0120006401000A000000EB1D012001
:101D2000006401000A000000EA1D012000640100B7
:101D30000A000000EF1D012000FF01000A00000062
:101D4000EE1D012000FF01000A000000ED1D012032
:101D500000FF01000A000000E91D012001FF010051
:101D60000A000000E81D012001FF01000A00000038
:101D7000E71D012001FF01000A000000341E0120C0
:101D80000000F40101000000321E01200000E80301
:101D900001000000301E01200000E80301000000E7
:101DA0002E1E01200000E803010000002C1E01206F
:101DB0000000E80301000000AA200120E803D0078A
:101DC0000A000000A9200120006401000A000000B0
:101DD000A8200120009601009F20012000C80100DA
:101DE0009E200120006401009D200120006401006C
:101DF0009C200120006401009B2001200064010060
:101E00009A200120FF0801009920012001640100AF
:101E10001559040859590408000000009C80060860
:101E2000A220012001320100A120012001000000B8
:101E3000FC350608A0200120040000000436060836
:101E400098200120009601009720012000640100E5
:101E50009620012000FA0100640000009520012076
:101E60000A5A01009420012000C80100932001209B
:101E700000C801009220012000C80100A520012017
:101E800000320100A720012000140100A62001203B
:101E9000005F0100A4200120040000003C3506087A
:101EA000A3200120006401000A000000DF1D0120C2
:101EB0000AC805000A000000DE1D01200100000024
:101EC000FC390608E11D01200AC805000A000000CF
:101ED000E01D012001000000FC390608D61D01208C
:101EE00000C805000A000000DD1D012000C8050033
:101EF0000A000000D71D012000C805000A000000EC
:101F0000D81D012000C805000A000000DB1D0120CB
:101F100000C805000A000000DC1D012000C8050003
:101F20000A000000DA1D012000C805000A000000B8
:101F3000D91D012000C805000A000000D51D0120A0
:101F4000020000000C350608902001200000D00798
:101F5000010000008B20012000C801008A20012020
:101F600000C801008920012000C801008E20012046
:101F70000000D007010000008820012000C80100F7
:101F80008720012000C801008620012000C8010030
:101F90008C2001200000D0070100000085200120D6
:101FA00000C801008420012000C801008320012016
:101FB00000C80100C4120708000000000000282625
:101FC0000120D01207080708000000007416002046
:101FD000D81207080708000000006C160020E01265
:101FE000070807080000000064160020E812070830
:101FF00008080000000058160020F0120708070823
:102000000000000050160020F81207080708000022
:102010000000481600200013070807080000000011
:1020200040160020081307080808000000003416B6
:102030000020101307080710000000002C160020D5
:1020400018130708071000000000241600202013B2
:1020500007080710000000001C16002028130708BE
:10206000081000000000101600209006070801006C
:102070000000000000000000000000001000000050
:102080000000000000000000695B0408795B0408A0
:10209000236704080C8106083D1E0120005A010038
:1020A0003C1E012000C801003A1E0120E803D007B1
:1020B0000100000000000000000000000D80040886
:1020C000A8810608581E012003000000FC34060801
:1020D000571E012000030100561E012000030100CD
:1020E000F55B0408495C040800000000FC81060858
:1020F0009D5C0408DD5C040800000000A482060862
:102100003D7A0408A57B040800000000248306082B
:10211000541E012001030100915F0408B95F040807
:10212000000000003486060881570408A9570408F7
:1021300000000000B48606085D5D0408BD5D04086B
:102140000000000018870608317604084557040887
:1021500000000000D0870608555B0408000000005E
:10216000000000006C880608155A0408815A04080B
:1021700000000000D08806089D590408D9590408B9
:10218000000000008889060819C00408E558040802
:1021900000000000148A06088120012003000000CE
:1021A00018260120E55A0408215B040800000000FD
:1021B000108B06085DC00408C97804080000000000
:1021C000808B06085D580408A5770408000000000D
:1021D000188D0608BDBF04086577040800000000DC
:1021E0007C1600208220012003000000D42501205D
:1021F000955B0408C55B040800000000248E0608F7
:10220000657404080000000000000000888E0608C5
:10221000255D0408C17B040800000000248F060827
:10222000000000000000000000000000C08F060851
:1022300031BF040831770408000000003090060820
:1022400001010100102F012000000000082F0120D3
:102250000000000001010000AA5507010000140160
:10226000FF00000009024300020100C0320904001F
:1022700000010202010005240010010524010001F3
:10228000042402020524060001070582030800FF5A
:1022900009040100020A00000007050102400000D5
:1022A000070581024000000009026400030100C02C
:1022B000320904000001030000000921110100019E
:1022C0002236000705830309000A080B01020202F7
:1022D00001000904010001020201000524001001AF
:1022E0000524010002042402020524060102070558
:1022F00082030800FF09040200020A00000007052B
:102300000102400000070581024000000902200090
:10231000010104C032090400000208065005070547
:102320008102400000070501024000001201000286
:10233000EF02014083045632000201020301000053
:102340001201000202020040830440570002010211
:1023500003010000040309040101AA55050100005E
:102360000800000005010905A101A10005010930CF
:10237000093109320933093509340936093715811C
:10238000257F75089508810205091901290815009E
:102390002501950875018102C0C0000009022200D4
:1023A000010100E0320904000001030102000921DB
:1023B000110100012236000705830309000A00000D
:1023C000000000000000000001000000000000000C
:1023D000000000002A410120000000000100000070
:1023E00000000000000000000000000000000000ED
:1023F00000000000000000000000000000000000DD
:1024000000000000000000000100000000000000CB
:10241000AA550902000000AA5503009F0100000010
:10242000AA550B010000AA5505010000FF0000009D
:10243000000000000102030401020304060708096A
:1024400091540508315505086D4F05080D310508F3
:10245000AD580508F1300508D93005081D310508CB
:102460002D31050800000000000000000000000001
:10247000497C0508D97B050815680508E57A050833
:10248000D1780508F5330508093405081D34050819
:102490000000000000000000010203040607080914
:1024A000C70000000500000006000000781B0020A7
:1024B000000000000000000000000000000000001C
:1024C000000000000000000000000000000000000C
:1024D00000000000000000000000000000000000FC
:1024E00000000000000000000000000000000000EC
:1024F00000000000000000000000000000000000DC
:1025000000000000000000000000000000000000CB
:08280000082800080040000850
:1080000082B01E4B002201920193019B1C4A043353
:108010000193019B1968936803F00C03042B06D0AD
:10802000082B08D0174B184A1A6002B07047154B3E
:10803000196002B070475368506813F4800F00F065
:108040003F00536812D1C3F388130F49B1FBF0F11D
:1080500001FB03F30A4A0B495268C2F301420132A1
:108060005200B3FBF2F30B6002B07047C3F3881306
:10807000B1FBF0F101FB03F3ECE700BF5028004037
:1080800000380240D81B00200024F400074BD0F831
:10809000E4105B68D0F8F0205B1A9A42B8BFC0F8D1
:1080A000F030012380F81C3100207047001000E000
:1080B00090F8DB30052B03D890F81E31032B01D04C
:1080C0000020704790F8233103F0FB03022B0CBF14
:1080D00000200720704700BFB84B00EB800103EB86
:1080E000C10170B54A685268B2F814E01EF0010F81
:1080F0004FEA800C6ED15FFA8EF4A60742D5BFF32B
:108100005F8F91F82040012CE5B200F0D180118BF7
:10811000BFF35F8F0CEB000103EBC10191F820402E
:10812000022C00F0E7800CEB000103EBC10191F899
:108130002040032C07D191F8221021B193F87D1033
:10814000002940F0E780918889B241F480619180F4
:1081500093F97C100CEB000E03EBCE0E9EF820E0A2
:108160000EF1010E8E450CD1002183F87D1093F89D
:108170007E10002940F0B780604403EBC00300226A
:108180005A7770BD65075DD414F0400400F0CB80D1
:10819000148A93F97C508E6AE4B274555FFA85FEB6
:1081A0000EF1010464B291F8206083F87C40E51C74
:1081B000AE42214600F025810CEB000503EBC5051E
:1081C00095F82050AC42C5D10EF1020149B283F8B6
:1081D0007C10BFE7B2F800E02EF4006E4FEA0E4EBE
:1081E0004FEA1E4EA2F800E01488A4B244F4806462
:1081F000148091F82240002583F87C50002C48D050
:1082000093F87D40002C41D0012183F87D100CEBC8
:10821000000103EBC10191F82010022904D111885B
:1082200089B241F4006111800CEB000103EBC10144
:10823000897F41F001011182604403EBC00393F890
:10824000203070BD91F82240012583F87E50002C2B
:1082500070D093F87D40002C71D10CEB000103EB42
:10826000C10191F82110002900F0AA80118889B27B
:1082700041F40071118093F87C1001314CB283F805
:108280007C401188CE05FCD4214663E7C97FFF29D5
:10829000BAD00CEB000103EBC1018C7F04F0FE04AB
:1082A0001482CA7FFF2AC7D0FF2283F87C20C3E74D
:1082B00091F8221000293FF42AAF93F87D1000298D
:1082C0003FF425AF118821F480610904090C118065
:1082D000BFF35F8F118B118883F87E5089B241F410
:1082E000007111802FE7918821F440710904090C75
:1082F000918041E791F8221000293FF414AF93F8E0
:108300007D1000293FF40FAF118821F4806109042A
:10831000090C1180918821F480610904090C918075
:1083200093F97C1016E71FFA8EF52D062DD493F9DC
:108330007C100FE793F87D1000298ED096E791F816
:108340002040022C148846D924F480642404240C90
:108350001480158A8E6A93F97C40EDB235558E6A89
:10836000118889B241F400711180E4B2158A611C50
:1083700049B2EDB275549188023489B264B241F4C5
:10838000806183F87C4091807BE793F97C506E1C80
:108390003ED04C6A665D16826C1C91F8205064B227
:1083A000A54283F87C4021467FF4D4AE948824F41F
:1083B00080642404240C9480CCE600BFD81B0020E9
:1083C000118893F97C4089B241F4807111800121B8
:1083D00083F87D1055E7A4B244F400741480158A24
:1083E0008E6A93F97C40EDB23555E4B28E6A158AF7
:1083F000611C49B20334EDB264B2755483F87C4019
:108400003FE7958825F480652D042D0C9580D3E6F3
:1084100083F87C40CC7F148291F8224024B991F8F3
:10842000201000297FF408AF918821F480610904AD
:10843000090C918000E700BF30B5EAB18E464FEAE3
:10844000014C034600F1C005002419689A6841EA0E
:108450000C0142EA0E029A60C3E900140C33AB42ED
:10846000F3D1D0F8C030C0F8C44043EA0E03C0F8DE
:10847000C030C0F8C84030BD4FEA014E8C46E0E73E
:1084800083691969B3F80CC00A6830B49C6822F09B
:10849000010224680A60A28992B222EA0C02A28137
:1084A000027D04681F2A06D96568203A082090409A
:1084B000284246D0FEE72568082090402842F9D19E
:1084C000202000FA02F2A260274A92F87F20002AB8
:1084D00035D01A7E012A39D0D3F8F4200132C3F8FE
:1084E000F420EFF31181502282F3128858685C6CFB
:1084F000026822EA04029C6C2243C9B2026081F342
:108500001188D3E90C401A6999681D6C09681460D8
:108510005061D3E90E40546090600024B3F8A80085
:10852000D5604C62C86210680124204310601C763C
:1085300083F8F1408A899B8913439BB28B8130BCBD
:108540007047202000FA02F2E260BDE7002283F8C3
:10855000F120D3F8F8000A68013022F00102C3F8D4
:10856000F8000A60EBE700BFD81B002010B40D4CE8
:10857000D4F88030002B12DD002004F1840C014679
:10858000DCF8A03003F1C00259600C339342FBD1F8
:10859000D4F88030013083420CF5807CF0DC5DF84B
:1085A000044B7047D81B0020704700BF024B03EB01
:1085B000401090F8A1047047D81B00204368B0F821
:1085C000502010B41A83EFF31182502383F31288E2
:1085D0004168446C0B6823EA0403C46C2343D2B2A1
:1085E0000B6082F31188D0E9074182680369126841
:1085F0001C605961D0E909415C60C46A9960B0F8B7
:108600006010DC600023D1625DF8044B0376704794
:10861000084B10B5D3F8843518440C46007E1BF087
:10862000CBFD18B1036882880CB11A8310BD5A8340
:10863000FCE700BFD81B0020F8B5037D85691F2B20
:1086400004464CD90168A3F120024E6820209040D6
:10865000064233D010239340C860CB604B68D340B0
:10866000DE0779D4EFF31183502282F312882A6C4B
:108670001168C9075AD4516889B271B9D5E909603E
:10868000864250D0AF690744D7606AD9301A80B2A9
:108690005060AE62002185F86410116841F001015C
:1086A000DBB2116083F3118895F86430002B44D15C
:1086B000237D1F2B27D92168A3F120024C680820B5
:1086C0009040044200D0C8604C68042000FA02F2D6
:1086D000224203D0203B00FA03F3CB60F8BD0268CE
:1086E000202016689840064219460ED01021994065
:1086F000906091601168D940C807B3D5012101FA93
:1087000003F39360AEE722681946106808238B4094
:10871000184200D093601068042303FA01F101426B
:10872000DCD09160F8BD012285F86420DBB283F3D0
:10873000118895F86430002BBAD095F87C30002B66
:10874000B6D1012395F8710085F87C301BF034FD1B
:1087500020211AF001FFABE7012303FA02F2CA60FD
:1087600080E72E69301A80B25060A96292E74FF418
:1087700000638381704700BF074BD0F8E4105B684B
:10878000D0F8F0205B1A9342C8BFC0F8F030012344
:1087900080F81C3100207047001000E04FF40063A7
:1087A000838170474FF40063838170474FF4006307
:1087B00083817047012380F81031704707B500238B
:1087C0008DF807300DF1070201230F211AF0BCF9D3
:1087D00028B19DF807306C2B14BF0020102003B087
:1087E0005DF804FB4FF40063838170474FF400632E
:1087F000838170474FF40063838170477047012085
:1088000070470120704730B1094BD3ED097AFDEE76
:10881000E77AC0ED007A51B1054B9FED067AD3EDB2
:108820000A7A67EE877AFDEEE77AC1ED007A704743
:10883000602100200000C842024B012283F8B425C9
:10884000704700BFD81B0020344AF0B5B2F8C235DB
:10885000B2F8B655B2F9CC45B2F9BA65B2F9C6C5A7
:10886000B2F9D875ED1AB2F8C0356B43B2F9CA55F2
:1088700004EBE334ED0295FBF4F505EBE335A5F5E8
:108880007A6E0EFB0EF42313B2F9BC45C2F8D45530
:108890000EFB06F60EFB04FEB2F9C4455C4303FB77
:1088A0000CFCF612241406EBEC2C04EB6E34B2F93B
:1088B000B865B2F8BE3502340CEB860CA410D2F8C1
:1088C000DC6504F500440CFA07FC63430CF1020C70
:1088D0004CF25032DC0BA6EBAC0642FA07F37343C2
:1088E00055BF5B00B3FBF4F3B3FBF4F35B0070B173
:1088F0001A1240F6DE3452436243094C12145C43B0
:1089000002EB244202F6CF6203EB2213036021B193
:108910000A235D4308352D110D60F0BDD81B0020E2
:1089200043E3FFFF704701207047012070472DE9A6
:10893000F047DFF88081D8F8E055B8F8E425B8F8BA
:10894000EA95C2EB25135200C2EBE502B8F9E655F1
:108950006A4303FB03F5B8F9E8352D135D43AD1306
:1089600005EBE225B8F9EE35C8F8FC550E46A5F53D
:10897000FA31074681FB010C4FEAE37E03FB0CF260
:1089800000FB0E22A3FB003E9644B8F9EC2582FBC7
:1089900001421B0A120343EA0E6342EA1452240303
:1089A0001B1942EB2E2202F50042A3FB093E09FBF4
:1089B00002EE4FEAEE734FEA6E0253EA6E0E4FF08C
:1089C00000046BD0B8F9F4954FEAE97E09FB0CFC82
:1089D00000FB0ECCA9FB00908444B8F9F20580FBA3
:1089E00001E148044FEA4E4111EB0909D8F800169D
:1089F00040EADE304CEB0000C1F5801C0CF0004A70
:108A0000B8F9F01514EB09044AEA5C0A4FEACC7C89
:108A100000EBC10140F63549BCEB04006AEB010AEA
:108A2000A0FB090109FB0A1157F03CFCB8F9FA4513
:108A30004FEA613E430B43EAC14304FB0EF24FEAA7
:108A4000E47C03FB0C2CA4FB0342624404FB0EFEFB
:108A500003FB02EEA4FB0343B8F9F8259E44640E21
:108A600044EACE1414EB000C02FB01F34FEAE2746B
:108A7000814641EB6E6EA2FB092904FB003149449B
:108A8000D40C44EA41341CEB0404B8F9F6354EEB3F
:108A9000E141240A44EA016404EB03140FB1240AFF
:108AA0003C6026B105EB850580352D123560BDE8AB
:108AB000F08700BFD81B002000B583B04FF0000C3A
:108AC00001230DF10702112198388DF807C01AF023
:108AD0003BF803B05DF804FB704700BF012070470E
:108AE0000120704708B5006854F092FB38B9054A78
:108AF000B2F804365BBAA2F8B635012008BD0020F2
:108B0000FCE700BFD81B002008B5006854F080FBCC
:108B100098B90B4A92F8053692F804161B0243EAFC
:108B2000014392F806160B43B2F9D815C1F10801BA
:108B3000CB40C2F8DC35012008BD0020FCE700BFB7
:108B4000D81B002008B5006854F062FBE0B90F4B59
:108B500093F8082693F80716120142EA013293F8B7
:108B6000091642EA1112C3F8002693F80B2693F86F
:108B70000A16120142EA013293F80C1642EA111267
:108B8000C3F8E025012008BD0020FCE7D81B002029
:108B900003681A78012A1CD0144B00B593F81616F6
:108BA00093F815C693F8140693F8192693F818E667
:108BB000090441EA0C210143120493F81706C3F893
:108BC000101642EA0E220243C3F81C2601205DF86B
:108BD00004FB93F90420054B02EB820203EBC20273
:108BE000527F002AD9D00020704700BFD81B002038
:108BF0002DE9F04FC94C83B0B4F82036D4F81C26C8
:108C000094F92456CDE90001B4F82216A2EB032210
:108C1000A1FB02139E04A2FB0223EF1705FB03F343
:108C200002FB073346EA9136A5FB025289046D1810
:108C30001A4442EB0603002B02DA013D43F1000324
:108C4000B74ADF1742E90237009A002A00F0148180
:108C500003FB07F1A3FB032E0EEB410E4FEA921C20
:108C60004CEA8E6C0CFB07FB4FEAAE1103FB01BB19
:108C7000ACFB03C81BEB080BD4F8105600F148817D
:108C800094F92A164FEA1C2C4CEA0B6C4FEA2B2B5A
:108C90004FEAE17801FB0BFA0CFB08AAA1FB0C18C8
:108CA0001AEB080800F13081B4F92566B4F927966B
:108CB000490941EAC8610846A6F5804694F9291693
:108CC000B60306EB681ACE1701FB0EF802FB068806
:108CD000A1FB02164644B60046EA91768900A9F542
:108CE000804941184AEB060609FB07F84FEAE97A82
:108CF00003FB0A88A9FB039AD0444FEA485848EA84
:108D0000D9284FEA495911EB090146EB0806002E14
:108D1000C0F2F38094F9309609FB0BFB4FEAE97837
:108D20000CFB08BBA9FB0C98090E1BEB080841EAD9
:108D300006214FEA266600F1DB804FEA591C94F9C0
:108D40002F96B4F82DA609FB0EFE4FEAE97B02FB35
:108D50000BEEA9FB0229CE444FEA0E1E4CEAC86C6A
:108D60004EEA127E12011CEB020CB4F82B264FEADD
:108D7000C23202EB6818AAFB03920AFB072A4FEAE9
:108D80008A5A4AEA992A4FEA895948EB0E081CEB9D
:108D9000090948EB0A08B8F1000FC0F2A48094F961
:108DA00033E6B4F931B64FEA9909A1FB051249EA55
:108DB000887919EB010905FB06264FEAEE710EFBD7
:108DC00007F24FEA0B4C03FB0122AEFB03E146EB3B
:108DD000A8060A441EEB0C0E42EBEB7BAEFB05CE65
:108DE00005FB0BEEBEF1000F76DB4FEA5C3C4CEA74
:108DF000CE4CACFB05C14FEA6E3E05FB0E1EBEF12C
:108E0000000F62DB4FEA5C2C94F934264CEACE5C0E
:108E100019EB0C0146EB6E264FEAE27CA5FB054EF2
:108E200004FB0CFC02FB0ECCA4FB02421CEB020C6C
:108E300045D4220C42EA0C42A2FB05244FEA2C4CFA
:108E400005FB0C4CBCF1000F35DBD20942EA4C6249
:108E5000521846EBEC16941846EB060CA41846EB99
:108E60000C0C4FEACC0C4CEA547CE400A41846EB02
:108E70000C06009A360C1660019A9AB1DA1847EB84
:108E80000701D21847EB0101C90041EA5271D20033
:108E9000D31847EB0107002F07DB019A9B0B43EA2E
:108EA0008743136003B0BDE8F08F43F6FF729B1851
:108EB00047F10007F1E77F324CF1000CC5E74FF6B0
:108EC000FF72A4184CF1000CB3E740F2FF111CEB49
:108ED000010C4EF1000E95E741F6FF721CEB020CFF
:108EE0004EF1000E81E719F1030948F1000856E739
:108EF00019F11F0948F100081FE76FF07F4911EBD6
:108F0000090146F1000605E71F3148F10008CBE6EC
:108F10001CF1FF0C4BF1000BB2E600BFD81B002088
:108F2000182200203D4B9FED3E4A93F8411693F8DE
:108F3000400693F8422693F843C6090201EB00412C
:108F40000A44090248BF02F17F4207EE902AB3F9B2
:108F50005C2693F8440693F8451606EE102AB3F9FA
:108F60005826F8EEE77A06EE902A67EE847AB3F98F
:108F70005A26B8EEC66AF8EEE66A0002E7EE866A9E
:108F800000EB0C40014406EE102AB3F9562605EE1C
:108F9000102AD3F85026000207EE102AB3F95426FF
:108FA00048BF01F17F41F8EEC75A04EE902A07EE60
:108FB000101AD3F84C26B8EEC66AB8EEC55AE6EEDB
:108FC000A75A012006EE902AB8EEC77AA7EE865A75
:108FD000B3F94A26B3F9483627EE047AF8EEE44AA4
:108FE000B8EEE66A06EE902AA7EE246AE5EE075A86
:108FF000F8EEE66A05EE103A26EE877AB8EEC55A24
:10900000F6EE004AF0EE466AE7EEA56A054BA5EEDD
:10901000247AC3ED066A83ED077A7047D81B0020D7
:10902000082184362022002030B10A4BD3ED067A85
:10903000FDEEE77AC0ED007A51B1064B9FED067A5E
:10904000D3ED077A67EE877AFDEEE77AC1ED007A15
:10905000704700BF202200200000C842704700BFB8
:10906000012070470120704770477047012070470A
:1090700030B585B000238DF807300DF107020123CC
:10908000E721054619F0CAFD9DF80730134C13F08F
:10909000030320D0052302AAE821284619F0BEFDCB
:1090A0009DF80A209DF80910130443EA01239DF856
:1090B000081012F0800F43EA010314BF4FF07F4203
:1090C00000221343C4F86836BDF80B30A4F86C36A0
:1090D000012005B030BDC4F86836F7E7D81B002082
:1090E0000B4A10B5D2F868466423634348BF03F6C1
:1090F000FF731B130360B2F86C360A22534330220D
:10910000B3FBF2F303F584531A330B6010BD00BFB9
:10911000D81B002008B5006854F07AF870B9084AE6
:1091200092F8753692F874161B0243EA014392F8DE
:1091300076160B43C2F87036012008BD0020FCE70C
:10914000D81B002010B50446006854F061F838B907
:109150002046044A0623F72156F06CFA012010BD80
:109160000020FCE74F22002010B50446006854F0B0
:109170004FF870B9084B93F87D2612B193F8B405F7
:1091800030B12046054A0223F62156F053FA012059
:1091900010BD0020FCE700BFD81B0020DC21002010
:1091A00010B50446006854F033F870B9084B93F8D2
:1091B0007D2612B193F8B40530B12046054A032349
:1091C000F62156F037FA012010BD0020FCE700BF61
:1091D000D81B0020DC21002010B50446006854F0A4
:1091E00017F838B92046044A0623F72156F022FA28
:1091F000012010BD0020FCE7DF21002008B5036836
:109200001A78012A06D0094A0623042156F012FAD8
:10921000012008BD93F90430054A03EB830302EBF8
:10922000C3035B7F002BEED0002008BDEC210020A3
:10923000D81B002008B503681A78012A06D0094A0D
:109240000623002156F0F6F9012008BD93F90430F9
:10925000054A03EB830302EBC3035B7F002BEED0D5
:10926000002008BD18220020D81B002008B5006887
:1092700053F0CEFF70B9084A92F8753692F874161A
:109280001B0243EA014392F876160B43C2F880367C
:10929000012008BD0020FCE7D81B00202DE9F74F76
:1092A000564AB2F88E36B2F88A66B2F89076CDE9B0
:1092B0000001D2F870161B02C91AB2F88C366EEB98
:1092C0000E0EA3FB010403FB0E44B2F88836C0095E
:1092D00040EA44601B04C018A6FB013506FB0E558E
:1092E000B2F886664FEA132343EA05634FEAC636AF
:1092F0004FEAE41444F100049B19A7FB012607FB85
:109300000E664FEAD25242EA46224FEA252545F13F
:109310000005F61512F5FA6C46F1000BBCF5FA6F74
:109320007BF100074CDAA2FB02784FF0050A02FB42
:1093300006F908EB4909A7FB0A780AFB09884FEAF6
:10934000570949EAC879BF08B0EB090047EA8877AE
:1093500064EB6804DB1B2A4F65EBA805BC454FF0A6
:10936000FF377BEB070720DA40F6AC57D21946F1FE
:1093700000065643A2FB027202EB46064FEAC608FD
:10938000FA00BA1A48EA577866EB0808101844EB56
:1093900008044FF00B08A7FB087208FB06267F089D
:1093A00047EAC677DB1B65EB660501FB0EFEA1FBFA
:1093B000011202EB4E0EC90F41EA4E01BCEB010C4B
:1093C000009A9AB10D4AD2F88016A1FB032301FB43
:1093D0000535520D42EAC522121A4FEA6555009B27
:1093E00065EB0404D20B42EA44421A60019B0BB1C4
:1093F000C3F800C003B0BDE8F08F00BFD81B002049
:1094000024FAFFFF7047012070470120704710B514
:109410000446006853F0FCFE38B92046044A06238F
:10942000F72156F007F9012010BD0020FCE700BF2E
:109430006C22002008B5006853F0EAFED0B90E4B4C
:1094400093F8952693F89416120242EA014293F893
:1094500096160A43C3F89C2693F8982693F8971615
:10946000120242EA014293F899160A43C3F8A02671
:10947000012008BD0020FCE7D81B002010B52C4CB3
:10948000D4F8A026A2F5000207EE102A04F2A46385
:10949000B8EEC77A93ED026AD3ED016AD3ED007A94
:1094A000D3ED055AD3ED044AD4F89C2693ED094A2E
:1094B00093ED075AE7EE066AA2F5000293ED066AFD
:1094C000E7EE267A93ED037AE5EEA74A06EE902AB8
:1094D000A7EEA47AF8EEE66AD3ED085AD3ED0B4A6C
:1094E000A4EE275AE6EEA45A93ED0A4AA5EE276A9F
:1094F000E4EE275AA5EEA66AA6EE867AB5EE407A85
:10950000F1EE10FA18BFBDEEC77AF5EE407A18BF3B
:1095100080ED007AF1EE10FA08D0FDEEE77A17EE52
:10952000903A002BB8BFFF331B120B6010BD00BF79
:10953000D81B002010B5074C94F8D4360BB9002086
:1095400010BD1BF089FCD4F8D836C01AD0F5FA50FB
:10955000F6D5F4E7D81B0020B0F90000084B4143D2
:10956000994208DBB1F5000F07DA0029B8BFFF31D7
:10957000081200B270470348FBE747F6FF70F8E7B0
:1095800001FF7FFF0080FFFF704710B50D4C23786F
:1095900043B10C300C4A0623032156F04BF800204F
:1095A000207010BD094BB3F8DC2652BA0A80B3F81C
:1095B000DE2652BA8A80B3F8E0365BBA4B800120CF
:1095C000EEE700BF98010020B4220020D81B002045
:1095D00010B5124C637843B10C30114A0623282190
:1095E00056F028F80020607010BD0E4AB2F9E2363D
:1095F000002BB8BF03339B100B80B2F9E436002B6D
:10960000B8BF03339B104B80B2F9E636002BB8BFCE
:1096100003339B108B800120E5E700BF98010020F9
:10962000BA220020D81B002010B5174C94F8E83659
:10963000012B00F10C000CD0022B17D0012304F2F7
:10964000E962062155F0F6FF012384F8E836002090
:1096500010BD94F8E93613F00403F6D0062304F2A3
:10966000EA62002155F0E6FF0223EEE7B4F8EA369D
:109670000B80B4F8EC364B80B4F8EE368B800023C8
:1096800084F8E8360120E3E7D81B0020024B0020D5
:1096900083F8F006704700BFD81B0020164BD0F8A7
:1096A000E0105A6810B50446D0F8D80071B1131A0A
:1096B00099420BDC94F8D030C4F8D820012B10D09C
:1096C000D4F8D4300133C4F8D43010BDD4F8E43029
:1096D000C4F8D8200344C4F8DC3094F8D030012B0F
:1096E000EED104F1E801201D19F0FEF8D4F8D430D1
:1096F0000133C4F8D43010BD001000E010B50446AA
:109700000E49D0F8D83094F8D020D0F8E400496859
:109710000344012AC4E9361305D0D4F8D430013308
:10972000C4F8D43010BD04F1E801201D19F0DCF8B4
:10973000D4F8D4300133C4F8D43010BD001000E0A8
:1097400070B5866996F8DC30012B8AB0054629D0C1
:10975000023B012B31D8D6F89C301D4C8C221A705C
:109760000FCCEC46ACE80F00D6F89C300093D6F84E
:10977000A03001930FCCACE80F0094E80300AB6974
:109780008CE8030003F11000694619F0ADF8AA69EE
:109790001369596A103299B18A4200D0FEE71A6AF9
:1097A000002AFCD1D6F8A030B3F90220EA81B3F93F
:1097B00004202A82B3F906306B8201200AB070BD02
:1097C0001A6A002AEED01A6A002AF9D1EAE700BF25
:1097D000781D060838B504460D46FFF7ABFE236832
:1097E0005C6808B11BF070FB22680A4B516A0020CC
:1097F00083F8D40609B18C4209D1126A42B92046D5
:1098000093F8D5362A46C92119F06CF9012038BDE4
:109810000020FCE7D81B0020F0B5836993F8DC201A
:10982000012A8BB005462ED0023A012A36D893F889
:109830004C21D3F89C101E4C62F07F030B7086699C
:10984000D6F8A0305F1C0FCCEC46ACE80F00D6F881
:109850009C30CDE900370FCCACE80F0094E8030052
:109860008CE80300694606F1100019F03DF8AB6979
:109870001A69516A03F1100099B1884200D0FEE7DD
:10988000116A0029FCD1D3F8A0305A8852BAEA8173
:109890009A8852BA2A82DB885BBA6B8201200BB0AD
:1098A000F0BD116A0029EED0116A0029F9D1EAE76A
:1098B000A01D06082DE9F04190F8DC30D0F8A0603A
:1098C000012B8AB0044653D016D8D0F89C304FF004
:1098D000FF321A605A609A60DA60D0F8E0300522F0
:1098E000B3F57A7FC0F8F02064D8032380F8DC3029
:1098F00001200AB0BDE8F081023B012BF8D890F8B6
:109900004D31D0F89C20424D63F07F031370D0F8A6
:10991000A03000F110085F1C0FCDEC46ACE80F0042
:10992000D4F89C30CDE900370FCDACE80F0095E8B6
:1099300003008CE803006946404618F0D5FF236910
:109940005A6A12B190452ED0FEE71A6A002AFCD15D
:1099500073885BBAA4F8D030B3885BBAA4F8D2306D
:10996000F38801205BBAA4F8D4300AB0BDE8F081D6
:1099700090F84C2190F84D319B1A5B100133DBB20B
:1099800006EB430236F813305BBAA0F8D0305388A8
:109990005BBAA0F8D23093885BBAA0F8D43001202B
:1099A0000AB0BDE8F0811A6A002AD1D01A6A002AEA
:1099B000F9D1CDE703691A7B2AB35B691BB390F831
:1099C000983003B390F84C31D0F89C20C4F8A40030
:1099D00063F07F03137090F84C1190F84D31D0F87C
:1099E000A0200C48C4F804015B1A07330121C4F815
:1099F000FC30D4F89C3084F800110A44C4E93D32AC
:109A000084F8DC1074E7022384F8DC3070E700BFD0
:109A1000A01D06088D8000082DE9F047044690F847
:109A2000210144F23B3382B0A4F84C3110B902B0AA
:109A3000BDE8F0870509013D042D00F00F0071D845
:109A40003A4F07EB4503B3F8503043FA00F2D20720
:109A500068D5012606FA00F0013818403D4456F05A
:109A600071FCDFF8D89095F85C80314B804409F2A6
:109A7000F46A0AEBC8052622EA80E360AB88B3FAF1
:109A800083F3202BC3F11F02D1D0174409EB8202CC
:109A90000C34C2F87449284697F8644019F024FD44
:109AA0000021284619F058FD5AF83800A98800F11D
:109AB0003F40B1FA81F100F57E00C1F11F01C0F312
:109AC0008720C9B24DF0FAFBAA888DF80660B2FA79
:109AD00082F24FF00043A144D34068464FF4006245
:109AE0000093ADF8042053F091F999F8B439F02BB4
:109AF0000ED8AB884FF00042B3FA83F332FA03F387
:109B000095D00C490A6813430B6002B0BDE8F0879A
:109B1000094AF023105D89F8B4390022032153F07B
:109B2000F3FAE6E7024BE36081E700BF781D060821
:109B30009D960008003C01403C970608D81B002079
:109B4000274B5B68C3F308032DE9F041002B3BD1A1
:109B5000EFF31183C3BB1BF05BF90546214F204E89
:109B60004FF00008D7F88040002C29DD00231A466A
:109B700007EB0321013391F875119C4242EA01027F
:109B8000F6D142EA0804E4B290467368C3F30803CE
:109B90009BB9EFF3118383B91BF03AF9431BB3F57B
:109BA000FA6F02DCB8F1000FDCD11CB197F8BB39B9
:109BB0004F2B0DD02046BDE8F0811AF0C7FFEDE72E
:109BC00044464FF00008E0E71AF0C0FF0546C5E73D
:109BD000B7F8C0390133A7F8C0392046BDE8F08195
:109BE00000ED00E0D81B00202DE9F047836882B02B
:109BF000824613B11A689B8853835E4B5B68C3F33C
:109C00000803002B40F0B280EFF31183002B40F0EB
:109C1000AD801BF0FDF80646DFF85881564D102444
:109C200005E01BF0F5F8831BB3F57A7F2DD2D8F849
:109C30000430C3F308031BB9EFF31183002BF0D0FA
:109C4000EFF3118284F312884FF0E02101208F6935
:109C50000B69DB0302D5C5F8C8098F69D5F8C4E9DB
:109C6000D5F8C809D2B282F31188D5F8CC194FF4CF
:109C70007A7202FB01F37044DB1BB3FBF1F302FBCE
:109C80000030831BB3F57A7FD1D3DAF8083013B1F3
:109C90001A689B881383374CDFF8DC800A266368D8
:109CA000C3F30803002B5DD1EFF31183002B59D1CF
:109CB0001BF0AEF88146102506E01BF0A9F8A0EBDA
:109CC0000903B3F57A7F2DD26368C3F308031BB988
:109CD000EFF31183002BF0D0EFF3118285F312889C
:109CE0004FF0E02101208F690B69DB0344BFC8F806
:109CF000C8098F69D8F8C4E9D8F8C809D2B282F384
:109D00001188D8F8CC194FF47A7202FB01F3704431
:109D1000DB1BB3FBF1F302FB0030A0EB0903B3F54F
:109D20007A7FD1D3013EBAD1DAF80020ADF80460D1
:109D3000536A2BB19A4503D0002002B0BDE8F087EA
:109D4000136A002BF8D15046022301AA802118F093
:109D5000C9FE9DF80530242B14BF00200F2002B04F
:109D6000BDE8F0871AF0F2FE8146A4E71AF0EEFE95
:109D7000064651E700ED00E0D81B00202DE9F04F2A
:109D80002DED028BBC4C83B094F87F3001932BB93E
:109D9000012003B0BDEC028BBDE8F08FD4F8C439CC
:109DA00008EE103A04F2844704F51D6B4FF0000AE8
:109DB000D4F8203E534540F3BB807B68BA694FEA34
:109DC0008309D2E93A3109F1085909EB431901F144
:109DD000806094F8D83A393809EB831309EB801086
:109DE000984240F237811A68002A00F00B811A6C01
:109DF000002A00F00981D3F88020002A00F00681B3
:109E0000D3F8C02003F58073002AE9D194F8BB6928
:109E1000A3EB09094F2E4FEAA912C9F3871900F0E5
:109E2000E68098427AD9891A452928BF452100251C
:109E300003EB81119E4628464FF001080CE01A6C96
:109E4000002A7ED1D3F88020002A40F0A680D3F8E3
:109E5000C02003F580732AB9994205D91A68002AEF
:109E6000EDD0403399426FD8112D40F20181C5F1F8
:109E70001503002BC0F2FC80A9F10A0984F8D89AD6
:109E800008D000FA03F3C5F11405012000FA05F526
:109E900045EA0300794DC0F3C43305EB8303596FE2
:109EA00000F01F0305EB83035A6F42EA0132C0F34F
:109EB000441105EB8101C0F3842305EB8303496F53
:109EC0005B6F42EA011242EA032383EA132282EA29
:109ED000121202F00F020F2A7BD1B3F5803F78D225
:109EE0004F2E4FEA131304D1B4F8BC290132A4F861
:109EF000BC29D4F8D829B3F5606F02F10102C4F887
:109F0000D82900F096800199ABF80C305C4B5C20AE
:109F100018EE102A00FB0A3018F018FA0AF1010AAC
:109F2000BAF1080F07F120070BF1140B7FF440AFD3
:109F30000123012084F8D63A03B0BDEC028BBDE8C2
:109F4000F08F803399428FD9A3EB0E02921102F168
:109F5000010C4C4A82FB0CE2A2EBEC72012AB8BF66
:109F6000012290401544013A08FA02F210439C463F
:109F7000DCF800209AB1DCF84020002A48D0DCF858
:109F80008020002A47D0DCF8C0200CF5807C42B14C
:109F90006145EDD89E4663465EE7C03362E70CF14B
:109FA000400C6145F6D9ACEB03039B115A1C354BB1
:109FB00083FB02E3A3EBE273012BB8BF01239840BC
:109FC0001D44013B08FA03F3184363469E4663466B
:109FD00042E74F2E22D0D4F8D8390133C4F8D8390B
:109FE000D4F8D4390133C4F8D43900218EE798422B
:109FF000A4F8C2993FF617AFB4F8BE390133A4F8FC
:10A00000BE398BE7403301E78033FFE6C033FDE61E
:10A010000CF1800CC5E70CF1C00CC2E7B4F8BC39F8
:10A020000133A4F8BC39D4F8D8390133C4F8D8398D
:10A03000D6E794F83C2B02EB420204EBC2025244F6
:10A0400092F8E92A0D2A7FF45EAF802301998BF8FC
:10A050001E305BE794F8BB69A3EB09094F2E4FEA6A
:10A06000A912C9F387197FF4DCAEA4F8C299C3E73B
:10A070004F2EC1D052E700BFD81B0020781D060824
:10A0800018270020565555552DE9F0412F4F07EB65
:10A09000401898F8A0340BB9BDE8F0818C2303FB7D
:10A0A00000730E4693F8262E88F88624002183F844
:10A0B000261E0446450118F039FBC0BB3D44244828
:10A0C000A5F8846400EB441017F0F4FE97F87F3095
:10A0D000D5F89C24A3B1D5F88814D2F8A030012477
:10A0E0008C4003F1C001420010F4004F90B202D145
:10A0F0005A6822435A600C339942F4D1BDE8F0818A
:10A10000D5F88844D2F8A03004F11002012494401C
:10A1100003F1C001420010F4004F90B202D15A681E
:10A1200022435A600C339942F4D1BDE8F08197F88C
:10A130003C3B03EB430307EBC303234493F8E96A77
:10A14000002EBBD0012388F88634B7E7D81B002047
:10A150005C20002010B5044657F0E0F881B220469C
:10A16000BDE8104090E700BF2DE9F041244F254E97
:10A1700097F88C2196F83C3B9A423AD1D6F8805019
:10A18000002D12DD002496F87F601F48A0460134A0
:10A1900016B1037E012B27D002691368AC4243F04D
:10A1A000010300F580701360F1D1184B5B68C3F3B5
:10A1B0000803B3B9EFF311839BB91AF029FED7F85E
:10A1C0009041002C0BDD124A02EBC4041168938805
:10A1D0008889083203439BB294428B81F6D1BDE853
:10A1E000F0811AF0B3FCEAE780F8F080FEF7E6F9B8
:10A1F000D2E752F035FA0028C0D1BDE8F08100BFA7
:10A20000D02C0020D81B00205C1C002000ED00E0BA
:10A21000642E002010B57D4B7D4C93F83C3B94F8A8
:10A220008C219A4240F0988194F8B421002A00F0E1
:10A23000EC8094F8B531002B40F0EC80D4F8B811E4
:10A24000088820F080000004000C0880B4F8BC01ED
:10A25000C862088880B240F0800008804B62B1F884
:10A260000CC0B4F8CC0140EA0C0080B2012A88810D
:10A27000A4F8CC3100F0C980D4F8D011088820F0BF
:10A2800080000004000C0880B4F8D401C86208887B
:10A2900080B240F0800008804B62B1F80CC0B4F886
:10A2A000E40140EA0C0080B2022A8881A4F8E4317B
:10A2B00000F0AB80D4F8E811088820F0800000049A
:10A2C000000C0880B4F8EC01C862088880B240F045
:10A2D000800008804B62B1F80CC0B4F8FC0140EA81
:10A2E0000C0080B2032A8881A4F8FC3100F08D8034
:10A2F000D4F80012088820F080000004000C0880C8
:10A30000B4F80402C862088880B240F08000088077
:10A310004B62B1F80CC0B4F8140240EA0C0080B2F1
:10A32000042A8881A4F814326FD0D4F8181208884F
:10A3300020F080000004000C0880B4F81C02C86201
:10A34000088880B240F0800008804B62B1F80CC0F1
:10A35000B4F82C0240EA0C0080B2052A8881A4F8E7
:10A360002C3252D0D4F83012088820F0800000043B
:10A37000000C0880B4F83402C862088880B240F04B
:10A38000800008804B62B1F80CC0B4F8440240EA87
:10A390000C0080B2062A8881A4F8443235D0D4F863
:10A3A0004812088820F080000004000C0880B4F8EF
:10A3B0004C02C862088880B240F0800008804B627E
:10A3C000B1F80CC0B4F85C0240EA0C0080B2072A75
:10A3D0008881A4F85C3218D0D4F86022B4F8640202
:10A3E000118821F080010904090C1180D0621088C5
:10A3F000B4F8741280B240F08000108053629089EB
:10A40000014389B29181A4F8743210BDD81B002099
:10A41000D02C0020D4F8C031B4F8C41159601968A8
:10A42000D4F8B80141F00101196040F20D33A0F8F1
:10A430004830818989B241F48071012A8181E4D058
:10A44000D4F8D811B4F8DC014860086840F0010085
:10A450000860D4F8D001A0F84830818989B241F46D
:10A460008071022A8181D0D0D4F8F011B4F8F401BF
:10A470004860086840F001000860D4F8E801A0F8DE
:10A480004830818989B241F48071032A8181BCD02E
:10A49000D4F80812B4F80C024860086840F00100D3
:10A4A0000860D4F80002A0F84830818989B241F4EC
:10A4B0008071042A8181A8D0D4F82012B4F8240233
:10A4C0004860086840F001000860D4F81802A0F85D
:10A4D0004830818989B241F48071052A818194D004
:10A4E000D4F83812B4F83C024860086840F0010023
:10A4F0000860D4F83002A0F84830818989B241F46C
:10A500008071062A818180D0D4F85012B4F85402A8
:10A510004860086840F001000860D4F84802A0F8DC
:10A520004830818989B241F48071072A81813FF4E2
:10A530006CAFD4F86812B4F86C224A600868D4F89A
:10A54000602240F001000860A2F8483093899BB275
:10A5500043F48073938110BD52F082F800287FF499
:10A5600063AE10BD70B5104ED6F8203E002B19DD3D
:10A5700006F28444002505E0D6F8203EAB4204F103
:10A5800020040FDD237F0135002BF5D0E068002883
:10A59000F2D0217D19F080F9D6F8203EAB4204F1CB
:10A5A0002004EFDC012070BDD81B0020F8B590F826
:10A5B00071301C09013C042C0FD8184E06EB4402E4
:10A5C0000546B2F8500003F00F0340FA03F2D20739
:10A5D00003D595F87C70012F01D00120F8BD07FA52
:10A5E00003F3013B1840344455F0ACFE94F85C2072
:10A5F0000B4C104454F8302004EBC0041069A388BD
:10A600001840EBD0EB6E002285F87C20204693F8B2
:10A610002120022119F02CFB3846F8BD781D0608D0
:10A62000CC220020F0B5D0F8805087682B685849BC
:10A630003E6823F001032B6000232B608D426B608A
:10A64000AB60EB602B614FF0210383B0044600F157
:10A6500060026B6100F097804E4B9D425ED02846B1
:10A6600001924CF01DFD019A002384F85430797951
:10A670000C290ED8DFE801F0650D0D0D5E0D0D0DF6
:10A68000570D0D0D0700B38B23F400631B041B0C47
:10A69000B38330461CF0ACF87B790C2B10D8DFE884
:10A6A00003F0690F0F0F600F0F0F570F0F0F070009
:10A6B000B38B23F400631B041B0C43F40063B383CC
:10A6C00040222968A369E06A6262334A03430A4070
:10A6D000216B13430B43D4E90D120B431343D4E90D
:10A6E0000F120B431343D4E913120B43134343F0EC
:10A6F00040032B60D4E911316A690B4322F0070251
:10A700001343A16A6B61D4E907236960AA60EB6017
:10A710002B6843F010032B6003B0F0BD4FF474615D
:10A7200043F8201CA0E7B38B23F008031B041B0C89
:10A73000B383AEE7338B23F400631B041B0C33831A
:10A74000A7E7338B23F008031B041B0C3383A0E71C
:10A75000B38B23F008031B041B0C43F00803B383E3
:10A76000AEE7338B23F400631B041B0C43F400633C
:10A770003383A5E7338B23F008031B041B0C43F042
:10A78000080333839CE7054B3D2199606CE700BFCC
:10A7900010600240286002403F801CF000600240D0
:10A7A0002DE9F04FDFF8B0B12DED028B9BF87F4023
:10A7B00085B034B90124204605B0BDEC028BBDE85C
:10A7C000F08FDBF8C439624F08EE103A1AF044FB00
:10A7D00097F8AC320290002B00F0B3810BF51D63AB
:10A7E0000BF624650BF5346A002699460EE02846E0
:10A7F000FFF718FF97F8AC3201369E4205F18C0541
:10A800000AF15C0A09F1140980F2A880D7F8B43281
:10A81000029AD31A03D4AA6D9342C0F27B818C238F
:10A8200003FB06B393F8783E03F0FF020192002B7E
:10A83000DDD0AB68A9891A68D5F880305B681FFA4B
:10A8400083FE9389CEF1160E9BB223EA0103BEF17B
:10A85000070F9381CBD9DBF8D8390133CBF8D8393E
:10A86000D5F8883003939C4600225CF8044B012104
:10A8700090461BE0DCF80000B8F1140FA0EB0403D5
:10A880001DDC13F1080448BF03F11704231108EB82
:10A8900024180446581E013102FA03F301228240B3
:10A8A0008E4542EA03020CF1040C08D38E45E1D830
:10A8B000C8F11503DCF800404FF01508EAE7B8F1DD
:10A8C000150F39D12348C2F38423C2F3441100EB9E
:10A8D000830300EB8101D3F8F430D1F8F4101B02AC
:10A8E00043EA011302F01F0100EB8101C2F3C432FD
:10A8F00000EB8202D1F8F410D2F8F4200B4343EAC3
:10A90000023383EA132282EA121202F00F020F2AA4
:10A9100012D1C3F30F134FF6FF7293420CD0B3F56D
:10A92000606F00F0FE80A9F80C30019918EE102A33
:10A93000504617F00BFD5AE7DBF8D4390133CBF85A
:10A94000D439002E00F0DF8000230193EDE700BF33
:10A95000D02C0020781D0608D81B002001220021E1
:10A960008BF8D62AC7F8B412002B3FF423AF9BF81C
:10A97000341E890700F1BD80DBF82C1E0868497978
:10A980008A40018C92B289B221EA02010184018CD1
:10A9900089B20A43012B02843FF40CAF9BF8C02E0E
:10A9A00012F0020FDBF8B82E10685479018C0CBF3E
:10A9B00001220422A24092B289B221EA020101845A
:10A9C000018C89B20A43022B02843FF4F3AE9BF858
:10A9D0004C2F12F0020FDBF8442F10685479018CD1
:10A9E0000CBF01220422A24092B289B221EA0201E4
:10A9F0000184018C89B20A43032B02843FF4DAAE4E
:10AA00009BF8D82FDBF8D01F92070868497954BF0C
:10AA1000012204228A40018C92B289B221EA020109
:10AA20000184018C89B20A43042B02843FF4C2AE34
:10AA3000474A92F8641011F0020FD16D0C684D79FD
:10AA4000208C0CBF01210421A94089B280B220EAE8
:10AA500001002084208C80B20143052B21843FF427
:10AA6000A9AE92F8F01011F0020FD2F8E8100C68BD
:10AA70004D79208C0CBF01210421A94089B280B2FC
:10AA800020EA01002084208C80B20143062B21841F
:10AA90003FF490AE92F87C1111F0020FD2F87411CD
:10AAA0000C684D79208C0CBF01210421A94089B28A
:10AAB00080B220EA01002084208C80B20143082B60
:10AAC00021847FF477AE92F80832D2F80022116820
:10AAD00050790A8C9B074CBF0423012383409BB20F
:10AAE00092B222EA03020A840A8C92B213430B84C4
:10AAF00060E6DBF82C2E10685479018C0422A24009
:10AB000089B292B240E703991248582257F0B9F837
:10AB100001960AE70024204605B0BDEC028BBDE893
:10AB2000F08F9BF83C2B02EB42020BEBC20232444B
:10AB300092F8E92A0D2A7FF4F6AE802389F81E30B8
:10AB4000F3E601228BF8D62AC7F8B43233E600BF09
:10AB5000D82B0020542600202DE9F843037D0168FE
:10AB60001F2B044608D94868A3F120052022AA40DB
:10AB7000024206D1BDE8F883086820229A400242CA
:10AB8000F8D0714A714E5268C6F8B82296F8B521CD
:10AB9000A569DFF8D09112BB8C2202FB0592D2F896
:10ABA0002C0ED2F8A47ED0F800803868B2F830CEEF
:10ABB00020F001003860B8F80C2092B222EA0C02B2
:10ABC000A8F80C2099F87F200ABB1F2B40F2A88020
:10ABD000A3F1200220239340CB60BDE8F8838C22B0
:10ABE00002FB0592D2F82C2E5069D2F80080026840
:10ABF00022F001020260B8F80C2022F480721204E4
:10AC0000120CA8F80C2099F87F20002ADDD08C23A4
:10AC100003FB05934E4AD3F8A47E3B6823F001035F
:10AC20003B6000233B6097427B60BB60FB603B6105
:10AC30004FF021037B617ED0464B9F427FD0384648
:10AC40004CF02EFA8C2303FB0593D6F8B422012195
:10AC500083F8781E002A69D0B8F800303E499BB2CC
:10AC600043F08003A8F800308C2303FB05F54FF078
:10AC7000FF332944C8F82C3040464CF067FC09EB00
:10AC800005030022D3F8500EC3F8482ED3F83C2E0B
:10AC900039680243D3F8540E0243D3F8580E0243E6
:10ACA000D3F85C0E0243D3F8600E0243D3F8640E6F
:10ACB0000243D3F8700E0243D3F8740E02432748C0
:10ACC000084002433A607969D3F8682ED3F86C0ED5
:10ACD00021F0070102430A437A61D3F84C2E7A60CF
:10ACE000D3F8402EBA60D3F8442EFA60D3F8A42EDD
:10ACF00016215160116841F001011160D3F82C2E2A
:10AD0000B3F8303E126891890B439BB20E49938190
:10AD10004B68C6F8BC32237D21681F2B3FF658AF25
:10AD2000202202FA03F38B60BDE8F8831AF094F84E
:10AD3000C6F8B40290E70A4B3D229A6082E74FF4CE
:10AD4000746243F8202C7DE7001000E0D02C002036
:10AD50001060024028600240702A00203F801CF0F2
:10AD600000600240D81B0020F8B5054600F1100431
:10AD7000FEF752FE95F8D830072B5BD195F81D31C0
:10AD80000226002B58D1374680226B21204617F02F
:10AD900079FE64201AF080FA07226821204617F015
:10ADA00071FE64201AF078FA00226B21204617F019
:10ADB00069FE64201AF070FA01226B21204617F018
:10ADC00061FE0F201AF068FAFA001B21204617F0E6
:10ADD00059FE0F201AF060FAF2001C21204617F0ED
:10ADE00051FE0F201AF058FA2846FDF761F91A2192
:10ADF0000246204617F046FE0F201AF04DFA95F84D
:10AE000020211921204617F03DFE64201AF044FA53
:10AE100010223721204617F035FE0F201AF03CFA99
:10AE200020460122382117F02DFEBDE8F8400F2002
:10AE30001AF032BA0326A6E70327A5E72DE9F34166
:10AE4000144698460DF10702012306460F4617F0F7
:10AE50007BFE88B102201AF037F89DF8075025EAEA
:10AE6000040444EA0802394630468DF8072017F0FA
:10AE700009FE08981AF010FA02B0BDE8F08173B527
:10AE8000642300F11004009301231A4605461221A1
:10AE90002046FFF7D3FF02220D21204617F0F2FDD6
:10AEA00001201AF0F9F902220E21204617F0EAFDDE
:10AEB00001201AF0F1F974221021204617F0E2FD6A
:10AEC00001201AF0E9F9AC221121204617F0DAFD31
:10AED000012601201AF0E0F944237C2212212046A9
:10AEE0000096FFF7ABFF06231A4613212046009673
:10AEF000FFF7A4FF00231722152120460096FFF735
:10AF00009DFF0223204600961A461821FFF796FF60
:10AF100095F8210188B119F04FF9044608B12623AC
:10AF2000C3802946084B41F80C3F002320461A46AF
:10AF300052F010F9204618F0C7FA044817F05CFCEC
:10AF4000A88202B070BD00BFB58700088096980047
:10AF50007522F42117F096BD7B22F42117F092BDE3
:10AF600037B500F10C040546C06853F065FF0022B8
:10AF70000A21204617F086FD14201AF08DF90F22C1
:10AF80000A21204617F07EFD0A201AF085F901AA51
:10AF900003231021204617F0D7FD0A201AF07CF970
:10AFA0009DF804308033A5F8FA309DF805308033E1
:10AFB000A5F8FC309DF806308033A5F8FE3000225D
:10AFC0000A21204617F05EFD0A201AF065F90DF1FE
:10AFD000030201230221204617F0B6FD01230DF1E3
:10AFE00003020921204617F0AFFD11220A21204655
:10AFF00017F048FD012003B030BD37B500F10C0556
:10B00000044670220021284617F03CFD2022012131
:10B01000284617F037FD00220221284617F032FD9E
:10B0200064201AF039F994F8F80098B119F0C4F8CE
:10B0300008B12823C3802146084B41F8083F00236C
:10B040001A46019052F086F8019818F03DFA0198DE
:10B0500018F03AFA012003B030BD00BF899500080E
:10B0600010B500F10C04C06853F0E6FE0022212167
:10B07000204617F007FDFC222021204617F002FD94
:10B0800040222421204617F0FDFC0C2223212046DB
:10B0900017F0F8FC00222221204617F0F3FC642070
:10B0A0001AF0FAF8012010BD10B500F10C04C068C8
:10B0B00053F0C2FE01220B21204617F0E3FC20B121
:10B0C0001D220921204617F0DDFC00F0010010BD13
:10B0D00038B500F110040546194817F08DFBA88219
:10B0E0002846FEF799FC01226B21204617F084FCCC
:10B0F000782019F0E9FE204618221B2117F07CFC6D
:10B10000204618221C2117F077FC2846FCF7D0FFB8
:10B110001A210246204617F06FFC95F820212046A0
:10B12000192117F069FC20461022372117F064FC22
:10B1300020460122BDE83840382117F05DBC00BF31
:10B1400000127A0010B50446FFF70EFE1022A01878
:10B150006A2117F051FC64201AF09EF8044817F099
:10B160004BFBA082BDE81040012019F0ADBE00BF2E
:10B17000002D31012DE9F04190F81E31032B8CB0E8
:10B1800004464ED090F8DC00D4F8A070012800F0FE
:10B190008E8016D8D4F89C3000221A605A609A60CB
:10B1A0009A81D4F8E0300522B3F57A7FC4F8F02014
:10B1B0002BD801250323284684F8DC300CB0BDE8E9
:10B1C000F0810238012827D8D4F89C30554E9222BD
:10B1D0001A700FCE02AD0FC5D4F89C300293D4F88C
:10B1E000A03003930FCE0FC596E8030004F11008BA
:10B1F00085E8030002A9404617F076FB23695A6AE6
:10B20000002A4BD0904535D0FEE723691A7B002AEF
:10B2100066D1022384F8DC30012528460CB0BDE855
:10B22000F081414D414910300A2305F530720190FB
:10B2300017F090FBB5F8C2320198052B35DDB5F952
:10B24000C412D5F8C462B5F9C672B5F9C82211F5B1
:10B25000004F3DD0C4F8D060A4F8D4200125063BAF
:10B26000002BDAD0B0227E2117F0C6FB28460CB0A6
:10B27000BDE8F0811A6A002AFCD1B7F90230A4F8BF
:10B28000D030B7F90430A4F8D230B7F90630A4F8BA
:10B29000D430012528460CB0BDE8F0811A6A002A96
:10B2A000EBD01A6A002AF9D1E7E70025D8E7B7F909
:10B2B0000830A4F8D030B7F90A30A4F8D230B7F982
:10B2C0000C30A4F8D430054628460CB0BDE8F08117
:10B2D00017F5004FBED112F5004FBBD10025BEE7D8
:10B2E0005B69002B95D094F89850002D91D0D4F83C
:10B2F0009C30C4F8A4408C221A70D4F8A020C4F862
:10B30000F8200E2201230A49C4F8FC20D4F89C201E
:10B31000C4F80411C4F8F42084F8003184F8DC3057
:10B320007BE700BF781D0608D02C00209C01002080
:10B33000798700082DE9F04F034683B000F110052E
:10B3400093F81E310090B6227E212846019317F013
:10B3500053FBB64CB64F4FF064094FF01008AB46A4
:10B360007B68C3F30803002B40F05585EFF311838E
:10B37000002B40F0508519F04BFD06464FF0E02AB7
:10B3800005E019F045FD801BB0F57A7F2FD27B6870
:10B39000C3F308031BB9EFF31183002BF1D0EFF3D4
:10B3A000118388F31288DAF81800DAF8102012F402
:10B3B000803F4FF001021CBFC4F8C829DAF818001A
:10B3C000D4F8C4C9D4F8C829DBB283F31188D4F8FF
:10B3D000CC594FF47A7101FB05F36244181AB0FBA3
:10B3E000F5F001FB0200801BB0F57A7FCFD3B9F1F5
:10B3F0000109B5D1009B9B695D4613B11A689B8812
:10B4000053838B4B5B68C3F30803002B40F04185EB
:10B41000EFF31183002B40F03C8519F0F9FC8046D6
:10B42000DFF80CA210274FF0E02906E019F0F0FC3D
:10B43000A0EB0800B0F57A7F32D2DAF80430C3F31B
:10B4400008031BB9EFF31183002BEFD0EFF3118347
:10B4500087F31288D9F818C0D9F81020D6034FF016
:10B46000010103D5C4F8C819D9F818C0D4F8C4E943
:10B47000D4F8C829DBB283F31188D4F8CC694FF42F
:10B480007A7101FB06F002EB0E03A0EB0C00B0FB9F
:10B49000F6F001FB0300A0EB0800B0F57A7FCCD3F7
:10B4A000009B9B6913B11A689B881383604F4FF010
:10B4B0000A094FF01008AB467B68C3F30803002B62
:10B4C00040F0AE84EFF31183002B40F0A98419F013
:10B4D0009FFC06464FF0E02A05E019F099FC801B1E
:10B4E000B0F57A7F2FD27B68C3F308031BB9EFF363
:10B4F0001183002BF1D0EFF3118388F31288DAF86F
:10B500001800DAF8102012F4803F4FF001021CBF3F
:10B51000C4F8C829DAF81800D4F8C4C9D4F8C8297E
:10B52000DBB283F31188D4F8CC594FF47A7101FB64
:10B5300005F36244181AB0FBF5F001FB0200801B12
:10B54000B0F57A7FCFD3B9F10109B5D14A467C2154
:10B55000584617F051FA364B5B68C3F308035D4653
:10B56000002B40F09184EFF31183002B40F08C848A
:10B5700019F04EFC8046DFF8B8A010274FF0E02904
:10B5800006E019F045FCA0EB0800B0F57A7F32D256
:10B59000DAF80430C3F308031BB9EFF31183002B6F
:10B5A000EFD0EFF3118387F31288D9F818C0D9F8D8
:10B5B0001020D0034FF0010103D5C4F8C819D9F801
