:020000040800F2
:20000000F0FF012005020608958D0508196802087D0206087D0206087D020608000000005A
:20002000000000000000000000000000998D05089D8D050800000000A18D05084548020884
:200040007D0206087D0206087D0206087D0206087D0206087D020608753202087D320208E8
:20006000853202088D3202089532020889D6000899D60008A9D60008B9D60008CDD600087E
:20008000E1D60008F5D600087D020608000000000000000000000000000000009D32020868
:2000A00029640208C163020839640208B1630208E9630208F96302080964020825C800088E
:2000C00009CD00082DC800080DCD00087D0206087D020608BD470208C94702080000000021
:2000E000A53202087D0206084D9405080000000000000000000000000000000009D70008BC
:200100000000000025FC0008196402087D02060800000000000000000000000000000000A2
:200120001DD7000831D7000845D7000859D700086DD700080000000000000000000000000B
:20014000000000000000000000000000A58D050881D7000895D70008A9D70008D5470208DE
:2001600035C8000811CD000800000000000000000000000000000000000000000000000094
:20018000000000007D02060800000000000000007D0206087D02060898FD0500010000001D
:2001A0000A900100240000009C210020FC4C002000000000F54F0408F84C00201402010070
:2001C000050000007C450020244D00200000000060170708204D0020160215003F00000029
:2001E000C4380020304D002000000000699101082C4D002006100100260000001830002005
:20020000744D00200000000071900108704D0020FA01010003000000CC680020C867002074
:200220000000000059900108C4670020FF21010005000000BC600020D067002000000000C8
:2002400035910108CC6700200530010008000000E8620020DC6700200000000068170708E3
:20026000D86700201302010004000000E4620020E86700200000000070170708E46700202F
:200280000B3001001A0000003C5F0020006800200000000074170708FC6700201F50010038
:2002A00024000000185F00202068002000000000901707081C6800202B0201000C00000047
:2002C000045000204868002000000000B4170708446800201E02010006000000105A002083
:2002E0005868002000000000C0170708546800200D12010014000000C061002064680020FB
:2003000000000000C817070860680020031101000A000000685900207C6800200000000003
:200320004D2A0508786800200B2201003D000000005200208C68002000000000DC17070846
:200340008868002015001000700000004CAD0020C4AD00200000000000000000C0AD0020C1
:200360002A00080060000000ECAC002038AE00200000000011CC030834AE00202C00040013
:2003800010000000DCAC00209CAE002000000000FDBE030898AE002025201E002C0100007F
:2003A000B0AB0020B0AE00200000000000000000ACAE00202B0012002400000068AB002036
:2003C000E0AF0020000000000DBF0308DCAF00202920140078000000F497002008B0002094
:2003E000000000000000000004B0002028300100160000008497002084B00020000000002B
:200400008964040880B000200D1001004C00000034970020A0B00020000000008B730208C6
:200420009CB000200C500400800000009C900020F0B0002000000000E5110308ECB00020A7
:20044000012001000C0000001C91002074B10020000000001C18070870B1002027000100B0
:20046000040000009091002084B10020000000002818070880B100202320010010000000EE
:20048000809100208CB1002000000000E14F040888B100200E50040058020000408E00208F
:2004A000A0B1002000000000F1CB03089CB10020220201001C010000649A0020FCB3002068
:2004C0000000000011A70108F8B300201F020800100000002CB500201CB500200000000065
:2004E0004591010818B500201B0201001000000050B5002040B5002000000000FD90010832
:200500003CB50020280204000400000068B5002064B5002000000000F190010860B5002063
:20052000270204000400000074B5002070B5002000000000E59001086CB500201C0202001D
:200540001C0000009C9700207CB50020000000005998010878B500201A0201003C0000003B
:20056000D8B500209CB50020000000003199010898B5002004000800800000009C9D002038
:2005800018B60020000000000000000014B600201902010010000000809800209CB60020AD
:2005A000000000002591010898B60020081203000F0000002C9E0020B0B600200000000072
:2005C000ED8F0108ACB60020031201003D000000D49E0020C4B60020000000002C18070842
:2005E000C0B60020010201000A000000DCA1002008B70020000000004990010804B700201E
:200600000C020100040000003C9E002018B70020000000006190010814B70020FD170100E4
:200620009A000000ECA1002020B70020000000001BC104081CB70020131001000400000079
:2006400080970020C0B70020000000006C180708BCB700200202010003000000D8A1002005
:20066000C8B700200000000000000000C4B70020F5C1010074000000F0990020D0B70020C5
:2006800000000000D5D00408CCB70020F62101000C0000009898002048B800200000000072
:2006A0007018070844B80020121201000400000078E2002058B80020000000007C18070811
:2006C00054B8002011020100080000007CE2002060B8002000000000801807085CB8002041
:2006E000340001001000000084E200206CB8002000000000BDB9030868B80020F831010000
:20070000060000002497002080B8002000000000881807087CB80020020001000C0000008E
:200720008C9E00208CB80020000000000000000088B80020FE010100140000006C98002073
:200740009CB8002000000000D58F010898B800200612030012000000789E0020B4B8002059
:2007600000000000E1970108B0B80020F70101000600000090980020CCB800200000000085
:200780008E180708C8B80020FC0101000900000094E20020D8B8002000000000119101080C
:2007A000D4B80020FB01010001000000A0E20020E8B80020000000001D910108E4B80020BA
:2007C0001A0001000E0000001C9E0020F0B800200000000094180708ECB8002014000100BA
:2007E000050000002C97002004B9002000000000A218070800B90020FD010100240000006F
:200800000E9D002010B90020000000005F0E02080CB900201D02020006000000089D0020DC
:2008200038B90020000000000000000034B900201840010038000000B897002044B900207D
:20084000000000009D99010840B90020F901010004000000A4E2002080B900200000000042
:20086000190E02087CB900201230010010000000608D002088B9002000000000A818070862
:2008800084B900200E0201000200000098E40020F4E4002000000000B8180708F0E4002081
:2008A0002F20010022000000FCE400209CE4002000000000BA180708F8E400200101010046
:2008C000040000000CF2002050F2002000000000000000004CF20020000101000400000030
:2008E00008F2002058F2002000000000DC18070854F20020020101000300000004F20020EE
:2009000060F20020000000008D0B03085CF200202630010008000000A0EA002068F20020D1
:200920000000000059C2040864F20020205201000800000098EA002074F200200000000077
:20094000E018070870F200202A1201000800000090EA002080F2002000000000E81807088E
:200960007CF200203840010006000000FCE500208CF2002000000000F018070888F200201A
:2009800016200100060000007CEA002098F2002000000000F618070894F200201010010006
:2009A0000200000078EA0020A4F2002000000000FC180708A0F20020190001000500000009
:2009C00088EA0020ACF2002000000000FE180708A8F2002003000100010000008807012033
:2009E00094090120000000000000000090090120050201000400000044F400209C09012055
:200A00000000000004190708980901202C0201000400000010F40020C409012000000000A3
:200A200008190708C00901202D020100010000009CF30020CC0901200000000000000000C6
:200A4000C8090120290201004000000058F30020D4090120000000000C190708D0090120A1
:200A60002332010014000000E80D0120C01C0120000000004C190708BC1C01200012010079
:200A80000A0000000C270120C82E01200000000000000000C42E01201002010001000000BA
:200AA000D47C0120D07C01200000000060190708CC7C01200902010001000000487C012075
:200AC000DC7C01200000000062190708D87C012001010000A40000000000000000000000F8
:200AE000000004010000020001000002100000000700FF0000600240106002400000000082
:200B00000000000000000000000B000000000000000000000000000000600240286002405E
:200B2000010000000000000000000000060C00000000000000000000000000000060024000
:200B400040600240020000000000000000000000100D000000000000000000000000000094
:200B60000060024058600240030000000000000000000000160E00000000000000000000B2
:200B8000000000000060024070600240040000000000000000000000200F0000000000006E
:200BA00000000000000000000060024088600240050000000000000000000000261000002E
:200BC00000000000000000000000000000600240A06002400600000000000000000000002B
:200BE0003011000000000000000000000000000000600240B86002400700000000000000B1
:200C000000000000362F000000000000000000000000000000640240106402400000000013
:200C2000000000000000000000380000000000000000000000000000006402402864024008
:200C40000100000000000000000000000639000000000000000000000000000000640240AE
:200C600040640240020000000000000000000000103A000000000000000000000000000042
:200C80000064024058640240030000000000000000000000163B000000000000000000005C
:200CA000000000000064024070640240040000000000000000000000203C00000000000018
:200CC0000000000000000000006402408864024005000000000000000000000026440000D1
:200CE00000000000000000000000000000640240A064024006000000000000000000000002
:200D00003045000000000000000000000000000000640240B8640240070000000000000053
:200D20000000000036460000000000000000000000000000FF00E001FF080000F40100005B
:200D4000000000000000000000000000010000000000000000000000000000000000000092
:200D60000100000000000000010B0101120100020000004083042057000201020301000008
:200D8000040309041A03000000000000000000000000000000000000000000000000000022
:200DA00038090020F46700200400000001000000595101080000000000000000000000009F
:200DC0000000000000000000340900200000000004000000010000009553010800000000C0
:200DE0000000000000000000000000000000000086000000B804002000000000040000008D
:200E0000010000008D5101080000000000000000000000000000000000000000D800000012
:200E2000000000000500000006000000020000000000000020090020EC67002002000000E7
:200E400001000000490D01081C090020000000000100000001000000290D0108F404002094
:200E6000000000000000000000000000000000000000000000000000000000000100000071
:200E8000000000000000000000000000000000000100000000000000000000000000000051
:200EA0000000000001000000000000000100000050C3000060FECD000300000000000000EF
:200EC0000500010100010000204E00000000000000000000010101003C090020F8670020B5
:200EE0000400000001000000ED5001080000000000000000000000000000000000000000A7
:200F000097000000C8050020000000000300000001000000495101080000000000000000A6
:200F20000000000000000000000000001B000000F40500200000000003000000000000007A
:200F400000000000000000000000000008000000010000007D5101080000000000000000B1
:200F600000000000000000000000000030090020F06700200400000001000000016501082D
:200F800000000000000000000000000000000000000000002C0900200000000004000000F8
:200FA0000100000095530108000000000000000000000000000000000000000028090020EE
:200FC000000000000200000000000000000000000000000000000000080000000100000006
:200FE000B55101080000000000000000000000000000000000000000240900200000000095
:201000000400000001000000955301080000000000000000000000000000000000000000DA
:201020000006906006000000881300000304080001039070060000001027000003040800BA
:201040000202908006000000204E000005040A000301909006000000409C000006020A00DD
:201060000009185006000000D007000002040C000107186007000000A00F000003040E00C5
:2010800002051870070000000A1A000004040C000302188007000000204E000005020C005D
:2010A000000690FF1C11B80BC4095802881301038BFF4222AC0DC40958028813020288FFF1
:2010C0008444A00FC40958028813030185FF84447017A00F00008813000997FF8106C409C3
:2010E000C40903008813010794FFE40CB80BC40906008813020590FFEF16AC0DC4090A009E
:20110000881303028DFF2E2AA00FC409000088137EFF7EFFE2FFE2FF05000000FFFFFFFF77
:201120002A010000C821060825000000FFFFFFFF696F0108F56F0108397001082110010832
:2011400079700108C570010825100108F8080020316F0108090F01082D0F0108510F010889
:20116000550F0108B10F01081D100108D408002079100108A5100108BD100108C110010807
:2011800011710108C5100108C910010880240608955805080D2F05081D570508000000008E
:2011A00000000000514B0508914B05080000000000000000000000004D2F0508650E010898
:2011C000710E0108DD6E0108B56E01087D0E0108F96E0108156F01081F0000001C0000003B
:2011E0001F0000001E0000001F0000001E0000001F0000001F0000001E0000001F000000FA
:201200001E0000001F0000000068214C008002021F00000053544D202020202050726F64F0
:20122000757420202020202020202020302E3031008002021F00000053544D20202020208F
:2012400050726F64757420202020202020202020302E303106000000050000008300FFFF85
:201260001A0000008200FFFF1D0000008200FFFF17000000150000007D3105088131050891
:20128000853105089131050895310508893105088D310508FFFF0000FFFFFFFF010000005C
:2012A000095C0508515D05088D5B05086D740508815C0508955E0508592F0508C12F0508A2
:2012C000D52F05080101FF00C43B0608F83B06082C3C0608FFFFFFFFDD480208000101010A
:2012E00000000000FFFFFFFFC09F0608000008020503030000000000CC9F060801000802EC
:201300000504030000000000D89F0608000008020503030000000000E09F0608010008028F
:201320000504030000000000400007080200FE010110030000000000489606080300140238
:201340000003000000000000E89F060804001F020200080000000000F09F060805001F0203
:2013600002010800000000007D000000020000007CA00608E0A3060800000000F10A030822
:20138000A0860100040000007CA0060820FC06080000000081400208E80300000400000014
:2013A000109706080000000000000000BD1803087D000000FF0000000C9B06080000000067
:2013C00000000000653D03087D000000FF0000001C0707080000000000000000AD010408F8
:2013E0007D000000FF00000074A406080000000000000000D9180208E80300000300000062
:20140000F09C0608000000000000000079EF03081027000003000000E49F060800000000F4
:2014200045C10308C9AC02085F7600000500000060A606080000000000000000A96F02080C
:20144000102700000200000028FC06080000000000000000C10F0208E80300000500000057
:2014600034FC0608000000000000000059130308204E00000300000044FC060800000000F8
:201480000000000061310308204E00000300000054FC06080000000000000000551502086C
:2014A000400D03000300000058A106080000000000000000E5AA0208102700000200000000
:2014C00064FC0608000000000000000075760208A086010002000000B49B06080000000023
:2014E00000000000D1730208A86100000200000064990608000000000000000011700208FD
:20150000102700000200000068A606080000000000000000E9780208A00F0000020000005A
:2015200060A106080000000049C104084D080508854501000200000024990608000000008C
:2015400000000000D5C304081027000002000000F4A30608000000000000000049A704080D
:2015600050C30000020000006CFC06080000000000000000AD350508400D030001000000A0
:2015800074FC0608000000000000000099EC040850C300000300000080FC0608000000009C
:2015A00000000000A52E030840420F00010000008CFC060800000000000000008D7F02080F
:2015C00050C300000100000098FC0608000000000000000069F504081027000002000000B2
:2015E000D1560508B92E0508B555050800000000E92E05080557050815440508F143050878
:201600000000000000000000DD2E05084D31050871310508D1730508B5730508ED73050885
:20162000097405082574050825560508952E0508A553050800000000652E050845420508E9
:20164000E5420508CD4305080000000000000000892E05080000803F0000000000000000B6
:20166000000000000000803F0000000000000000000000000000803F0000000000000000EC
:2016800000000000FFFFFFFFF98002080000000000000000000000000D8102080000000033
:2016A0000000000000000000FFFFFFFF0101000000000000B009012008000000000000004A
:2016C000A009012008000000FFFFFFFFC40A0120180B012001F11F3FA01C0120AE1C0120F1
:2016E000D6010000FF1FFF1FFF000000B1AA02080000000000000000000000000000FA4336
:201700000000FA430000803F000000000000000000000000000000000000000000000000CD
:201720000000000000000000000000000000803F00FF0000000000000000000091590408F5
:2017400000000000000000007076060801000000000000000000000000000000E07A06082C
:20176000000000000000000000000000987B0608000000000000000000000000447B06087B
:20178000CD77040800000000000000009C8C0608000000000000000009720408FE200120FD
:2017A00001000000FA00000001000000010000009DB604080000000000000000447A060801
:2017C000F93405080000000000000000B8790608CFB104080000000000000000707906080D
:2017E0002D202D2D202D2D2D2D202D2D2D00000000000000000000000000000000000001C6
:2018000001000000121E012088136F1701000000141E012088136F1700000000161E01208B
:2018200088136F1701000000181E012088136F170000000041590408000000000000000068
:20184000D876060836210120010000002C7706081B1E01200100000038770608C01E0120EB
:2018600002000000407706086959040800000000000000004C770608000000000000000002
:2018800000000000A077060800000000000000000000000010780608101E0120020000003C
:2018A0005878060818250120E0150C1700000000C0120000DA2501200000000000000000E2
:2018C000D82501200000000000000000D62501200000000000000000D425012000000000B4
:2018E00000000000D22501200000000000000000D02501200000000000000000780F002013
:2019000000000000000000001A1E012003000000487806080000000000000000000000009D
:2019200064780608DE250120E0150C1700000000E025012002000000587806082D202D2DD4
:20194000202D2D2D2D202D2D2D2D00000000000000000000000000000000000000000000DF
:2019600000000000000000009C780608E22501209CFF2C0100000000F2240120E0150C1706
:20198000000000005A24012002000000587806082D202D2D202D2D2D2D202D2D2D2D000079
:2019A00000000000000000000000000000000000000000000000000000000000D4780608CD
:2019C000AC1D012000C80100AB1D012000500100AA1D0120005A0100A81D012002000000EF
:2019E000383106081804070820040708221F01200100C40900000000201F01200100C409B4
:201A0000000000001E1F01200100C409000000001C1F01200100C40900000000181F012018
:201A20000100C409000000001A1F01200100C40900000000161F01200100C409000000008C
:201A4000141F01200100C40900000000F11D012000C80100F01D012000C80100EE1D012049
:201A60000000FFFF0A000000EC1D01200100C80001000000EA1D0120320030753200000039
:201A8000E81D0120E2FF140005000000E61D01207EFF140005000000E41D012005002C0118
:201AA00005000000E21D0120055A0500F71D012000FF0100F51D012002000000AC10002057
:201AC000F31D012003000000E07B0608F61D012000FF0100F41D012002000000AC10002025
:201AE000F21D012003000000E07B0608D01E0120FF7F0100CC1E012000000000FFFFFFFFB5
:201B000001000000C81E012000000000FFFFFFFF01000000C41E012000000000FFFFFFFFC1
:201B200001000000701D0120EE02CA08010000006E1D012000C80100640000006D1D0120AF
:201B400002C80100640000006C1D012001000000F07B06080E1E01200000803E0500000022
:201B60000C1E012080C1803E050000000A1E01200083007D05000000081E012080C1803E82
:201B800005000000061E012000FF0100041E01206400F40101000000021E01206400F401C4
:201BA00001000000001E01206400F40101000000FE1D01200400000040350608FD1D01208D
:201BC0000200000034350608000000000000000000000000F87B06086B1D01204E00000014
:201BE000B8320608691D012003000000307C06086A1D01200400000054350608DB1D01202D
:201C000003000000407C0608DA1D012003000000407C0608CE1D0120000A0100CC1D0120F1
:201C20000000E80301000000CA1D01200000E80301000000C81D0120000A0100C61D0120AF
:201C40000000E80301000000C41D01200000E80301000000BC1D0120C800E80301000000FC
:201C6000C21D01201400FA0001000000C01D01200100E80301000000BE1D01200005010068
:201C8000BA1D012002000000F4310608B81D01200000F40101000000B61D01200000F40142
:201CA00001000000B41D01200000F40101000000B21D01200000F40101000000B01D012067
:201CC0000000E80301000000AE1D01200000E80301000000A71D0120006401000A000000EC
:201CE000A61D0120006401000A000000951D012019640100941D012002000000E831060845
:201D0000891D012000640100881D012000640100901D0120006401000A0000008F1D012062
:201D2000006401000A0000008E1D0120006401000A000000931D012000FF01000A0000001E
:201D4000921D012000FF01000A000000911D012000FF01000A0000008D1D012001FF010004
:201D60000A0000008C1D012001FF01000A0000008B1D012001FF01000A000000D81D01209A
:201D80000000F40101000000D61D01200000E80301000000D41D01200000E803010000004F
:201DA000D21D01200000E80301000000D01D01200000E8030100000062200120E803D007C8
:201DC0000A00000061200120006401000A00000060200120009601005720012000C801004F
:201DE0005620012000640100552001200064010054200120006401005320012000640100F9
:201E000052200120FF0801005120012001640100C95304080D54040800000000507C0608C0
:201E20005A200120013201005920012001000000BC3106085820012004000000C43106089D
:201E400050200120009601004F200120006401004E20012000FA0100640000004D200120E9
:201E60000A5A01004C20012000C801004B20012000C801004A20012000C801005D20012060
:201E8000003201005F200120001401005E200120004B01005C20012004000000FC30060894
:201EA0005B200120006401000A000000831D01200AC805000A000000821D012001000000B4
:201EC000B8350608851D01200AC805000A000000841D012001000000B83506087A1D0120ED
:201EE00000C805000A000000811D012000C805000A0000007B1D012000C805000A000000E5
:201F00007C1D012000C805000A0000007F1D012000C805000A000000801D012000C8050011
:201F20000A0000007E1D012000C805000A0000007D1D012000C805000A000000791D0120BB
:201F400002000000CC300608482001200000D007010000004320012000C801004220012044
:201F600000C801004120012000C80100462001200000D007010000004020012000C80100A4
:201F80003F20012000C801003E20012000C80100442001200000D007010000003D200120D5
:201FA00000C801003C20012000C801003B20012000C80100740E0708000000000000B42563
:201FC0000120800E070807080000000074160020880E07080708000000006C160020900E96
:201FE000070807080000000064160020980E070808080000000058160020A00E070807080A
:020000040800F2
:202000000000000050160020A80E070807080000000048160020B00E07080708000000000C
:2020200040160020B80E070808080000000034160020C00E07080710000000002C16002085
:20204000C80E070807100000000024160020D00E07080710000000001C160020D80E0708DF
:202060000810000000001016002040020708010000000000000000000000000010000000A0
:2020800000000000000000001D5604082D5604089B640408C07C0608E11D0120005A010063
:2020A000E01D012000C80100DE1D0120E803D007010000000000000000000000FD7C0408D5
:2020C0005C7D0608FC1D012003000000BC300608FB1D012000030100FA1D01200003010069
:2020E000A9560408FD56040800000000B07D0608515704089157040800000000587E0608AF
:20210000B57704081D79040800000000D87E0608F81D012001030100455A04086D5A0408C8
:2021200000000000E88106083D520408655204080000000068820608115804087158040888
:2021400000000000CC820608A973040801520408000000008483060809560408000000001C
:202160000000000020840608C9540408355504080000000084840608515404088D5404083A
:20218000000000003C85060801BD04089953040800000000C88506083920012003000000D6
:2021A000A425012099550408D555040800000000C486060845BD04084176040800000000DC
:2021C00034870608115304081D75040800000000CC880608A5BC0408DD74040800000000FC
:2021E0007C1600203A2001200300000060250120495604087956040800000000D889060814
:20220000DD71040800000000000000003C8A0608D95704083979040800000000D88A060826
:20222000000000000000000000000000748B060819BC0408A974040800000000E48B06080A
:20224000010101009C2E012000000000942E01200000000001010000AA550701000014018F
:20226000FF00000009024300020100C03209040000010202010005240010010524010001A4
:20228000042402020524060001070582030800FF09040100020A00000007050102400000E1
:2022A000070581024000000009026400030100C0320904000001030000000921110100019C
:2022C0002236000705830309000A080B010202020100090401000102020100052400100198
:2022E0000524010002042402020524060102070582030800FF09040200020A000000070595
:2023000001024000000705810240000009022000010104C03209040000020806500507050A
:2023200081024000000705010240000012010002EF0201408304563200020102030100002C
:202340001201000202020040830440570002010203010000040309040101AA5505010000E2
:202360000800000005010905A101A10005010930093109320933093509340936093715817E
:20238000257F75089508810205091901290815002501950875018102C0C000000902220025
:2023A000010100E0320904000001030102000921110100012236000705830309000A0000BB
:2023C0000000000000000000010000000000000000000000B64001200000000001000000E4
:2023E0000000000000000000000000000000000000000000000000000000000000000000DD
:2024000000000000000000000100000000000000AA550902000000AA5503009F010000000F
:20242000AA550B010000AA5505010000FF000000000000000102030401020304060708095B
:20244000B951050859520508954C0508352E0508D5550508192E0508012E0508452E050808
:20246000552E0508000000000000000000000000C978050859780508A564050865770508A1
:20248000517505081D310508313105084531050800000000000000000102030406070809F4
:2024A000C70000000500000006000000781B00200000000000000000000000000000000097
:2024C0000000000000000000000000000000000000000000000000000000000000000000FC
:2024E0000000000000000000000000000000000000000000000000000000000000000000DC
:2025000000000000000000000000000000000000FFFFFFFFFFFFFFFFFFFFFFFFFFFFFFFFCB
:20252000FFFFFFFFFFFFFFFFFFFFFFFFFFFFFFFFFFFFFFFFFFFFFFFFFFFFFFFFFFFFFFFFBB
:20254000FFFFFFFFFFFFFFFFFFFFFFFFFFFFFFFFFFFFFFFFFFFFFFFFFFFFFFFFFFFFFFFF9B
:20256000FFFFFFFFFFFFFFFFFFFFFFFFFFFFFFFFFFFFFFFFFFFFFFFFFFFFFFFFFFFFFFFF7B
:20258000FFFFFFFFFFFFFFFFFFFFFFFFFFFFFFFFFFFFFFFFFFFFFFFFFFFFFFFFFFFFFFFF5B
:2025A000FFFFFFFFFFFFFFFFFFFFFFFFFFFFFFFFFFFFFFFFFFFFFFFFFFFFFFFFFFFFFFFF3B
:2025C000FFFFFFFFFFFFFFFFFFFFFFFFFFFFFFFFFFFFFFFFFFFFFFFFFFFFFFFFFFFFFFFF1B
:2025E000FFFFFFFFFFFFFFFFFFFFFFFFFFFFFFFFFFFFFFFFFFFFFFFFFFFFFFFFFFFFFFFFFB
:20260000FFFFFFFFFFFFFFFFFFFFFFFFFFFFFFFFFFFFFFFFFFFFFFFFFFFFFFFFFFFFFFFFDA
:20262000FFFFFFFFFFFFFFFFFFFFFFFFFFFFFFFFFFFFFFFFFFFFFFFFFFFFFFFFFFFFFFFFBA
:20264000FFFFFFFFFFFFFFFFFFFFFFFFFFFFFFFFFFFFFFFFFFFFFFFFFFFFFFFFFFFFFFFF9A
:20266000FFFFFFFFFFFFFFFFFFFFFFFFFFFFFFFFFFFFFFFFFFFFFFFFFFFFFFFFFFFFFFFF7A
:20268000FFFFFFFFFFFFFFFFFFFFFFFFFFFFFFFFFFFFFFFFFFFFFFFFFFFFFFFFFFFFFFFF5A
:2026A000FFFFFFFFFFFFFFFFFFFFFFFFFFFFFFFFFFFFFFFFFFFFFFFFFFFFFFFFFFFFFFFF3A
:2026C000FFFFFFFFFFFFFFFFFFFFFFFFFFFFFFFFFFFFFFFFFFFFFFFFFFFFFFFFFFFFFFFF1A
:2026E000FFFFFFFFFFFFFFFFFFFFFFFFFFFFFFFFFFFFFFFFFFFFFFFFFFFFFFFFFFFFFFFFFA
:20270000FFFFFFFFFFFFFFFFFFFFFFFFFFFFFFFFFFFFFFFFFFFFFFFFFFFFFFFFFFFFFFFFD9
:20272000FFFFFFFFFFFFFFFFFFFFFFFFFFFFFFFFFFFFFFFFFFFFFFFFFFFFFFFFFFFFFFFFB9
:20274000FFFFFFFFFFFFFFFFFFFFFFFFFFFFFFFFFFFFFFFFFFFFFFFFFFFFFFFFFFFFFFFF99
:20276000FFFFFFFFFFFFFFFFFFFFFFFFFFFFFFFFFFFFFFFFFFFFFFFFFFFFFFFFFFFFFFFF79
:20278000FFFFFFFFFFFFFFFFFFFFFFFFFFFFFFFFFFFFFFFFFFFFFFFFFFFFFFFFFFFFFFFF59
:2027A000FFFFFFFFFFFFFFFFFFFFFFFFFFFFFFFFFFFFFFFFFFFFFFFFFFFFFFFFFFFFFFFF39
:2027C000FFFFFFFFFFFFFFFFFFFFFFFFFFFFFFFFFFFFFFFFFFFFFFFFFFFFFFFFFFFFFFFF19
:2027E000FFFFFFFFFFFFFFFFFFFFFFFFFFFFFFFFFFFFFFFFFFFFFFFFFFFFFFFFFFFFFFFFF9
:202800000828000800400008232042657461666C696768740A5B6F626A656374204F626AE4
:202820006563745D00FFFFFFFFFFFFFFFFFFFFFFFFFFFFFFFFFFFFFFFFFFFFFFFFFFFFFF1A
:20284000FFFFFFFFFFFFFFFFFFFFFFFFFFFFFFFFFFFFFFFFFFFFFFFFFFFFFFFFFFFFFFFF98
:20286000FFFFFFFFFFFFFFFFFFFFFFFFFFFFFFFFFFFFFFFFFFFFFFFFFFFFFFFFFFFFFFFF78
:20288000FFFFFFFFFFFFFFFFFFFFFFFFFFFFFFFFFFFFFFFFFFFFFFFFFFFFFFFFFFFFFFFF58
:2028A000FFFFFFFFFFFFFFFFFFFFFFFFFFFFFFFFFFFFFFFFFFFFFFFFFFFFFFFFFFFFFFFF38
:020000040800F2
:20400000AFBE2A000A000900300000000000000000000000000000000000020000029E071D
:204020007D002C0126020001050064000B0014020000000000FF004500160200001303FFB2
:204040002A01002601002701002801001002001203FF1901001A0100000000000000000062
:20406000000000000000000000000000000000000000000000000000000000002C0006000E
:204080000100E0010600000201002A26272800000000000200000102030405060700B004C4
:2040A0002E04D007E8030C000900FA0100001E02000B00FF01020000000000000E000500BC
:2040C000030000000000010100000A00130200000000010020000B000300AE012201360184
:2040E0002C0164010100000001000A019A01001E0A0000022A001F0005000000000000010D
:204100000001000500000102030000000000000000000000000000000000008017001200EA
:204120002B0200000000000000000000000000FF0C001E0200000000000000001A000D02FE
:20414000010000000000000000000000000000000000000000001000030101000508050037
:204160001D170000010043000B0202000000000000000000000000000000000000000000B8
:2041800000000000000000000000000000000000000000000000000000000000000000001F
:2041A000000000000001000000760015000000000000000000000000000000000000000073
:2041C0000000000000000000000000000000000000000000000000000000000000000000DF
:2041E0000000000000000000000000000000000000000000000000000000000000000000BF
:20420000000000000000000000000000000000000000000000000000000000000000006638
:20422000002A00000000000000E803D007DC0564FF00000000E803D007DC0564FF00000048
:2042400000E803D007DC0564FF00000000E803D007DC0564FF00000000E803D007DC05644B
:20426000FF00000000E803D007DC0564FF00000000E803D007DC0564FF00000000E803D078
:2042800007DC0564FF16002C000000E803D007E803D007E803D007E803D00732012500022F
:2042A0000001000C0C010000000000010C240C0100000000000124300C0100000000000044
:2042C0000000000000000000000000000000000000000000000000000000000000000000DE
:2042E0000000000000000000000000000000000000000000000000000000000000000000BE
:2043000000000000000000000000000000000000000000000000000000000000000000009D
:2043200000000000000000000000000000000000000000000000000000000000000000007D
:2043400000000000000000000000000000000000000000000000000000000000000000005D
:2043600000000000000000000000000000000000000000000000000000000000000000003D
:2043800000000000000000000000000000000000000000000000000000000000000000001D
:2043A0000000000000000000000000000000000000000000000000000000000000000000FD
:2043C000000000000000000000000000002A002B000000001E001E001E0005011E011E01EA
:2043E0001E011E011E011E011E011E011E011E011E011E011E011E7E00290002000000247D
:204400003000000101000C00001B02243000000000000000000000000000000000000000ED
:2044200000000000000000000000000000000000000000000000000000000000000000007C
:2044400000000000000000000000000000000000000000000000000000000000000000005C
:204460000000000000000000000000000000000000000000001C00280003000001020000F2
:20448000000000000000000000000000000000000052000D00010001000000140504050099
:2044A000000000400002000005040500000000000000000105040500000000000000000598
:2044C00005040500000000000000001E05040500000000000000001F050405000000006411
:2044E00000520086000C0005003200030707070000004343430064CE07CE07CE07000000DD
:204500000000000000000000003200030707070000004343430064CE07CE07CE07000000A5
:204520000000000000000000003200006E6E640000004B4B460064CE07CE07CE070000004A
:204540000000000000000000003200030707070000004343430064CE07CE07CE0700000065
:20456000000000000000000000120001000200E80364000F0A00010A001E000A0027000064
:204580000020030000160023000200190000004700ECFF01000100000000005E020E0005FD
:2045A0000000009600000000007B8F5000E20074874D00D4007B8F0000E20032324B000072
:2045C000002800000000000055F401900101374B00500000000000320090015E01F40100EE
:2045E000000A64C8009001B40000050F0001140114004B3200005A140B00005400CC0000EC
:204600001400280100C800504D00250064000000000000000000000000323232960000192A
:2046200005125F05006402915541B9BE008201645A05640141E20464004B00000000002D4D
:2046400050280078002F542E007D002D500000780032324B0000002800000000000055F427
:2046600001900101374B00500000000000320090015E01F40100000A64C800900196000061
:20468000050F00010F0114004B3200005A140B00004B009600001400280100C8001E2200C5
:2046A00025146400000000000000000000000032323296000019070F5A0500000264646475
:2046C0006464646401646405640141460564004B00000000002D50280078002F542E007D91
:2046E000002D500000780032324B0000002800000000000055F401900101374B0050000040
:20470000000000320090015E01F40100000A64C8009001960000050F00010F0114004B326F
:2047200000005A140B00004B009600001400280100C8001E2200251464000000000000003D
:20474000000000000032323296000019070F5A0500000264646464646464016464056401AE
:2047600041460564004B00000000002D50280078002F542E007D002D500000780032324B0F
:204780000000002800000000000055F401900101374B00500000000000320090015E01F42D
:2047A0000100000A64C8009001960000050F00010F0114004B3200005A140B00004B00968B
:2047C00000001400280100C8001E22002514640000000000000000000000003232329600CB
:2047E0000019070F5A05000002646464646464640164640564014146052201220200000661
:2048000008E916D516C116AD169916851671165D16651678168B169E16B116C416D716EAF2
:20482000164916351621160D16FD161117251739176C1680169416A816BC16D016E416F86D
:20484000161A163F1664168916AE16D316F8161D17D514FD1425154D1575159D15C515ED1C
:20486000150000000000000000000000000000000000000000000000000000000000000023
:204880000042414E445F4120200042414E445F4220200042414E445F452020004641545306
:2048A0004841524B00524143452020202000524143455F4C4F570042414E4437202020001F
:2048C00042414E44382020200041424546524C37383100320033003400350036003700386C
:2048E0000001010101010100000500010002000E0014001A000000000000003020200052AC
:204900004345003235200031303000343030004C5635004C5636004C56370016001F0200A4
:2049200000FFFFFFFFFFFFFFFFFFFFFFFFFFFFFFFF16001B02000006000000E80300000063
:20494000000000000000000A0028020000000000000A00270200000000000022001C0200B0
:20496000000002011400001102000000008403010200000000000100000000000042001A26
:20498000020000000000000000000000000000000000000000000000000000000000000015
:2049A000000000000000000000000000000000000000000000000000000000000000008671
:2049C0000004000000000000000000000000000000000000000000000000000000000000D3
:2049E0000000000000000000000000000000000000000000000000000000000000000000B7
:204A0000000000000000000000000000000000000000000000000000000000000000000096
:204A2000000000000000000000000000000000000000000000000000000000000000000076
:204A40000000000000160019020000130000000000000000000000000000001500080201F2
:204A600000151617FFFF2D2E2FFFFF232425FFFF43000302010000000000000000000000BB
:204A8000000000000000000000000000000000000000000000000000000000000000000016
:204AA0000000000000000000000000000000000000000110000102000000000000020000E0
:204AC0000000000A000C020000012C0200A000FD0701003A01EA00CD004E00CE00EA008171
:204AE0000999098A097909340820094009EA00EA00EA00EA00EA00EA00EA00EA0029096165
:204B000009EA00EA00EA00EA00EA00EA000A09EA00EA00EA00EA00EA00EA00A100EA00EA0C
:204B200000EA000009EA00EA00EA00EA00EA005809EA00EA00EA00EA00EA00EA00EA00EA3F
:204B4000003809EA002300EA00EA00CD00EA00EA00EA00EA00EA00EA00EA00EA00EA00EA42
:204B600000EA00EA00EA00EA00EA00EA000A0013000100180444100900020200000000001E
:204B80007A00F5010C00980864001401000A010A0000FF1F0000142800002C3700000000AE
:204BA000FFFFFFFF46000102000000000000000000000000000000000000000000000000B0
:204BC000000000000000000000000000000000000000000000000000000000005000C4FFC2
:204BE000040000FFFFFFFF0100000005180B0C0000000001C800411E0D001200F601020040
:204C00000000000001000000000000000A0012020100FFFFFFFF0E00110200000000000057
:204C200001010101160034000000DC0532000000000000000000000001040C00F801030006
:204C40000401F40114001200020000000000000000000000000000001A00FE0100000120F8
:204C6000000001210000010000000000000001FFFF001800060201000000000020030000CE
:204C8000000020030000000020030C00F70100003F01000000000F00FC01000012191A0039
:204CA00000000000000700FB0100001314001A0000007E05EA05B4053200E803D007000091
:204CC0000B001400000003010023002A00FD0100001912000000000000000000001A13000E
:204CE0000000000000000000000000000000000000000000000C001D020000000000000089
:204D0000003E0018000400010203000405060709000000000001006400DC051A046C07003D
:204D200019750343080E000001000000001E1E1E7D01010000000000000000000000000AA5
:204D400000F90100003D00000016001200030000024C0100010553343131000008020008A1
:204D6000000E020000000028002F0002004D6F62756C613800000000000000000000000032
:204D80000000000000000000000000000000000A0001010000000000000A0000010000D626
:204DA0000100000900020100006E0A010E002600030002000000000100000E0020020500FE
:204DC00003643200F40196000E002A02010064005802F40101000C003800040000642C01E7
:204DE00064000C0016000200C4090000B40208001000010000050B0019000000010128013B
:204E000000070003000000000A0005020000000000000A002C0200000100010007002D0207
:204E2000000000460029020000000000000000000000000000000000000000000000000001
:204E4000000000000000000000000000000000000000000000000000000000000000000052
:204E60000000000000000000001A0023020300000000000000000000000000FF00000000F1
:204E80000000001000000201000000000000000000000007001002000000070009020000D4
:204EA000000000BCDE000000FFFFFFFFFFFFFFFFFFFFFFFFFFFFFFFFFFFFFFFFFFFFFFFF70
:204EC000FFFFFFFFFFFFFFFFFFFFFFFFFFFFFFFFFFFFFFFFFFFFFFFFFFFFFFFFFFFFFFFFF2
:204EE000FFFFFFFFFFFFFFFFFFFFFFFFFFFFFFFFFFFFFFFFFFFFFFFFFFFFFFFFFFFFFFFFD2
:204F0000FFFFFFFFFFFFFFFFFFFFFFFFFFFFFFFFFFFFFFFFFFFFFFFFFFFFFFFFFFFFFFFFB1
:204F2000FFFFFFFFFFFFFFFFFFFFFFFFFFFFFFFFFFFFFFFFFFFFFFFFFFFFFFFFFFFFFFFF91
:020000040800F2
:020000040800F2
:2080000082B01E4B002201920193019B1C4A04330193019B1968936803F00C03042B06D090
:20802000082B08D0174B184A1A6002B07047154B196002B070475368506813F4800F00F053
:208040003F00536812D1C3F388130F49B1FBF0F101FB03F30A4A0B495268C2F3014201328E
:208060005200B3FBF2F30B6002B07047C3F38813B1FBF0F101FB03F3ECE700BF502800402D
:2080800000380240D81B00200024F400074BD0F8E4105B68D0F8F0205B1A9A42B8BFC0F812
:2080A000F030012380F81C3100207047001000E090F8DB30052B03D890F81E31032B01D07C
:2080C0000020704790F8233103F0FB03022B0CBF00200720704700BFB84B00EB800103EBEA
:2080E000C10170B54A685268B2F814E01EF0010F4FEA800C6ED15FFA8EF4A60742D5BFF31C
:208100005F8F91F82040012CE5B200F0D180118BBFF35F8F0CEB000103EBC10191F82040B6
:20812000022C00F0E7800CEB000103EBC10191F82040032C07D191F8221021B193F87D107D
:20814000002940F0E780918889B241F48061918093F97C100CEB000E03EBCE0E9EF820E067
:208160000EF1010E8E450CD1002183F87D1093F87E10002940F0B780604403EBC0030022F8
:208180005A7770BD65075DD414F0400400F0CB80148A93F97C508E6AE4B274555FFA85FE98
:2081A0000EF1010464B291F8206083F87C40E51CAE42214600F025810CEB000503EBC505C3
:2081C00095F82050AC42C5D10EF1020149B283F87C10BFE7B2F800E02EF4006E4FEA0E4EC5
:2081E0004FEA1E4EA2F800E01488A4B244F48064148091F82240002583F87C50002C48D023
:2082000093F87D40002C41D0012183F87D100CEB000103EBC10191F82010022904D11188B5
:2082200089B241F4006111800CEB000103EBC101897F41F001011182604403EBC00393F886
:20824000203070BD91F82240012583F87E50002C70D093F87D40002C71D10CEB000103EB3F
:20826000C10191F82110002900F0AA80118889B241F40071118093F87C1001314CB283F872
:208280007C401188CE05FCD4214663E7C97FFF29BAD00CEB000103EBC1018C7F04F0FE0492
:2082A0001482CA7FFF2AC7D0FF2283F87C20C3E791F8221000293FF42AAF93F87D1000290C
:2082C0003FF425AF118821F480610904090C1180BFF35F8F118B118883F87E5089B241F4C7
:2082E000007111802FE7918821F440710904090C918041E791F8221000293FF414AF93F8C7
:208300007D1000293FF40FAF118821F480610904090C1180918821F480610904090C918032
:2083200093F97C1016E71FFA8EF52D062DD493F97C100FE793F87D1000298ED096E791F8A5
:208340002040022C148846D924F480642404240C1480158A8E6A93F97C40EDB235558E6AEC
:20836000118889B241F400711180E4B2158A611C49B2EDB275549188023489B264B241F408
:20838000806183F87C4091807BE793F97C506E1C3ED04C6A665D16826C1C91F8205064B2BA
:2083A000A54283F87C4021467FF4D4AE948824F480642404240C9480CCE600BFD81B00203B
:2083C000118893F97C4089B241F480711180012183F87D1055E7A4B244F400741480158A2F
:2083E0008E6A93F97C40EDB23555E4B28E6A158A611C49B20334EDB264B2755483F87C4083
:208400003FE7958825F480652D042D0C9580D3E683F87C40CC7F148291F8224024B991F87A
:20842000201000297FF408AF918821F480610904090C918000E700BF30B5EAB18E464FEA44
:20844000014C034600F1C005002419689A6841EA0C0142EA0E029A60C3E900140C33AB42CF
:20846000F3D1D0F8C030C0F8C44043EA0E03C0F8C030C0F8C84030BD4FEA014E8C46E0E710
:20848000836930B41C6999682268096822F0010222608A899C8992B222EA04028A81027DDC
:2084A00000681F2A06D94468203A08219140214217D0FEE70468082191402142F9D1202129
:2084C00001FA02F28260234A92F87F203AB11A7E012A0BD1D3F8F8200132C3F8F82030BCD6
:2084E0007047202101FA02F2C260ECE7D3F8F4200132C3F8F420EFF31181502282F31288CA
:2085000058685C6C026822EA04029C6C2243C9B2026081F31188D3E90C401A6999681D6CEB
:20852000096814605061D3E90E40546090600024B3F8A800D5604C62C86210680124204373
:2085400010601C768A899B8913439BB230BC8B81704700BFD81B0020704700BF024B03EB0D
:20856000401090F89D007047D81B00204368B0F8502010B41A83EFF31182502383F31288A0
:208580004168446C0B6823EA0403C46C2343D2B20B6082F31188D0E9074182680369126897
:2085A0001C605961D0E909415C60C46A9960B0F86010DC600023D1625DF8044B0376704721
:2085C000084B10B5D3F8803118440C46007E1BF0A7FC18B1036882880CB11A8310BD5A83EB
:2085E000FCE700BFD81B0020F0B4037D85691F2B63D90168A3F120024E68202494402642D9
:2086000049D010239340CC60CB604B68D340DE0767D4EFF31183502282F312882A6C1168F8
:20862000C9072FD4516889B271B9D5E90964A64225D0AF692744D76058D9341BA4B25460FD
:20864000AE62002185F86410116841F00101DBB2116083F31188037D1F2B19D802681946BB
:20866000106808238B40184200D093601068042303FA01F1014200D09160F0BC7047012257
:2086800085F86420DBB283F31188037D1F2BE5D90168A3F120024C6808209040044200D0D4
:2086A000C8604C68042000FA02F22242E5D0203B00FA03F3F0BCCB607047026820241668AE
:2086C0009C4026421946CBD010219940946091601168D940CC079CD5012101FA03F3936091
:2086E00097E7012303FA02F2CA6092E72E69341BA4B25460A962A4E74FF40063838170475D
:20870000074BD0F8E4105B68D0F8F0205B1A9342C8BFC0F8F030012380F81C310020704747
:20872000001000E04FF40063838170474FF40063838170474FF4006383817047012380F88A
:208740001031704707B500238DF807300DF1070201230F211AF0BCF828B19DF807306C2B31
:2087600014BF0020102003B05DF804FB4FF40063838170474FF40063838170474FF4006367
:20878000838170477047012070470120704730B1094BD3ED6A7AFDEEE77AC0ED007A51B169
:2087A000054B9FED067AD3ED6B7A67EE877AFDEEE77AC1ED007A7047D81B00200000C8421A
:2087C000024B012283F8B021704700BFD81B0020344AF0B5B2F8BE31B2F8B251B2F9C84137
:2087E000B2F9B661B2F9C2C1B2F9D471ED1AB2F8BC316B43B2F9C65104EBE334ED0295FB06
:20880000F4F505EBE335A5F57A6E0EFB0EF42313B2F9B841C2F8D0510EFB06F60EFB04FE15
:20882000B2F9C0415C4303FB0CFCF612241406EBEC2C04EB6E34B2F9B461B2F8BA31023482
:208840000CEB860CA410D2F8D86104F500440CFA07FC63430CF1020C4CF25032DC0BA6EBA9
:20886000AC0642FA07F3734355BF5B00B3FBF4F3B3FBF4F35B0070B11A1240F6DE3452433C
:208880006243094C12145C4302EB244202F6CF6203EB2213036021B10A235D4308352D11FD
:2088A0000D60F0BDD81B002043E3FFFF704701207047012070472DE9F047DFF88081D8F80B
:2088C000DC51B8F8E021B8F8E691C2EB25135200C2EBE502B8F9E2516A4303FB03F5B8F990
:2088E000E4312D135D43AD1305EBE225B8F9EA31C8F8F8510E46A5F5FA31074681FB010C08
:208900004FEAE37E03FB0CF200FB0E22A3FB003E9644B8F9E82182FB01421B0A120343EAFF
:208920000E6342EA145224031B1942EB2E2202F50042A3FB093E09FB02EE4FEAEE734FEA77
:208940006E0253EA6E0E4FF000046BD0B8F9F0914FEAE97E09FB0CFC00FB0ECCA9FB009089
:208960008444B8F9EE0180FB01E148044FEA4E4111EB0909D8F8FC1140EADE304CEB0000C4
:20898000C1F5801C0CF0004AB8F9EC1114EB09044AEA5C0A4FEACC7C00EBC10140F6354909
:2089A000BCEB04006AEB010AA0FB090109FB0A1157F05AFAB8F9F6414FEA613E430B43EA12
:2089C000C14304FB0EF24FEAE47C03FB0C2CA4FB0342624404FB0EFE03FB02EEA4FB03435D
:2089E000B8F9F4219E44640E44EACE1414EB000C02FB01F34FEAE274814641EB6E6EA2FB56
:208A0000092904FB00314944D40C44EA41341CEB0404B8F9F2314EEBE141240A44EA0164E5
:208A200004EB03140FB1240A3C6026B105EB850580352D123560BDE8F08700BFD81B0020DE
:208A400000B583B04FF0000C01230DF10702112198388DF807C019F03BFF03B05DF804FB20
:208A6000704700BF012070470120704708B5006854F0C2F938B9054AB2F800325BBAA2F8E1
:208A8000B231012008BD0020FCE700BFD81B002008B5006854F0B0F998B90B4A92F80132C3
:208AA00092F800121B0243EA014392F802120B43B2F9D411C1F10801CB40C2F8D831012066
:208AC00008BD0020FCE700BFD81B002008B5006854F092F9E0B90F4B93F8042293F80312C4
:208AE000120142EA013293F8051242EA1112C3F8FC2193F8072293F80612120142EA013272
:208B000093F8081242EA1112C3F8DC21012008BD0020FCE7D81B002003681A78012A1CD099
:208B2000144B00B593F8121293F811C293F8100293F8152293F814E2090441EA0C2101438B
:208B4000120493F81302C3F80C1242EA0E220243C3F8182201205DF804FB93F90420054B7B
:208B600002EB820203EBC202527F002AD9D00020704700BFD81B00202DE9F04FC84C83B0E9
:208B8000B4F81C32D4F8182294F92052CDE90001B4F81E12A2EB0322A1FB02139E04A2FBA1
:208BA0000223EF1705FB03F302FB073346EA9136A5FB025289046D181A4442EB0603002BA1
:208BC00002DA013D43F10003009ADF17C4E98E37002A00F0148103FB07F1A3FB032E0EEBD5
:208BE000410E4FEA921C4CEA8E6C0CFB07FB4FEAAE1103FB01BBACFB03C81BEB080BD4F8FD
:208C00000C5200F1488194F926124FEA1C2C4CEA0B6C4FEA2B2B4FEAE17801FB0BFA0CFB20
:208C200008AAA1FB0C181AEB080800F13081B4F92162B4F92392490941EAC8610846A6F5EA
:208C4000804694F92512B60306EB681ACE1701FB0EF802FB0688A1FB02164644B60046EAC8
:208C600091768900A9F5804941184AEB060609FB07F84FEAE97A03FB0A88A9FB039AD044DF
:208C80004FEA485848EAD9284FEA495911EB090146EB0806002EC0F2F38094F92C9209FB06
:208CA0000BFB4FEAE9780CFB08BBA9FB0C98090E1BEB080841EA06214FEA266600F1DB8072
:208CC0004FEA591C94F92B92B4F829A209FB0EFE4FEAE97B02FB0BEEA9FB0229CE444FEA68
:208CE0000E1E4CEAC86C4EEA127E12011CEB020CB4F827224FEAC23202EB6818AAFB039225
:208D00000AFB072A4FEA8A5A4AEA992A4FEA895948EB0E081CEB090948EB0A08B8F1000F8F
:208D2000C0F2A48094F92FE2B4F92DB24FEA9909A1FB051249EA887919EB010905FB062637
:208D40004FEAEE710EFB07F24FEA0B4C03FB0122AEFB03E146EBA8060A441EEB0C0E42EBBE
:208D6000EB7BAEFB05CE05FB0BEEBEF1000F76DB4FEA5C3C4CEACE4CACFB05C14FEA6E3E96
:208D800005FB0E1EBEF1000F62DB4FEA5C2C94F930224CEACE5C19EB0C0146EB6E264FEA9D
:208DA000E27CA5FB054E04FB0CFC02FB0ECCA4FB02421CEB020C45D4220C42EA0C42A2FB2E
:208DC00005244FEA2C4C05FB0C4CBCF1000F35DBD20942EA4C62521846EBEC16941846EB66
:208DE000060CA41846EB0C0C4FEACC0C4CEA547CE400A41846EB0C06009A360C1660019A75
:208E00009AB1DA1847EB0701D21847EB0101C90041EA5271D200D31847EB0107002F07DBFE
:208E2000019A9B0B43EA8743136003B0BDE8F08F43F6FF729B1847F10007F1E77F324CF14E
:208E4000000CC5E74FF6FF72A4184CF1000CB3E740F2FF111CEB010C4EF1000E95E741F6AF
:208E6000FF721CEB020C4EF1000E81E719F1030948F1000856E719F11F0948F100081FE7AA
:208E80006FF07F4911EB090146F1000605E71F3148F10008CBE61CF1FF0C4BF1000BB2E643
:208EA000D81B00203B4B9FED3C4A93F8411293F8400293F8422293F843C293ED947A090244
:208EC00001EB00410A44090248BF02F17F4207EE902AB3F95C2293F8440293F8451206EED1
:208EE000102AB3F95822F8EEE77A06EE902A67EE847AB3F95A22B8EEC66AF8EEE66A000294
:208F0000E7EE866A00EB0C40014406EE102AB3F95622000205EE102A48BF01F17F41B3F92A
:208F20005422F8EEC75A07EE101AB8EEC66AB8EEC55AE6EEA75A0120D3ED936A04EE902A9B
:208F4000B8EEC77AA7EE865AB3F94A2227EE047AF8EEE44AB8EEE66A06EE902AB3F948223C
:208F6000A7EE246AE5EE075AF8EEE66A05EE102A26EE877AB8EEC55AF6EE004AF0EE466AA1
:208F8000E7EEA56AA5EE247AC3ED986A83ED997A704700BFD81B00200821843630B10A4BE5
:208FA000D3ED987AFDEEE77AC0ED007A51B1064B9FED067AD3ED997A67EE877AFDEEE77A98
:208FC000C1ED007A704700BFD81B00200000C842704700BF01207047012070477047704742
:208FE0000120704730B585B000238DF807300DF107020123E721054619F0C0FC9DF8073091
:20900000134C13F0030320D0052302AAE821284619F0B4FC9DF80A209DF80910130443EA43
:2090200001239DF8081012F0800F43EA010314BF4FF07F4200221343C4F86832BDF80B300C
:20904000A4F86C32012005B030BDC4F86832F7E7D81B00200B4A10B5D2F868426423634311
:2090600048BF03F6FF731B130360B2F86C320A2253433022B3FBF2F303F584531A330B6077
:2090800010BD00BFD81B002008B5006853F0B4FE70B9084A92F8753292F874121B0243EA11
:2090A000014392F876120B43C2F87032012008BD0020FCE7D81B002010B50446006853F0FA
:2090C0009BFE38B92046044A0623F72156F09CF8012010BD0020FCE74F1E002010B50446AA
:2090E000006853F089FE70B9084B93F87D2212B193F8B00130B12046054A0223F62156F081
:2091000083F8012010BD0020FCE700BFD81B0020D81D002010B50446006853F06DFE70B9AE
:20912000084B93F87D2212B193F8B00130B12046054A0323F62156F067F8012010BD00202D
:20914000FCE700BFD81B0020D81D002010B50446006853F051FE38B92046044A0623F72156
:2091600056F052F8012010BD0020FCE7DB1D002008B503681A78012A06D0094A06230421FA
:2091800056F042F8012008BD93F90430054A03EB830302EBC3035B7F002BEED0002008BD8B
:2091A000E81D0020D81B002008B503681A78012A06D0094A0623002156F026F8012008BDD5
:2091C00093F90430054A03EB830302EBC3035B7F002BEED0002008BD181E0020D81B002048
:2091E00008B5006853F008FE70B9084A92F8753292F874121B0243EA014392F876120B4357
:20920000C2F88032012008BD0020FCE7D81B00202DE9F74F564AB2F88E32B2F88A62B2F840
:209220009072CDE90001D2F870121B02C91AB2F88C326EEB0E0EA3FB010403FB0E44B2F8AF
:209240008832C00940EA44601B04C018A6FB013506FB0E55B2F886624FEA132343EA0563F5
:209260004FEAC6364FEAE41444F100049B19A7FB012607FB0E664FEAD25242EA46224FEA32
:20928000252545F10005F61512F5FA6C46F1000BBCF5FA6F7BF100074CDAA2FB02784FF086
:2092A000050A02FB06F908EB4909A7FB0A780AFB09884FEA570949EAC879BF08B0EB09002C
:2092C00047EA887764EB6804DB1B2A4F65EBA805BC454FF0FF377BEB070720DA40F6AC571A
:2092E000D21946F100065643A2FB027202EB46064FEAC608FA00BA1A48EA577866EB08082C
:20930000101844EB08044FF00B08A7FB087208FB06267F0847EAC677DB1B65EB660501FBAB
:209320000EFEA1FB011202EB4E0EC90F41EA4E01BCEB010C009A9AB10D4AD2F88012A1FBEF
:20934000032301FB0535520D42EAC522121A4FEA6555009B65EB0404D20B42EA44421A6024
:20936000019B0BB1C3F800C003B0BDE8F08F00BFD81B002024FAFFFF7047012070470120A5
:20938000704710B50446006853F036FD38B92046044A0623F72155F037FF012010BD0020BA
:2093A000FCE700BF6C1E002008B5006853F024FDD0B90E4B93F8952293F89412120242EA43
:2093C000014293F896120A43C3F89C2293F8982293F89712120242EA014293F899120A43D2
:2093E000C3F8A022012008BD0020FCE7D81B00202A4BD3F8A02293EDAB6AD3EDAA6AD3EDC9
:20940000A97AD3EDAE5AD3EDAD4A93EDB24A93EDB05AA2F5000207EE102AB8EEC77AD3F82A
:209420009C22E7EE066AA2F5000293EDAF6AE7EE267A93EDAC7AE5EEA74A06EE902AA7EED5
:20944000A47AF8EEE66AD3EDB15AD3EDB44AA4EE275AE6EEA45A93EDB34AA5EE276AE4EED7
:20946000275AA5EEA66AA6EE867AB5EE407AF1EE10FA18BFBDEEC77AF5EE407A18BF80ED4A
:20948000007AF1EE10FA08D0FDEEE77A17EE903A002BB8BFFF331B120B607047D81B002040
:2094A00010B5074C94F8D4320BB9002010BD1BF06FFBD4F8D832C01AD0F5FA50F6D5F4E777
:2094C000D81B002070B505460C46FFF7E9FF2B685D6808B11BF094FB064B002283F8D4224A
:2094E0002846224693F8D532BDE87040492119F045BA00BFD81B0020B0F90000084B4143EB
:20950000994208DBB1F5000F07DA0029B8BFFF31081200B270470348FBE747F6FF70F8E7EC
:2095200001FF7FFF0080FFFF704710B50D4C237843B10C300C4A0623032155F065FE002024
:20954000207010BD094BB3F8DC2252BA0A80B3F8DE2252BA8A80B3F8E0325BBA4B8001209C
:20956000EEE700BF98010020B41E0020D81B002010B5124C637843B10C30114A062328219E
:2095800055F042FE0020607010BD0E4AB2F9E232002BB8BF03339B100B80B2F9E432002B78
:2095A000B8BF03339B104B80B2F9E632002BB8BF03339B108B800120E5E700BF98010020D2
:2095C000BA1E0020D81B002010B5174C94F8E832012B00F10C000CD0022B17D0012304F27F
:2095E000E922062155F010FE012384F8E832002010BD94F8E93213F00403F6D0062304F2A9
:20960000EA22002155F000FE0223EEE7B4F8EA320B80B4F8EC324B80B4F8EE328B800023FE
:2096200084F8E8320120E3E7D81B002038B580226B21054619F09EF864201BF0C9FCF52127
:20964000284619F0EFF9AC2818D005D8122817D0982817D000240FE0AF28FBD10924102235
:209660006A21284619F086F828460322682119F081F864201BF0ACFC204638BD0724EEE73A
:209680000824ECE70B24EAE738B500224E21054619F070F8152496201BF09AFCF52128467D
:2096A00019F0C0F9422807D0472807D0013C14F0FF04F0D1204638BD0C24FBE70D24F9E7DE
:2096C00038B580226B21044619F054F864201BF07FFCF521204619F0A5F9054601201BF02C
:2096E0008FFA682D1BD18C21204619F09BF918280DD8142834BF00250325204607226821F7
:2097000019F038F864201BF063FC284638BDA0F15403DBB2072B34BF03250025EDE70025DF
:20972000F3E708B5F52119F07DF9702818D008D8422817D0472817D0122814BF00200820A1
:2097400008BDAC2812D006D800F0FD00712814BF00200620F4E7AF2814BF00200920EFE76D
:209760000520EDE70C20EBE70D20E9E70720E7E7164BD0F8E0105A6810B50446D0F8D80076
:2097800071B1131A99420BDC94F8D030C4F8D820012B10D0D4F8D4300133C4F8D43010BDDB
:2097A000D4F8E430C4F8D8200344C4F8DC3094F8D030012BEED104F1E801201D18F06EFFFF
:2097C000D4F8D4300133C4F8D43010BD001000E010B504460E49D0F8D83094F8D020D0F88E
:2097E000E40049680344012AC4E9361305D0D4F8D4300133C4F8D43010BD04F1E801201DEB
:2098000018F04CFFD4F8D4300133C4F8D43010BD001000E070B5866996F8DC30012B8AB060
:20982000054623D0023B012B2BD8D6F89C30164C8C221A700FCCEC46ACE80F00D6F89C3000
:209840000093D6F8A03001930FCCACE80F0094E80300AB698CE8030003F11000694618F000
:209860001DFFAB691A69136A002BFCD1D6F8A030B3F90220EA81B3F904202A82B3F906308B
:209880006B8201200AB070BD3C190608F0B5836993F8DC20012A8BB0054627D0023A012A49
:2098A0002FD893F84C21D3F89C10174C62F07F030B708669D6F8A0305F1C0FCCEC46ACE8D7
:2098C0000F00D6F89C30CDE900370FCCACE80F0094E803008CE80300694606F1100018F0C0
:2098E000DDFEAB6919690A6A002AFCD1D3F8A0305A8852BAEA819A8852BA2A82DB885BBA46
:209900006B8201200BB0F0BD64190608F0B590F8DC30D0F8A060012B8BB004464BD015D88C
:20992000D0F89C304FF0FF321A605A609A60DA60D0F8E0300522B3F57A7FC0F8F02054D827
:20994000032380F8DC3001200BB0F0BD023B012BF9D890F84D31D0F89C203A4D63F07F03B4
:209960001370D0F8A0305F1C0FCDEC46ACE80F00D4F89C30CDE900370FCDACE80F0095E81F
:2099800003008CE80300694604F1100018F086FE2269136A002BFCD173885BBAA4F8D03061
:2099A000B3885BBAA4F8D230F38801205BBAA4F8D4300BB0F0BD90F84C2190F84D319B1A50
:2099C0005B100133DBB206EB430236F813305BBAA0F8D03053885BBAA0F8D23093885BBA4D
:2099E000A0F8D43001200BB0F0BD03691A7B2AB35B691BB390F8983003B390F84C31D0F8FF
:209A00009C20C4F8A40063F07F03137090F84C1190F84D31D0F8A0200B48C4F804015B1AD6
:209A200007330121C4F8FC30D4F89C3084F800110A44C4E93D3284F8DC1084E7022384F8DF
:209A4000DC3080E7641906088D800008F0B590F81E31032B8DB0054658D090F8DC30D0F83D
:209A6000A060012B00F08E8015D8D0F89C3000221A605A609A609A81D0F8E0300522B3F529
:209A80007A7FC0F8F02036D80323012480F8DC3020460DB0F0BD023B012B33D8D0F89C3050
:209AA000554F92221A700FCF02AC0FC40FCF0FC497E80300D5F89C3084E80300029302A9EA
:209AC000D5F8A030039305F1100018F0E7FD2A69136A002BFCD1B6F90230A5F8D030B6F92C
:209AE0000430A5F8D230B6F90630A5F8D430012420460DB0F0BD03691A7B002A5AD102239D
:209B000085F8DC30012420460DB0F0BD3B4902913B4903910A21002301221030049102A9A7
:209B20008DF814208DF828200190CDE90633CDE908330B9318F0B2FD2A690198136A002B05
:209B4000FCD13049B1F8F222052A19DDB1F9F442D1F8F462B1F9F672B1F9F81214F5004FC0
:209B600020D0C5F8D060A5F8D4100124063A002AC9D0B0227E2118F0FDFD20460DB0F0BD1C
:209B80001C46F4E7B6F90820A0F8D020B6F90A20A0F8D220B6F90C20A0F8D4201C46204697
:209BA0000DB0F0BD17F5004FDBD111F5004FD8D11C46DBE75B69002BA1D090F89840002C26
:209BC0009DD0D0F89C30C5F8A4008C221A70D0F8A020C0F8F8200E2201230B49C0F8FC2017
:209BE000D0F89C20C0F80411C0F8F42080F8003180F8DC3087E700BF3C1906089C010020CE
:209C0000C81E0020D81B0020018700082DE9F047044690F8210144F23B3382B0A4F84C316B
:209C200010B902B0BDE8F0870509013D042D00F00F0071D83A4F07EB4503B3F8503043FA9D
:209C400000F2D20768D5012606FA00F0013818403D4456F059F9DFF8D89095F85C80314B17
:209C6000804409F53F7A0AEBC8052622EA80E360AB88B3FA83F3202BC3F11F02D1D0174440
:209C800009EB82020C34C2F87C45284697F8644019F0DEFA0021284619F012FB5AF83800E0
:209CA000A98800F13F40B1FA81F100F57E00C1F11F01C0F38720C9B24DF048F9AA888DF897
:209CC0000660B2FA82F24FF00043A144D34068464FF400620093ADF8042052F08BFE99F879
:209CE000BC35F02B0ED8AB884FF00042B3FA83F332FA03F395D00C490A6813430B6002B0DA
:209D0000BDE8F087094AF023105D89F8BC350022032152F0EDFFE6E7024BE36081E700BFEA
:209D20003C19060871970008003C014004930608D81B002038B500F110040546194818F0D5
:209D400035FCA8822846FFF761FF01226B21204618F010FD78201AF053FF204618221B21EA
:209D600018F008FD204618221C2118F003FD2846FEF79EF91A210246204618F0FBFC95F882
:209D800020212046192118F0F5FC20461022372118F0F0FC20460122BDE83840382118F0FE
:209DA000E9BC00BF00127A0073B5054600F110044B4818F0FBFBA8822846FFF727FF42F2C2
:209DC0001F53A5F84C310F224E21204618F0D2FC0F201BF0FDF895F8DB30002B71D095F85B
:209DE0002031013343F00103B3FA83F3C3F11F03032B66DC3B4AD25C02F00F024F212046B2
:209E0000019218F0B7FC0F201BF0E2F8019A5021204618F0AFFC0F201BF0DAF8324B93F8A7
:209E2000C535022B52D0032B55D0012B15BF0A2508252426902614BF06220C2220460C216E
:209E400018F098FC06F0FC0220460D2118F092FC2A0142EA162220460E2118F08BFC20462F
:209E60000C22032118F086FC20462422042118F081FC2046A022052118F07CFC2046EE226C
:209E8000522118F077FC20460322142118F072FC20460022632118F06DFC0822204665210B
:209EA00018F068FCE421204618F0BCFD00F0EF0040F060026421204602B0BDE8704018F09F
:209EC00059BC002385F8DB30062295E706254FF4DC761522B2E704254FF4AC662522ADE735
:209EE00000366E01F0920608D81B00202DE9F04FB24C94F87FA083B0BAF1000F1ED1D4F874
:209F0000443A002B16DD0026AD4831460769D0F8A0303D6825F0010503F1C0023D6059603F
:209F20000C339A42FBD1D4F8443A0136B34200F58070EBDC012003B0BDE8F08FD4F8E83537
:209F400098461AF025FED4F8EC35D4F8F0251433801AB0EB430FC0F2258104F2F457DFF8EA
:209F60006CB2CDF804A004F18006C2460025B846D4F8403AAB4240F3BC80B16973680A69AA
:209F800098005368D1F8EC201FFA83FCA2EB0C0CD1F8E83000F108500CF1806700EB431010
:209FA000393F00EB87170246974240F29A80116802F58073002900F0E680116C002900F0BB
:209FC000E580D2F88010002900F0E380D2F8C0101A460029E8D19F4240F28380191AACEB8A
:209FE000A111452928BF4521002703EB81119E4638464FF001090CE01A6C002A7DD1D3F8ED
:020000040800F2
:20A000008020002A40F0A380D3F8C02003F580732AB9994205D91A68002AEDD0403399423A
:20A020006ED8112F5DD9C7F11503002B59DB08D000FA03F3C7F11407012000FA07F747EA50
:20A040000300C0F3C4330BEB8303596F00F01F030BEB83035A6F42EA0132C0F344110BEB5B
:20A060008101C0F384230BEB8303496F5B6F42EA011242EA032383EA132282EA121202F051
:20A080000F020F2A1BD1B3F5803F18D2D4F8FC251B090132B3F5606FC4F8FC2540F08B8066
:20A0A00094F85C2702EB420204EBC2022A4492F809270D2A7AD00199A8F80C300AE0D4F8D8
:20A0C000FC350133C4F8FC35D4F8F8350133C4F8F83500213B4B5C2000FB0530524618F025
:20A0E0001DF80135082D08F1140806F120067FF43FAF012384F8FA3601E78033994290D99E
:20A10000A3EB0E02921102F1010C2F4A82FB0CE2A2EBEC72012AB8BF012290401744013A04
:20A1200009FA02F210439C46DCF800208AB1DCF840208AB3DCF880208AB3DCF8C0200CF5ED
:20A14000807C42B16145EFD89E46634661E7C03365E70CF1400C6145F6D9ACEB03039B1188
:20A160005A1C194B83FB02E3A3EBE273012BB8BF012398401F44013B09FA03F31843634684
:20A180009E46634645E702F1400324E702F1800321E702F1C0031EE70CF1800CDBE70CF144
:20A1A000C00CD8E7002003B0BDE8F08F8023019988F81E308EE79BB27DE700BFD81B00201A
:20A1C0002026002038230020565555553C1906082DE9F0412F4F07EB401898F89C300BB9B7
:20A1E000BDE8F0818C2303FB00730E4693F84A2E88F88220002183F84A1E0446450118F014
:20A200007DF9C0BB3D442448A5F8806000EB441017F038FD97F87F30D5F89820A3B1D5F884
:20A220008410D2F8A03001248C4003F1C001420010F4004F90B202D15A6822435A600C3380
:20A240009942F4D1BDE8F081D5F88440D2F8A03004F110020124944003F1C001420010F422
:20A26000004F90B202D15A6822435A600C339942F4D1BDE8F08197F85C3703EB430307EB5C
:20A28000C303234493F80967002EBBD0012388F88230B7E7D81B0020581C002010B5044633
:20A2A00056F01EFE81B22046BDE8104090E700BF10B57D4B7D4C93F85C3794F8B0219A42CB
:20A2C00040F0988194F8B121002A00F0EC8094F8B231002B40F0EC80D4F8B411088820F0EA
:20A2E00080000004000C0880B4F8B801C862088880B240F0800008804B62B1F80CC0B4F8EF
:20A30000C80140EA0C0080B2012A8881A4F8C83100F0C980D4F8CC11088820F0800000043D
:20A32000000C0880B4F8D001C862088880B240F0800008804B62B1F80CC0B4F8E00140EA0F
:20A340000C0080B2022A8881A4F8E03100F0AB80D4F8E411088820F080000004000C088049
:20A36000B4F8E801C862088880B240F0800008804B62B1F80CC0B4F8F80140EA0C0080B2F5
:20A38000032A8881A4F8F83100F08D80D4F8FC11088820F080000004000C0880B4F8000286
:20A3A000C862088880B240F0800008804B62B1F80CC0B4F8100240EA0C0080B2042A8881FA
:20A3C000A4F810326FD0D4F81412088820F080000004000C0880B4F81802C862088880B204
:20A3E00040F0800008804B62B1F80CC0B4F8280240EA0C0080B2052A8881A4F8283252D075
:20A40000D4F82C12088820F080000004000C0880B4F83002C862088880B240F08000088078
:20A420004B62B1F80CC0B4F8400240EA0C0080B2062A8881A4F8403235D0D4F844120888A6
:20A4400020F080000004000C0880B4F84802C862088880B240F0800008804B62B1F80CC098
:20A46000B4F8580240EA0C0080B2072A8881A4F8583218D0D4F85C22B4F86002118821F024
:20A4800080010904090C1180D0621088B4F8701280B240F08000108053629089014389B2D1
:20A4A0009181A4F8703210BDD81B0020D02C0020D4F8BC31B4F8C01159601968D4F8B4015F
:20A4C00041F00101196040F20D33A0F84830818989B241F48071012A8181E4D0D4F8D41151
:20A4E000B4F8D8014860086840F001000860D4F8CC01A0F84830818989B241F48071022AE6
:20A500008181D0D0D4F8EC11B4F8F0014860086840F001000860D4F8E401A0F848308189B7
:20A5200089B241F48071032A8181BCD0D4F80412B4F808024860086840F001000860D4F8EA
:20A54000FC01A0F84830818989B241F48071042A8181A8D0D4F81C12B4F8200248600868FB
:20A5600040F001000860D4F81402A0F84830818989B241F48071052A818194D0D4F834123E
:20A58000B4F838024860086840F001000860D4F82C02A0F84830818989B241F48071062A7F
:20A5A000818180D0D4F84C12B4F850024860086840F001000860D4F84402A0F84830818944
:20A5C00089B241F48071072A81813FF46CAFD4F86412B4F868224A600868D4F85C2240F08D
:20A5E00001000860A2F8483093899BB243F48073938110BD51F03AFE00287FF463AE10BD7A
:20A600002DE9F843264F274E97F8B02196F85C379A423ED1D6F8445A002D14DD002496F857
:20A620007F802148A1460134B8F1000F02D0037E012B29D002691368A54243F0010300F56D
:20A6400080701360EFD1194B5B68C3F30803C3B9EFF31183ABB91AF077FAD7F87442C6F8DB
:20A66000F005002C0BDD124A02EBC404116893888889083203439BB294428B81F6D1BDE800
:20A68000F8831AF0FFF8E8E780F8F090FDF76EFFD0E751F0EBFD0028BCD1BDE8F88300BFA2
:20A6A000D02C0020D81B00202026002000ED00E0482F00202DE9F047836882B0804613B1AD
:20A6C0001A689B8853835F4B5B68C3F30803002B40F0B380EFF31183002B40F0AE801AF03A
:20A6E00033FA0546574F584E584C05E01AF02CFA431BB3F57A7F30D27B68C3F308031BB964
:20A70000EFF31183002BF1D0EFF31182102383F312884FF0E0210120D1F818C00B69DB03CB
:20A7200003D5C6F89802D1F818C0D4F8E8E5D6F89802D2B282F31188D6F89C124FF47A720A
:20A7400002FB01F37044A3EB0C03B3FBF1F302FB0030431BB3F57A7FCED3D8F8083013B18C
:20A760001A689B881383374C384EDFF8DCA00A2710256368C3F30803002B4BD1EFF3118393
:20A78000002B47D11AF0E0F9814606E01AF0DCF9A0EB0903B3F57A7F30D26368C3F3080341
:20A7A0001BB9EFF31183002BF0D0EFF3118285F312884FF0E0210120D1F818C00B69DB0389
:20A7C00044BFCAF89802D1F818C0D6F8E8E5DAF89802D2B282F31188DAF89C124FF47A7231
:20A7E00002FB01F37044A3EB0C03B3FBF1F302FB0030A0EB0903B3F57A7FCED3013FB8D1B6
:20A80000D8F80030ADF804701B6A3BB1384602B0BDE8F0871AF036F88146BEE74046022313
:20A8200001AA802118F02EF89DF80530242B14BF00200F2002B0BDE8F0871AF023F8054625
:20A8400050E700BF00ED00E0D02C0020D81B002070B5104ED6F8403A002B19DD06F180049F
:20A86000002505E0D6F8403AAB4204F120040FDD237F0135002BF5D0E0680028F2D0217DFC
:20A8800018F0BEFED6F8403AAB4204F12004EFDC012070BDD81B0020F0B5D0F8805087684E
:20A8A0002B6858493E6823F001032B6000232B608D426B60AB60EB602B614FF0210383B05C
:20A8C000044600F160026B6100F097804E4B9D425ED0284601924CF02BFA019A002384F8C6
:20A8E000543079790C290ED8DFE801F0650D0D0D5E0D0D0D570D0D0D0700B38B23F40063C1
:20A900001B041B0CB38330461BF00EFE7B790C2B10D8DFE803F0690F0F0F600F0F0F570FD8
:20A920000F0F0700B38B23F400631B041B0C43F40063B38340222968A369E06A6262334A9A
:20A9400003430A40216B13430B43D4E90D120B431343D4E90F120B431343D4E913120B4305
:20A96000134343F040032B60D4E911316A690B4322F007021343A16A6B61D4E90723696068
:20A98000AA60EB602B6843F010032B6003B0F0BD4FF4746143F8201CA0E7B38B23F008032C
:20A9A0001B041B0CB383AEE7338B23F400631B041B0C3383A7E7338B23F008031B041B0CA2
:20A9C0003383A0E7B38B23F008031B041B0C43F00803B383AEE7338B23F400631B041B0C11
:20A9E00043F400633383A5E7338B23F008031B041B0C43F0080333839CE7054B3D2199603B
:20AA00006CE700BF10600240286002403F801CF0006002402DE9F04FDFF8B0B12DED028B07
:20AA20009BF87F4085B034B90124204605B0BDEC028BBDE8F08FDBF8E835624F08EE103A27
:20AA40001AF0A6F897F8CC320290002B00F0B4810BF2F4530BF648650BF5EC6A0026994692
:20AA60000EE02846FFF718FF97F8CC3201369E4205F18C050AF15C0A09F1140980F2A88030
:20AA8000D7F8D432029AD31A03D4AA6D9342C0F27C818C2303FB06B393F89C3E03F0FF0227
:20AAA0000192002BDDD0AB68A9891A68D5F880305B681FFA83FE9389CEF1160E9BB223EA31
:20AAC0000103BEF1070F9381CBD9DBF8FC350133CBF8FC35D5F8883003939C4600225CF856
:20AAE000044B012190461BE0DCF80000B8F1140FA0EB04031DDC13F1080448BF03F11704C3
:20AB0000231108EB24180446581E013102FA03F3012282408E4542EA03020CF1040C08D31D
:20AB20008E45E1D8C8F11503DCF800404FF01508EAE7B8F1150F39D12348C2F38423C2F324
:20AB4000441100EB830300EB8101D3F8F430D1F8F4101B0243EA011302F01F0100EB810129
:20AB6000C2F3C43200EB8202D1F8F410D2F8F4200B4343EA023383EA132282EA121202F03C
:20AB80000F020F2A12D1C3F30F134FF6FF7293420CD0B3F5606F00F0FF80A9F80C300199EC
:20ABA00018EE102A504617F0B9FA5AE7DBF8F8350133CBF8F835002E00F0E080002301936B
:20ABC000EDE700BFD02C00203C190608D81B0020012200218BF8FA26C7F8D412002B3FF466
:20ABE00023AF9BF8581E890700F1BE80DBF8501E086849798A40018C92B289B221EA020164
:20AC00000184018C89B20A43012B02843FF40CAF9BF8E42E12F0020FDBF8DC2E1068547920
:20AC2000018C0CBF01220422A24092B289B221EA02010184018C89B20A43022B02843FF484
:20AC4000F3AE9BF8702F12F0020FDBF8682F10685479018C0CBF01220422A24092B289B25D
:20AC600021EA02010184018C89B20A43032B02843FF4DAAE9BF8FC2FDBF8F41F9207086810
:20AC8000497954BF012204228A40018C92B289B221EA02010184018C89B20A43042B028463
:20ACA0003FF4C2AE474A92F8881011F0020FD2F880100C684D79208C0CBF01210421A940F1
:20ACC00089B280B220EA01002084208C80B20143052B21843FF4A8AE92F8141111F0020F17
:20ACE000D2F80C110C684D79208C0CBF01210421A94089B280B220EA01002084208C80B292
:20AD00000143062B21843FF48FAE92F8A01111F0020FD2F898110C684D79208C0CBF012116
:20AD20000421A94089B280B220EA01002084208C80B20143082B21847FF476AE92F82C3270
:20AD4000D2F82422116850790A8C9B074CBF0423012383409BB292B222EA03020A840A8C8A
:20AD600092B213430B845FE6DBF8502E10685479018C0422A24089B292B23FE7039912489F
:20AD8000582256F060FD019609E70024204605B0BDEC028BBDE8F08F9BF85C2702EB42022F
:20ADA0000BEBC202324492F809270D2A7FF4F5AE802389F81E30F2E601228BF8FA26C7F88D
:20ADC000D43232E6D82B0020782200202DE9F843037D01681F2B044608D94868A3F1200560
:20ADE0002022AA40024206D1BDE8F883086820229A400242F8D0714A714E5268C6F8D82268
:20AE000096F8B221A569DFF8D09112BB8C2202FB0592D2F8500ED2F8C87ED0F8008038685C
:20AE2000B2F854CE20F001003860B8F80C2092B222EA0C02A8F80C2099F87F200ABB1F2B58
:20AE400040F2A880A3F1200220239340CB60BDE8F8838C2202FB0592D2F8502E5069D2F874
:20AE60000080026822F001020260B8F80C2022F480721204120CA8F80C2099F87F20002A33
:20AE8000DDD08C2303FB05934E4AD3F8C87E3B6823F001033B6000233B6097427B60BB6035
:20AEA000FB603B614FF021037B617ED0464B9F427FD038464BF03CFF8C2303FB0593D6F846
:20AEC000D422012183F89C1E002A69D0B8F800303E499BB243F08003A8F800308C2303FBDB
:20AEE00005F54FF0FF332944C8F82C3040464CF075F909EB05030022D3F8740EC3F86C2E6E
:20AF0000D3F8602E39680243D3F8780E0243D3F87C0E0243D3F8800E0243D3F8840E024382
:20AF2000D3F8880E0243D3F8940E0243D3F8980E02432748084002433A607969D3F88C2E06
:20AF4000D3F8900E21F0070102430A437A61D3F8702E7A60D3F8642EBA60D3F8682EFA608D
:20AF6000D3F8C82E16215160116841F001011160D3F8502EB3F8543E126891890B439BB256
:20AF80000E4993814B68C6F8DC32237D21681F2B3FF658AF202202FA03F38B60BDE8F883D9
:20AFA00019F0F6FDC6F8D40290E70A4B3D229A6082E74FF4746243F8202C7DE7001000E07F
:20AFC000D02C00201060024028600240942A00203F801CF000600240D81B0020F8B5054683
:20AFE00000F11004FEF712FE95F8D830072B5BD195F81D310226002B58D1374680226B2152
:20B00000204617F0E1FB642019F0E2FF07226821204617F0D9FB642019F0DAFF00226B2172
:20B02000204617F0D1FB642019F0D2FF01226B21204617F0C9FB0F2019F0CAFFFA001B2162
:20B04000204617F0C1FB0F2019F0C2FFF2001C21204617F0B9FB0F2019F0BAFF2846FDF72B
:20B0600027F81A210246204617F0AEFB0F2019F0AFFF95F820211921204617F0A5FB642099
:20B0800019F0A6FF10223721204617F09DFB0F2019F09EFF20460122382117F095FBBDE880
:20B0A000F8400F2019F094BF0326A6E70327A5E710B50446FFF792FF1022A0186A2117F04F
:20B0C00059FB642019F084FF044817F06FFAA082BDE81040012019F093BD00BF002D3101A1
:20B0E0002DE9F341144698460DF10702012306460F4617F0EDFB88B1022019F081FD9DF89C
