:060000000219FD0203607D
:03000B0002008070
:0300130002037372
:03001B000200B030
:03002B00020329A4
:03005B000203821B
:0300730002034D38
:10008000C0D075D01018B8CF0408208507B2858677
:100090008AD0D03253A4DFD285C2A98F8E7589AAA7
:1000A000C289C28B758A00D2A8D2AAC228D0D03207
:1000B000C2A8C28E85588BC0D075D008C0E0C0F0F1
:1000C000C2CAA9CCAACDD2CAC3E99559F9EA955AB0
:1000D0007049C3E9955B4043955B503FB8103C784D
:1000E00000A9577D00E2FEC39DC399402E99EC33D1
:1000F000FC08E2FDC39EC399402199EC33FC08E261
:10010000FEC39DC399401499EC33FC08E2FDC39EE5
:10011000C399400799EC33FC088002806AE2FEC371
:100120009DC399406299EB33FB08E2FDC39EC399DE
:10013000405599EB33FB08E2FEC39DC399404899B3
:10014000EB33FB08E2FDC39EC399403B99EB33FBC5
:1001500008E2FEC39DC399402E99EB33FB08E2FDF4
:10016000C39EC399402199EB33FB08E2FEC39DC3B4
:1001700099401499EB33FB08E2FDC39EC3994007F5
:1001800099EB33FB08801E0530E53070021530C353
:10019000E5309432400AD225755C00755D00611926
:1001A00075310A6119E2FEC39DC39940DA99EA33B9
:1001B000FA08E2FDC39EC39940CD99EA33FA08E2FA
:1001C000FEC39DC39940C099EA33FA08E2FDC39E7D
:1001D000C39940B399EA33FA08EBC46B6C6A3027D1
:1001E00001F4540F70A1C3EBF4FA9460FBECF454E7
:1001F0000F9400FC5018EA7C007B00600CC3135085
:1002000007B55C05055D8006E4F55C755D00302290
:100210001BC3EB94D0F5F0EC94074003ABF0FC303B
:100220002101B39226C3EB33FBEC33FCEB54F04CCF
:10023000C475F00584FAEC13FCEB132AFBEC3400D4
:10024000FC30E3047BFF7C07201C27301124EC707A
:100250000C798187F0C3EB95F05002ABF0E5376085
:100260001175F028A42BFBEC3400FC30E3047BFF79
:100270007C07EB54F84CC423F97007EB7004D225CB
:100280008005753200C225E53060021530C3E54CAB
:10029000FD954D4002AD4DC3ED995008ED75F00848
:1002A000A4FBACF08CF0EBA2F013A2F113F4F9EC88
:1002B0000303F45401FA30291CEBF4540324C0F86E
:1002C000E623F630E00FE92401F97009EA3400FA78
:1002D00030E1021A19C3E9941EFBEA9400FC5005B0
:1002E000E4FBFC800DC3EB954FEC95504004AB4F05
:1002F000AC5089E98AEA8BFB8CFC75310A302719EE
:10030000302816758E017589A2D28543A420780005
:1003100085648AC28DD2A980097800758A00D2A826
:10032000D2AAD0F0D0E0D0D032C0E0C2CF053B306E
:100330002403102315D223E5316005153130250A39
:10034000D2250532E53270021532D0E032C2AF5309
:10035000E67F53917F7592FA7593FFC218D2AF3240
:10036000C0E0E58A85588BC0D075D008F208D0D09F
:10037000D0E032C2AAD28EC2CA85CC5985CD5AD21B
:10038000CA32327A007901801E7A00790580187AA3
:1003900000790A80127A007964800C7A0079C8802A
:1003A000067A0079FA8000090A8009781874FFD566
:1003B000E0FDD8F9D9F5DAF3227A427B3580247A48
:1003C0002D7B4D801E7A267B5C80187A197B8C8071
:1003D000127A147BAF800C7A427B1E80067A2D7BCA
:1003E0002C8000E5547001227902E4C292D5E0FD30
:1003F000C293D5E0FDD293D5E0FDD292D5E0FDE9E0
:1004000020E002C29130E002C295E554D5E0FDE95A
:1004100020E002D29130E002D2957496D5E0FDD969
:10042000C9EA78C8D8FED5E0F9DBBDC2922271B91D
:1004300071BF71C52271DD71B92271C571BF71B90A
:100440002279998754B8010471B98017B8020471F0
:10045000BF8010B8030471C58009B8040471CB8053
:100460000271D17998875422901A70E493F4601D38
:100470007C3E901A74E493A3FB6012E493FA600448
:1004800071E38006EBF97A0071A7A3DCE8901AF01B
:100490002278A5E6F954037000E9540C7000E95481
:1004A000307000E954C0700022D291D293D295C22C
:1004B00090C292C29475D5FF22201E2E78FF201084
:1004C00026E53A6022E542601E74FF301102747F17
:1004D0008542F084853AF0A4F8C5F0600278FFC345
:1004E000E8954E5002A84E884D22C3E54194A0E500
:1004F000429400E54D5003148001046002F54D2242
:100500000551C3E5519408405130EDF4AABDABBE8E
:1005100075510079A0E76041EB7006E552601880E4
:100520000CC3EA9552600EE5525005600A1480072C
:100530000460FA8002E552F552C39553401B754C96
:10054000C0C394044013754C80C39404400B754C95
:1005500040C394044003754C0022E54C2410500223
:1005600074FFF54C227541007542F022C2AFC2CA39
:10057000A8CCA9CDAA3B30CF010AD2CAD2AFC3EAD8
:1005800013FAE913F9E813F8201014C3E8953C882E
:100590003CF8E9953D893D547FF9301E36C186AB64
:1005A0003CAC3DAD3E883C893D8A3EC3E89BE99C1E
:1005B000EA9D547F60087541FF7542FFC155AE3F0B
:1005C000AF408B3F8C40C3E89EF8E99FF9AA41AB4E
:1005D000428011AA41AB42C3EB94044048940440CA
:1005E00013201126C3EB13FDEA13FCC3ED13FDEC3E
:1005F00013FC804AEBC423FCEAC423541F4CFC7D4B
:1006000000C3E913F9E813F88034EBC423FC541F4A
:10061000FDEC54E0FCEAC423541F4CFCC3E913F97D
:10062000E813F88019EBC4FCEAC4540F4CFC7D00BD
:10063000C3E913F9E813F8C3E913F9E813F8C3EAB7
:100640009CFAEB9DFBEA28F541EB39F54250067523
:1006500041FF7542FFC3E54294025002D21EE542BB
:10066000C4FA540FFBEA54F0FAE541C4540F4AFAB5
:10067000C3EA9402FAEB9400FB40057048EA704527
:100680007A017B00803FAA41AB42EBC4FCEAC45430
:100690000F4CFCC3EA9CFAEB9400FBE80303543FC5
:1006A0002AFAEB3400FB8A418B42C394024002C217
:1006B0001EEBC4FE7B00EAC4540F4EC39402FA4002
:1006C0000270027A01202806301808120A743018C5
:1006D0000280FB854892854993D21843E680789240
:1006E000E6FFC3E49AF8E49BF9C3E833F8E933F989
:1006F000201E7F3010047F038015C3E538948240AC
:100700000E0F941E40010FC3EF940640027F05E8D0
:10071000FAE9FBD3E913FDE813FC8C468D478848C2
:100720008949C3EF9403602BEF20E00CE82CF8E933
:100730003DF9ECFAEDFB800BE8D338F8E939F97AAA
:10074000FF7BFFC3EF9403400A8A4A8B4B8844899E
:10075000458050884A894B8A448B45301045754AFC
:10076000F0754BFF7546F07547FF7548F07549FF0A
:100770008031E8FAD313FC8C468848C3EF940360B9
:100780001EEF20E007E82CF8ECFA8007E8282401A7
:10079000F87AFFC3EF940340068A4A8844800488AD
:1007A0004A8A44202806301808120A743018028039
:1007B000FB753502D21843E68030112DA841A942BD
:1007C000C3E913F9E813F8301004E92440F9C2AF83
:1007D00053E67F759100C3E498F594E499F5957517
:1007E0009104D21843E680D2AF2275F000301D0E7E
:1007F00075F040800975F040301D0375F000D21986
:100800007543007A027B02201E1D301102C219308E
:1008100010067A367B36800F7B28E542700104FA99
:10082000C3942840027A28201811E543600D301047
:1008300003D53504D21A80661207B40543E59B54EC
:1008400040B5F00DE53460BB2019B8DADAC21A8081
:100850004D20100B2019110AC3EA9B40CA80A40A3C
:10086000C3EA9B40011A80BFC21953E67F7591000D
:10087000301E107594007595F0759104D21843E6FA
:10088000808080E5427EFFC3334009C3334005C307
:10089000334001FEC3E49E759400F59580DBC2AF42
:1008A00053E67F854492854593759100854A9485EA
:1008B0004B95759104D21843E680D2AF20101330C7
:1008C0001A1220110F201D0C201909158115810203
:1008D00011BC053422E53875F007A430190105F084
:1008E000A2F013A2F113A2F213F538C394785003C7
:1008F000753878C3E53895394009D291D293D295AD
:1009000075D5FF202805301807517430180280FB78
:10091000854692854793D21843E6802220120FC263
:10092000AFC292D29075D5CFD2AF759F0322C2AF1E
:10093000C292D29475D5FCD2AF759F032220120FBC
:10094000C2AFD29575D5F3D290D2AF759F1322C2A4
:10095000AFD29175D5F3D294D2AF759F23222012D6
:100960000FC2AFC290D29475D5F3D2AF759F232238
:10097000C2AFC294D29075D5F3D2AF759F13222027
:10098000120FC2AFD29375D5FCD294D2AF759F032C
:1009900022C2AFD29375D5CFD290D2AF759F03222A
:1009A00020120FC2AFC294D29275D5FCD2AF759F00
:1009B0001322C2AFC290D29275D5CFD2AF759F230A
:1009C0002220120FC2AFD29175D5CFD292D2AF757D
:1009D0009F2322C2AFD29575D5FCD292D2AF759F1C
:1009E00013227432A28540032085F750033085F22C
:1009F000D5E0F3922722E55C6079F8C39406500FA6
:100A0000C2AF1204A912044112039BD2AF805EC38D
:100A1000E55D9406405DB80704C2218050B8080423
:100A2000D2218049B80904C2228042B80A04D222E5
:100A3000803BB8140A7988E714A2E09221802EB88E
:100A4000150B7988E714A2E0B392218020B80C1D21
:100A5000E4A22192E0A22292E1047988F77555A5DB
:100A60007556F191CA755500755600D2AF755C0088
:100A7000755D0022C0D075D010BE0029C2AF85417F
:100A800026854227D2AFE526A23813F9A2391329C9
:100A9000F526E52703C2E7F903C2E739F5270E205B
:100AA0001803D0D022BE0115E5277052E526700646
:100AB00075270F7526FF0E201803D0D022BE021511
:100AC000E526C465266527F478D0A65E717B0E20E6
:100AD0001803D0D022BE030BE526717B0E2018032D
:100AE000D0D022BE040CE526C4717B0E201803D0A2
:100AF000D022E527717B087E00D0D0D2282220E7C3
:100B00001620E61D20E52720E43420E34120E250B2
:100B100020E15CE52641B6A23733F52675270F4163
:100B2000B6A23733A23633F52675270D41B6A23764
:100B300033A23633A23533F52675270B41B6E526A9
:100B400054F0C23C4527C4F52675270941B6E52671
:100B5000A23813A23913A23A13F52675270741B616
:100B6000E526A23813A23913F52675270541B6E507
:100B700026A23813F52675270341B6540F23900B90
:100B8000827361A261AC61B961CA61D461E161EB58
:100B900061FF810C812081278138814281598163E5
:100BA000817708A66008A65E08A65E2208A65E08F1
:100BB000A65F08A65E08A65E2286F0E55FB5F00295
:100BC000E560F608A66008A65E2208A65E08A66094
:100BD00008A65E2208A65F08A65E08A65E08A65EB6
:100BE0002208A65F08A65F08A65E2286F0E55FB52C
:100BF000F002E560F608A65E08A65F08A65E220879
:100C0000A65E08A65E08A65F08A65E2286F0E55FDF
:100C1000B5F002E560F608A65F08A65E08A65E22AB
:100C200008A66008A65F2286F0E55FB5F002E560E1
:100C3000F608A65F08A65F2208A65E08A65F08A6BB
:100C40005F2286F0E55FB5F002E560F608A65E0873
:100C5000A65E08A65E08A65E2208A65F08A65E0835
:100C6000A65F2286F0E55FB5F002E560F608A65EB5
:100C700008A65E08A65F2208A65E08A65E08A65E15
:100C800008A65F22901A0D7820B107E520B4550A16
:100C9000A3B107E520B4AA0280127555A57556F1D7
:100CA000B18E91CA755500755600801D901A037853
:100CB000807B0AB107A308DBFA901A0F788C7B1AA5
:100CC000B107A308DBFA901A2922C2AFB14AB16C6E
:100CD000B127901A007400B10CA37410B10CA37466
:100CE000CCB10C901A0378807B0AB10BA308DBFA15
:100CF000901A0F788C7B1AB10BA308DBFAB15DB1A7
:100D00007FB13B901A2922E493F622E6438F0153E8
:100D10008FFDFFC3E583941C400122EF8555B78505
:100D200056B7F0538FFE22438F02438F018555B78C
:100D30008556B7901A0DF0538FFC22901A0D7455FA
:100D4000B10C901A0E74AAB10C227A3079D07820A6
:100D5000901A40B107E520F709A3DAF7227A307933
:100D6000D0901A40E7B10C09A3DAF9227A8C790005
:100D70007820901A70B107E520F309A3DAF7227AF8
:100D80008C7900901A70E3B10C09A3DAF92278800B
:100D900076FF08763308760108760108761908761A
:100DA000FF0876090876300876010876FF080808FB
:100DB00076FF0876FF0876FF0876FF0876FF08764C
:100DC000FF0876040876FF0876FF0876FF0876FFAE
:100DD0000876FF0876280876500876040876FF081B
:100DE00076020876FF0876FF0876FF087607087611
:100DF000FF0876FF0876FF087600087600227888DC
:100E0000E614A2E19222A2E09221788474509650D6
:100E10000276507886740D965002760D863A789C4C
:100E2000E67539FFB402037539A0B403037539823E
:100E300078A0E6F8600674282409D8FCF553789861
:100E40008654788DE623F95401F550E954FEF54FA8
:100E5000B6FF03754FFF7883E624FF922978C076AA
:100E60000008761108765508767722755500755674
:100E7000007597DE7597AD7581B043FF8075EF06FD
:100E800075A9001204A97580FF75F1F075A40075AD
:100E900080FF75D4FF75902A75F23F75A53F759058
:100EA0002A75D5FF75A60175A72075F30175CC01CC
:100EB00075A70075E34075E2021204A9E4F8F6D8BC
:100EC000FDB18E9184B1FEC2AF1203951204681277
:100ED0000491120395C2AF7555007556001204A90E
:100EE00075A91375A71075C10075A700C2247809EC
:100EF00079007A0030850CDAFBD9F9D8F71204357D
:100F0000021C00302A0E12042E1203A11203A11299
:100F100003A1C22A758851758E017589AA758C0046
:100F2000758D0075C80475910475D84075D908751C
:100F3000F781759E0775960375DB4275DA42759BDE
:100F400080759D0075D10C75BCB975BB1075E880B6
:100F500075B20112038331E275E4D530270375E4DD
:100F60005DC22875A82D75E68075B803D2AF758E61
:100F70000C755880755710755B50755EF7755FE797
:100F80007560D67564E17561EB7562CA7563A975A4
:100F9000300A120395E530602B7558C075570875F7
:100FA0005B28755EFF755FF77560EF7564E17561CD
:100FB000FB7562EB7563DA75300A120395E53060F4
:100FC00003020ED5C0D075D010AF8ED0D0D22A7506
:100FD0003700C2AF1203D7D2AFC3E532940A40F94B
:100FE000C2AF1203DDD2AFE4F541F542F55CF55D29
:100FF000F533F53BC3E53B945E4033753B00053369
:10100000789AE67814146012782814600D786414C5
:10101000600878C8146003753300C3E53398400E48
:1010200015337804C2AF1204A9120441D2AF2028AC
:1010300003120A7430250CE5317003020ED5120933
:10104000F680B11203952025ABC2AF1204A9D2AF2E
:10105000E4F522F523F53812038375E89030EDFDB1
:1010600085BD52E5BE70037552007551081205002A
:10107000755108C2AF7984874E854E4C854E4D75AB
:10108000A71075C13075A70075A903D224C3E55810
:1010900033F558C3E55B33F55BC3E55733F557E5E7
:1010A0005EC561F55EE55FC562F55FE560C563F548
:1010B0006075643CD2AFA2219212302204A2269223
:1010C00012D210D21175340075360C1209A0120913
:1010D000C112056512056C12056512056C120565D5
:1010E0001207F51208D512091C12056C1207EA1234
:1010F00004B91208D512093D12056C1207F5120841
:10110000D512095E12056C1207EA1208D512097F82
:1011100012056C1207F51208D51209A012056C759C
:10112000E8901207EA1208D51209C112050012054B
:101130006C301132301017854E4CC3E53494185082
:101140000530259C807BC210854E4C854E4D201D60
:1011500015E53614600AF536302585202282806137
:10116000C211D21C01E0753700D21B30251320229A
:101170000C79A4E76007C3E53294035044E531607D
:1011800040202209C3E54294F0503601E0201D12B0
:1011900020120520260580EC2026E9D21D854E4C24
:1011A0002107854E4CC3E5429420400EC21DA22665
:1011B0009212D211753612854E4C01E0201B0205A9
:1011C00037C2AF1204A975220075230075A91375E3
:1011D000A71075C10075A700C224D3E55813F558B0
:1011E000C3E55B13F55BC3E55713F557E55EC561D2
:1011F000F55EE55FC562F55FE560C563F560756442
:10120000E1D2AF202517C3E53794045006120395A9
:10121000021049C2AF12043AD2AF020FC4753700B0
:0E12200078A4E66006D290D292D294020FE734
:1019FD00020E6B0010CCFF33010119FF093001FFFE
:101A0D0055AAFFFFFFFFFFFF04FFFFFFFFFF285059
:0D1A1D0004FF02FFFFFF07FFFFFF0000FFB7
:101A4000235A5F485F33302320202020202020208D
:101A500023424C48454C492445464D3842323123B7
:101A6000426C75656A61792020202020202020208A
:101A7000023A042034420D00452D0D0034420D0081
:101A80004E27D300452DD019341900000000000066
:101A90000000000000000000000000000000000046
:101AA0000000000000000000000000000000000036
:101AB0000000000000000000000000000000000026
:101AC0000000000000000000000000000000000016
:101AD0000000000000000000000000000000000006
:101AE00000000000000000000000000000000000F6
:011AF000FFF6
:101C0000C2AFC2D37597DE7597AD7581C075A90057
:101C100043FF80752438752503B1DB7529A5752A26
:101C2000F143F12053A4DFD28575D4FF75E3407DE5
:101C3000FA780379E67C10752200752300901DE880
:101C40007B0675249875250130850281482085081A
:101C5000D8FBD9F9DCF781BA308508D8FBD9F9DC93
:101C6000F781BAB19BE493A3C39A6004DDC381BA40
:101C7000DBDBB18D600281317B08E493FAA3B16EA6
:101C8000DBF87A30B16E752200752300B18DEAFC65
:101C9000EBFDC3ED94FE400EB18D8A278B28ED300D
:101CA000E0048A828B83B18D7AC270D8C3ED94FE32
:101CB000601950CEBD0029EC600F7520007521FF22
:101CC000752900752A000200008100A827A92808AC
:101CD00009D804D90281DDB191EAF281D10D81A642
:101CE000C3ED94035051EDA2E092007AC5C3E582A2
:101CF0009400E583941C508C200010438F02438F86
:101D0000018529B7852AB7F0300027A827A9280818
:101D100009438F01538FFDD804D902A132C3E58353
:101D2000941C4003A3A117E28529B7852AB7F0A325
:101D3000A117538FFC81827AC1BD030CE493A3FAEF
:101D4000B152DCF8B14A81828184AA22AB23B16E00
:101D5000EBFAEA6222752608C3E52313F523E52290
:101D600013F52250066323A0632201D526EAB1DBD6
:101D7000B1DB75260AEAF4200102D285300102C2E5
:101D800085B1DBC3134002C201D526EB22B191EA33
:101D9000FB208502A191308502A196752608AE240C
:101DA000AF25C3EF13FFEE13FEB1DFB1DBC3EA13C0
:101DB0003085024480FA30E703632201C3E5231330
:101DC000F523E52213F52250066323A0632201D5F3
:101DD00026D9E52265236523F52222AE24AF250E00
:101DE0000FDEFEDFFCD20122424C48656C693437BD
:061DF0003164E8B20601B7
:00000001FF
