:020000040800F2
:10000000F0FF012085FE050861E40008D99104088D
:10001000FDFE0508FDFE0508FDFE050800000000C8
:100020000000000000000000000000005DE4000887
:1000300059E400080000000055E40008B954040821
:10004000FDFE0508FDFE0508FDFE0508FDFE050890
:10005000FDFE0508FDFE0508C9A7040891A70408D0
:1000600059A7040821A70408E9A604086DC50508D6
:100070005DC505084DC505083DC5050829C5050828
:1000800015C5050801C50508FDFE050800000000AE
:10009000000000000000000000000000B1A60408FD
:1000A000193B0408693B0408093B0408913B040818
:1000B000593B0408493B0408393B0408FDFE050888
:1000C000FDFE0508FDFE0508FDFE0508FDFE050810
:1000D000FDFE0508D95504081D5504080000000060
:1000E00079A60408FDFE0508CD0B010800000000FC
:1000F000000000000000000000000000EDC4050842
:1001000000000000FDFE0508293B0408FDFE05086F
:1001100000000000000000000000000000000000DF
:10012000D9C40508C5C40508B1C405089DC405089F
:1001300089C4050800000000000000000000000065
:100140000000000000000000000000003904010869
:1001500075C4050861C405084DC40508FDFE050801
:10016000FDFE0508FDFE050800000000000000007F
:10017000000000000000000000000000000000007F
:1001800000000000FDFE0508000000000000000067
:08019000FDFE0508FDFE050857
:0801980024FA0500010000003B
:1001A000220201001C01000058540020886D00202C
:1001B00000000000B5460508846D00201302010010
:1001C00004000000DC2B0020A86E002000000000CE
:1001D000B42C0708A46E0020031101000A000000DF
:1001E000C82C0020B06E0020000000008D10010817
:1001F000AC6E00200D10010028000000545E0020AD
:10020000C06E0020000000005FC80308BC6E002024
:100210000902010001000000CC6C0020EC6E0020FF
:1002200000000000B82C0708E86E0020FD01010066
:100230001E000000DC5D0020F46E002000000000C5
:10024000F3250408F06E0020FB010100010000000E
:10025000EC580020186F0020000000006D470508D2
:10026000146F0020FC01010009000000B8570020B5
:10027000206F0020000000007D4705081C6F002053
:10028000F701010006000000AC570020306F00208D
:1002900000000000BA2C07082C6F0020F9010100B3
:1002A00004000000A85700203C6F00200000000060
:1002B000A9260408386F0020160215003F00000030
:1002C000EC300020446F002000000000FD460508CF
:1002D000406F00203400010010000000D8560020BC
:1002E000886F00200000000059430208846F00203E
:1002F0001102010008000000B05600209C6F002091
:1003000000000000C02C0708986F002012120100A6
:1003100004000000A8560020A86F00200000000084
:10032000C82C0708A46F0020183001003800000016
:1003300070560020B06F0020000000001D48050826
:10034000AC6F0020000201000B000000B855002037
:10035000EC6F002000000000B53E0508E86F0020AB
:10036000FA010100030000004C4D0020FC6F00204A
:1003700000000000993E0508F86F00202A020100E5
:10038000080000009C4100200470002000000000D4
:10039000CC2C07080070002020520100080000004B
:1003A000F83F00201070002000000000D932020841
:1003B0000C7000200610010024000000083000200E
:1003C0001C700020000000009947050818700020EC
:1003D0000C02010004000000B0380020447000202E
:1003E00000000000813E050840700020FE01010071
:1003F00014000000386400204C7000200000000051
:10040000153F05084870002037100100300000003B
:10041000D4AE002084B1002000000000D42C0708D6
:1004200080B100200E0201000200000058A200204E
:10043000B8B1002000000000042D0708B4B100206E
:10044000161001000600000050A20020C0B10020DC
:1004500000000000062D0708BCB100202F1001008D
:10046000220000005CB10020CCB1002000000000A0
:100470000C2D0708C8B10020232201001000000045
:1004800098A10020F4B1002000000000302D0708E2
:10049000F0B100201E0001000900000080A1002032
:1004A00008B2002000000000402D070804B2002020
:1004B000052001000C00000030A2002018B200202E
:1004C000000000004C2D070814B20020FD070100B9
:1004D0007C000000369C002028B2002000000000B4
:1004E0007115010824B20020F59101006C00000094
:1004F000049D0020A8B2002000000000353401084F
:10050000A4B20020232001001000000036AE00201D
:1005100018B30020000000002911020814B30020C5
:10052000123001001000000068A100202CB3002050
:1005300000000000582D070828B300200B300100F0
:100540001A0000001C9C002070B300200000000076
:10055000682D07086CB300201F5001002400000024
:10056000C49D002090B3002000000000842D0708E7
:100570008CB300200502010004000000A4A20020AA
:10058000B8B3002000000000A82D0708B4B3002075
:10059000012001000C000000E0BB002018C5002075
:1005A00000000000AC2D070814C500200C40060018
:1005B000E400000004BA002028C50020000000006C
:1005C0004156030824C500200A90010024000000C1
:1005D000C0B9002010C6002000000000E110020891
:1005E0000CC600200E300300BC010000FCB7002048
:1005F00038C60020000000000198020834C6002020
:100600001310010004000000A8C40020F8C7002057
:1006100000000000B82D0708F4C700200101010008
:100620000400000034B7002000C8002000000000D3
:1006300000000000FCC700200001010004000000D1
:100640002CB7002008C8002000000000BC2D0708BF
:1006500004C80020020101000300000028B70020A8
:1006600010C8002000000000815603080CC80020BC
:10067000010201000B00000040B7002018C8002054
:1006800000000000A53E050814C800200202010079
:100690000300000068BC002028C800200000000003
:1006A0000000000024C800201B0201001000000010
:1006B00038BC002030C80020000000005D3E050866
:1006C0002CC800201B2001000C0000004CB50020AD
:1006D00044C80020000000000D9E010840C8002012
:1006E00021020100F0000000CCB3002054C800201B
:1006F00000000000F99C010850C8002015001000FF
:100700007000000094E8002020E9002000000000B4
:10071000000000001CE900202A0008006000000022
:10072000A4E7002094E9002000000000B132020894
:1007300090E900202C0004001000000008EA0020CE
:10074000F8E900200000000079300208F4E90020F8
:10075000292014007800000098E400201CEA002002
:10076000000000000000000018EA00201A0001004C
:100770000E000000F0E3002098EA002000000000D6
:10078000C02D070894EA00202B001200240000006E
:10079000CCE30020ACEA0020000000004D3002084D
:1007A000A8EA0020190201001000000068E3002000
:1007B000D4EA002000000000413E0508D0EA0020F5
:1007C000F62101000C0000004CE20020E8EA0020C5
:1007D00000000000D02D0708E4EA00201C020200FF
:1007E0001C00000064E200203CEB00200000000040
:1007F000C948050838EB002014000100050000007E
:1008000010E200205CEB002000000000DC2D070857
:1008100058EB0020F83101000600000024EE002013
:1008200060F1002000000000E22D07085CF10020CC
:10083000030001000100000034EE00206CF10020F4
:10084000000000000000000068F10020101001000E
:100850000200000020F1002074F1002000000000E0
:10086000E82D070870F100201900010005000000C4
:10087000A8ED00207CF1002000000000EA2D070810
:1008800078F100202902010040000000C0F30020A0
:1008900074F9002000000000F02D070870F9002016
:1008A0002D0201000100000070F60020B8F90020C0
:1008B0000000000000000000B4F900202C0201003C
:1008C000040000006CF60020C0F9002000000000C9
:1008D000302E0708BCF900200A02010014000000B5
:1008E00018F50020E8F9002000000000A5600308CA
:1008F000E4F9002025201E002C0100008CF60020C9
:1009000000FA00200000000000000000FCF90020B8
:10091000031201003D00000024F9002030FB0020FC
:1009200000000000342E07082CFB0020020001000C
:100930000C00000098FB002030FC002000000000AC
:10094000000000002CFC00200400080080000000D3
:100950004C040120CC040120000000000000000035
:1009600050060120081203000F0000003C04012083
:100970005806012000000000BD3E05085406012075
:100980002802040004000000A80301206C060120D6
:10099000000000007D3E05086806012027020400D3
:1009A00004000000A40301207406012000000000E0
:1009B000713E0508700601201F02080010000000AB
:1009C000E00001207C06012000000000213E050817
:1009D000780601201A0201003C00000084FC00207F
:1009E0009006012000000000554905088C060120F2
:1009F000382001000300000048FC0020D006012040
:100A000000000000722E0708CC060120270001001C
:100A100004000000FC060120600701200000000027
:100A2000762E07085C0701202B0201000C00000055
:100A30008808012070140120000000007A2E0708A9
:100A40006C1401201D020200060000005814012051
:100A50008414012000000000000000008014012028
:100A60001002010001000000644F0120604F0120CE
:0C0A700000000000862E07085C4F0120EB
:100A7C000403090412010002EF0201408304563200
:100A8C0000020102030100001201000202020040F8
:100A9C0083044057000201020301000009022000F8
:100AAC00010104C0320904000002080650050705C4
:100ABC0081024000000705010240000009026400A9
:100ACC00030100C0320904000001030000000921E9
:100ADC00110100012236000705830309000A080BE7
:100AEC0001020202010009040100010202010005D9
:100AFC00240010010524010002042402020524062E
:100B0C000102070582030800FF09040200020A0023
:100B1C0000000705010240000007058102400000AB
:100B2C0009024300020100C0320904000001020264
:100B3C000100052400100105240100010424020217
:100B4C000524060001070582030800FF09040100C3
:100B5C00020A00000007050102400000070581029F
:100B6C0040000000FF000000011400FF0000000026
:100B7C000000000001010000242306082D202D2D6B
:100B8C00202D2D2D2D202D2D2D2D000000000000B1
:100B9C0000000000000000000000002D202D2D2082
:100BAC002D2D2D2D202D2D2D2D00000000000000B1
:100BBC000000000000000000000008AA550501001C
:100BCC0000AA5505010000AA55070100000000000D
:100BDC007D000000AD830008A9830008A5830008F0
:100BEC009983000895830008A18300089D83000861
:100BFC00FFFFFFFFFF0100000000803F050109051A
:100C0C00A101A10005010930093109320933093567
:100C1C000934093609371581257F75089508810235
:100C2C00050919012908150025019508750181028E
:100C3C00C0C0000009022200010100E032090400DA
:100C4C0000010301020009211101000122360007F5
:100C5C0005830309000A0000006002401060024096
:100C6C00000000000000000000000000000B00006D
:100C7C0000000000000000000000000000600240C6
:100C8C00286002400100000000000000000000008D
:100C9C00060C000000000000000000000000000036
:100CAC0000600240406002400200000000000000B2
:100CBC0000000000100D000000000000000000000B
:100CCC000000000000600240586002400300000079
:100CDC000000000000000000160E000000000000E4
:100CEC000000000000000000006002407060024044
:100CFC00040000000000000000000000200F0000B5
:100D0C000000000000000000000000000060024035
:100D1C008860024005000000000000000000000098
:100D2C002610000000000000000000000000000081
:100D3C0000600240A06002400600000000000000BD
:100D4C000000000030110000000000000000000056
:100D5C000000000000600240B86002400700000084
:100D6C000000000000000000362F00000000000012
:100D7C00000000000000000000640240106402400B
:100D8C00000000000000000000000000003800001F
:100D9C0000000000000000000000000000640240A1
:100DAC002864024001000000000000000000000068
:100DBC0006390000000000000000000000000000E8
:100DCC000064024040640240020000000000000089
:100DDC0000000000103A00000000000000000000BD
:100DEC000000000000640240586402400300000050
:100DFC000000000000000000163B00000000000096
:100E0C00000000000000000000640240706402401A
:100E1C00040000000000000000000000203C000066
:100E2C000000000000000000000000000064024010
:100E3C008864024005000000000000000000000073
:100E4C00264400000000000000000000000000002C
:100E5C0000640240A0640240060000000000000094
:100E6C000000000030450000000000000000000001
:100E7C000000000000640240B8640240070000005B
:100E8C0000000000000000003646000000000000DA
:100E9C00000000000000000000000000010203043C
:100EAC00010203040607080975EE00084DF6000858
:100EBC00C5F10008A9840008F5860008B98400086B
:100ECC00D5840008818400087184000800000000AB
:100EDC000000000001010000FF1FFF1F7EFF00004B
:100EEC00FFFFFFFFAA550B010000AA5509020000E5
:100EFC0000AA5503009F000001000000C012000072
:100F0C0064B30020000000003CB30020000000008F
:100F1C000101000000000100E00101FF01000000E0
:100F2C003D9201080000000000000000EC290608BA
:100F3C0008FF00000000000000000000000000009E
:100F4C007C410608000000000000000000000000CA
:100F5C003442060800000000000000000000000001
:100F6C00E041060800000000000000005DAE010832
:100F7C0002BF00200101FF00FFFFFFFF39EE010857
:100F8C000000000000000000C04306085D9400084B
:100F9C00000000000000000034430608B1F1010815
:100FAC000000000000000000EC4206082D202D2D52
:100FBC00202D2D2D2D202D2D2D00000000000000AA
:100FCC00000000000000000000000000FFFFFFFF19
:100FDC00C9B8010800000000000000000C41060820
:100FEC0001000000FA0000000100000001000000F8
:100FFC004ABB00200000F4010100000048BB0020A7
:10100C000000F4010100000046BB00200000F401C8
:10101C000100000044BB00200000F40101000000AE
:10102C0042BB00200000F4010100000040BB002086
:10103C000000F401010000003EBB00200000F401A0
:10104C00010000000D9B0108D19A0108000000006E
:10105C00A82B06082EBB0020053201003CBB00204B
:10106C006400F401010000003ABB00206400C409D4
:10107C00010000002CBB0020E803D0070100000099
:10108C002ABB0020E803D0070100000028BB002089
:10109C00E803D0070100000026BB00201E00B80B9F
:1010AC000100000034BB002005000F00010000000F
:1010BC0036BB002003000A000100000024BB002006
:1010CC001E00F4010100000038BB002002000000EB
:1010DC00342C060822BB0020140064000100000020
:1010EC0030BB00203200E8030100000020BB0020D0
:1010FC000000C8000100000001BA002000C8010077
:10110C0000BA002000500100FFB90020005A010075
:10111C00FDB90020020000009C2B0608A0A70608C1
:10112C00A8A7060800BF00200100C40900000000A9
:10113C00FEBE00200100C40900000000FCBE00201F
:10114C000100C40900000000FABE00200100C4091F
:10115C0000000000F6BE00200100C40900000000E1
:10116C00F8BE00200100C40900000000F4BE0020FD
:10117C000100C40900000000F2BE00200100C409F7
:10118C000000000061B7002000C8010060B700201B
:10119C0000C801005EB700200000FFFF0A0000003D
:1011AC005CB700200100C800010000005AB7002005
:1011BC00320030753200000058B700207EFF14005A
:1011CC000500000056B7002005002C0105000000AA
:1011DC0054B70020055A050051B7002000FF01004C
:1011EC0053B7002002000000440800204FB7002035
:1011FC00030000000424060850B7002000FF010083
:10120C0052B7002002000000440800204EB7002016
:10121C000300000004240608F0B60020FF7F010044
:10122C00ECB6002000000000FFFFFFFF01000000F3
:10123C00E8B6002000000000FFFFFFFF01000000E7
:10124C00E4B6002000000000FFFFFFFF01000000DB
:10125C00619A0108F199010800000000842C06082D
:10126C00F0BB0020EE02CA0801000000EEBB00201B
:10127C0000C8010064000000EDBB002002C80100A2
:10128C0064000000ECBB002002000000402C0608AB
:10129C003AB700200000803E0500000038B700205F
:1012AC0080C1803E0500000032B700200083007D25
:1012BC000500000030B7002080C1803E0500000012
:1012CC002BB7002000FF010026B700206400F401BA
:1012DC000100000024B700206400F40101000000AC
:1012EC0022B700206400F4010100000020B70020A8
:1012FC0004000000902D06081FB70020020000001B
:10130C00A42D0608EDB700200D000000B02D060836
:10131C00EAB7002000640100E8B700203200102773
:10132C000A000000E6B700200D000000B02D0608F2
:10133C00E5B700200D000000B02D0608E4B7002032
:10134C00020000004C2C0608000000000000000009
:10135C0000000000E82D0608F5BB00204700000047
:10136C00202E0608F3BB002003000000402F0608C7
:10137C00F4BB002004000000582C0608EFB7002036
:10138C0003000000502F0608EEB7002003000000F9
:10139C00502F0608EEB90020000A0100ECB900201D
:1013AC000000E80301000000EAB900200000E80397
:1013BC0001000000E8B90020000A0100E6B9002095
:1013CC000000E80301000000E4B900200000E8037D
:1013DC0001000000B8B90020C800E80301000000BB
:1013EC00BEB900203C00FA0001000000BCB900208E
:1013FC000100E80301000000BAB90020000501005B
:10140C00FCB90020020000006C2C0608FAB9002080
:10141C000000F40101000000F8B900200000F40104
:10142C0001000000F6B900200000F40101000000EA
:10143C00F4B900200000F40101000000F2B9002012
:10144C000000E80301000000F0B900200000E803F0
:10145C00010000000EBB0020006401000A00000027
:10146C000DBB0020006401000A000000FBBA002044
:10147C0019640100FABA002002000000782C06085A
:10148C00F8BA0020E803D0070A000000F6BA0020E2
:10149C00006401000A000000EBBA002000640100A7
:1014AC00EABA002000640100F2BA002000640100D6
:1014BC000A000000F1BA0020006401000A000000DC
:1014CC00F0BA0020006401000A000000F5BA002008
:1014DC0000FF01000A000000F4BA002000FF010028
:1014EC000A000000F3BA002000FF01000A0000000F
:1014FC00EFBA002001FF01000A000000EEBA002044
:10150C0001FF01000A000000EDBA002001FF0100FC
:10151C000A000000F8B700200000F40101000000F0
:10152C00F6B700200000E80301000000F4B700202B
:10153C000000E80301000000F2B700200000E803FF
:10154C0001000000F0B700200000E80301000000DB
:10155C0053BF0020009601004ABF002000C80100C4
:10156C0049BF00200064010048BF00200064010056
:10157C0047BF00200064010046BF0020006401004A
:10158C0045BF0020FF08010044BF0020016401009A
:10159C00E1980108A598010800000000602F0608DA
:1015AC004DBF0020013201004CBF002001000000A3
:1015BC00D02F06084BBF002004000000D82F0608CF
:1015CC0043BF00200096010042BF002000640100D0
:1015DC0040BF00201400E803010000003EBF0020C3
:1015EC00000030750A0000003CBF002000C801005C
:1015FC003BBF002000C801003ABF002000C801001A
:10160C0050BF00200032010052BF00200014010026
:10161C0051BF0020004B01004FBF00200400000010
:10162C00EC2F06084EBF0020006401000A000000E9
:10163C001ABB00200AC805000A00000019BB0020D4
:10164C0001000000FC2F06081CBB00200AC8050086
:10165C000A0000001BBB002001000000FC2F060844
:10166C0011BB002000C805000A00000018BB0020B8
:10167C0000C805000A00000012BB002000C80500CD
:10168C000A00000013BB002000C805000A0000007F
:10169C0016BB002000C805000A00000017BB002084
:1016AC0000C805000A00000015BB002000C805009A
:1016BC000A00000014BB002000C805000A0000004E
:1016CC0010BB0020020000000430060862BF00209E
:1016DC000000D007010000005CBF002000C8010022
:1016EC005BBF002000C801005ABF002000C80100E9
:1016FC0060BF00200000D0070100000059BF00208F
:10170C0000C8010058BF002000C8010057BF0020CE
:10171C0000C801005EBF00200000D00701000000DF
:10172C0056BF002000C8010055BF002000C80100B2
:10173C0054BF002000C80100E0B8060800000000FB
:10174C000000F8C40020ECB80608070800000000F0
:10175C00580E0020F4B80608070800000000500ED0
:10176C000020FCB80608070800000000480E002006
:10177C0004B906080808000000003C0E0020C4A2B2
:10178C000608070800000000340E0020CCA2060852
:10179C000708000000002C0E0020D4A20608070841
:1017AC0000000000240E002080A30608080800009A
:1017BC000000180E00200CB90608071000000000ED
:1017CC00100E002014B90608071000000000080EC7
:1017DC0000201CB90608071000000000000E0020B5
:1017EC0024B90608081000000000F40D002008A71A
:1017FC0006080100000000000000000000000000CE
:10180C0010000000000000000000000069960108B4
:10181C004D960108A5B8010810300608E1B7002064
:10182C00005A0100E0B7002000C80100DEB700201C
:10183C00E803D007010000000000000000000000D9
:10184C009DAE0108AC3006084DB700200300000027
:10185C00F43006084CB70020000301004BB7002001
:10186C0000030100899501083D9501080000000066
:10187C0004310608FD940108B5940108000000002D
:10188C00A0310608D595010889B8010800000000B0
:10189C00203206083CB70020010301000192010828
:1018AC00D99101080000000094350608CD9B010871
:1018BC00A19B0108000000001436060825940108BD
:1018CC00CD930108000000008436060879960108C3
:1018DC0019FC0108000000003C37060881BD010816
:1018EC00F99B010800000000E4370608D5960108B2
:1018FC00000000000000000080380608B9970108BD
:10190C005997010800000000E438060861980108A6
:10191C001D980108000000009C390608490F0208B8
:10192C001D99010800000000283A06081EBB002083
:10193C00010601001D970108E9960108000000004E
:10194C00403B0608650E020851BA01080000000071
:10195C00B03B06084D99010871BB0108000000005E
:10196C002C3D06088D0F020831BB01080000000059
:10197C00600E00201DBB0020010301001D96010814
:10198C00ED95010800000000383E060829B8010852
:10199C0000000000000000009C3E06087D94010839
:1019AC0071B8010800000000383F06080000000074
:1019BC000000000000000000D43F0608C99901088F
:1019CC00BDBC0108000000005440060800000000E7
:1019DC0000000000000000007C420608E8320020F5
:1019EC00E0150C1700000000F0320020020000008F
:1019FC00784606080000000000000000000000000F
:101A0C00B4420608B43300209CFF2C0100000000F7
:101A1C0020C40020E0150C170000000029C4002091
:101A2C0002000000784606081AB7002088136F17CA
:101A3C00010000001CB7002088136F170000000085
:101A4C00C26200200000000000000000C062002004
:101A5C000000000000000000BE620020000000003A
:101A6C0000000000BC62002000000000000000002C
:101A7C00BA6200200000000000000000B8620020E4
:101A8C000000000000000000240600200000000000
:101A9C0000000000F1B60020030000005C440608C2
:101AAC0018B7002088136F17010000009AA20020BD
:101ABC0088136F17000000000D9301080000000050
:101ACC00000000006C440608BDBE002001000000B0
:101ADC00C04406089CA2002001000000CC4406086B
:101AEC0092A2002002000000D4440608000000006E
:101AFC000000000000000000E0440608F592010818
:101B0C0000000000000000007C45060800000000FA
:101B1C000000000000000000D04506080000000096
:101B2C000000000000000000404606081EB7002020
:101B3C00020000007846060896A20020E0150C175B
:101B4C000000000068DB0020BCDB002001F11F3F1F
:101B5C00D60101010001010100FF0000AD2E0208B9
:101B6C0060800020FFFFFFFF0000803F00000000AE
:101B7C000000000000000000000000000000000059
:101B8C000000000000000000000000000000000049
:101B9C000000803F0000000000000000000000007A
:101BAC000000803F0000000000000000000000006A
:101BBC000000803F0000000000000000000000005A
:101BCC00010000000000FA430000FA430000803FCF
:101BDC0025E90308000000000000000000000000E0
:101BEC0060FECD0000000000D4F9002008000000C9
:101BFC0000000000C4F9002008000000FFFFFFFFF8
:101C0C00FF000000158B000805860008A5F10008F0
:101C1C00000000006D84000841EE0008C98A00082D
:101C2C00B5ED000800000000000000002984000849
:101C3C00BD830008B183000805E5000821E5000814
:101C4C00E9E40008CDE40008B1E40008CD8A0008FE
:101C5C00E1850008F1F00008000000004184000854
:101C6C00B9ED00089D8A000811ED00080000000085
:101C7C000000000035840008DCCD060820A406080E
:101C8C000000000009570308A086010004000000B2
:101C9C00DCCD0608E4CD060800000000552404083D
:101CAC00E803000004000000B8AD060800000000C6
:101CBC0000000000895803087D000000FF000000B0
:101CCC00B4AB060800000000000000001566030815
:101CDC007D000000FF000000E8B0060800000000D6
:101CEC0000000000051803087D000000FF00000044
:101CFC0050AE060800000000000000002128040877
:101D0C00E803000003000000ECCD06080000000012
:101D1C0000000000D1FB02081027000003000000A7
:101D2C0050D7060800000000BD2E02083D920408A2
:101D3C005F7600000500000004DB060800000000D0
:101D4C000000000005C0040810270000020000007D
:101D5C00F8CD06080000000000000000592404081B
:101D6C00E80300000500000004CE06080000000097
:101D7C0000000000F9620308204E00000300000080
:101D8C0014CE06080000000000000000E16003080B
:101D9C00204E00000300000024CE060800000000C6
:101DAC0000000000652D0408400D03000300000036
:101DBC0050CC06080000000000000000A1E603085B
:101DCC00102700000200000048A4060800000000D4
:101DDC0000000000A5D0010810270000030000003F
:101DEC0008AA06080000000000000000E922040810
:101DFC00A8610000020000006CCC06080000000086
:101E0C0000000000B15B0408A00F000002000000FD
:101E1C0034CE0608000000000000000031F7010875
:101E2C001027000002000000F4BA060800000000B1
:101E3C0025150108597701088545010002000000AD
:101E4C00C8A906080000000000000000BD10010831
:101E5C00102700000200000034A406080000000057
:101E6C00000000005105020850C3000002000000F1
:101E7C0040CE06080000000000000000911601088A
:101E8C00400D03000100000048CE060800000000D1
:101E9C000000000001C70308400D03000200000011
:101EAC0050CE06080000000000000000DDDF010835
:101EBC0050C30000030000005CCE060800000000C8
:101ECC00000000007D90030840420F00010000005C
:101EDC0068CE0608000000000000000071C903086D
:101EEC0050C300000100000074CE06080000000082
:101EFC000000000021600108102700000200000013
:101F0C00A1C8030800000000000000000000000051
:101F1C00D5220408000000000000000000000000B2
:101F2C0001000000A00F0000B80B00000102FFFF31
:101F3C00010000002CD7060800000802050303006E
:101F4C000000000038D70608010008020504030051
:101F5C000000000044D70608000008020503030037
:101F6C00000000004CD7060801000802050403001D
:101F7C0000000000C0CB06080200FE0101100300A7
:101F8C0000000000FCAA0608030014020003000075
:101F9C000000000054D7060804001F0202000800CD
:101FAC00000000005CD7060805001F0202010800B3
:101FBC0000000000FFFF0000FFFFFFFF1A030000FE
:101FCC000000000000000000000000000000000005
:101FDC0000000000000000000403090412010002CC
:101FEC00000000408304205700020102030101019C
:101FFC0000010000204E0000000000000000000066
:10200C000200000000000000FC1A00207C140120DB
:10201C00020000000100000095400508F81A00209D
:10202C00000000000100000001000000D140050884
:10203C002817002000000000000000000000000035
:10204C000000000000000000000000000000000084
:10205C000100000000000000000000000000000073
:10206C000000000001000000000000000000000063
:10207C000000000000000000010000000000000053
:10208C00D800000000000000050000000600000061
:10209C0005000000E14905084D3F0508493F0508CA
:1020AC00453F0508654B0508413F05083D3F0508C0
:1020BC00A8980608A18B0008C18500080DEF000840
:1020CC000000000000000000E9EC000805EC00082E
:1020DC000000000000000000000000001D8400084B
:1020EC00E53F0508D93F050885500508A1500508AE
:1020FC00913F0508695005084D5005080300000084
:10210C000000000005000000F41A00200000000090
:10211C0004000000000000007157050800000000DA
:10212C0000000000000000000100000000000000A2
:10213C00F01A002000000000020000000000000067
:10214C00000000000000000000000000080000007B
:10215C0001000000C156050800000000000000004E
:10216C0000000000010000000000000086000000DC
:10217C009418002000000000040000000000000083
:10218C00A15805080000000000000000000000003D
:10219C000100000000000000DC1A00206014012087
:1021AC0004000000000000001557050800000000A6
:1021BC000000000000000000010000000000000012
:1021CC00EC1A0020000000000400000000000000D9
:1021DC00715705080000000000000000000000001E
:1021EC000100000000000000E81A00206814012023
:1021FC000400000000000000AD5C050800000000B9
:10220C0000000000000000000100000000000000C1
:10221C001B00000038190020000000000300000023
:10222C0000000000000000000000000000000000A2
:10223C000800000001000000D15605080000000055
:10224C000000000000000000010000000000000081
:10225C00E41A0020641401200400000000000000B7
:10226C00E15605080000000000000000000000001E
:10227C000100000000000000E01A00200000000037
:10228C000400000000000000715705080000000069
:10229C000000000000000000010000000000000031
:1022AC0097000000C8190020000000000300000087
:1022BC0000000000055705080000000000000000A9
:1022CC00000000000100000000000000010101FFFF
:1022DC001F0000001C0000001F0000001E0000007A
:1022EC001F0000001E0000001F0000001F00000067
:1022FC001E0000001F0000001E0000001F00000058
:10230C000068214C0009185006000000D00700009E
:10231C0002040C000107186007000000A00F000069
:10232C0003040E0002051870070000000A1A0000D2
:10233C0004040C000302188007000000204E00006B
:10234C0005020C00000997FF8106C409C4090300AB
:10235C008813010794FFE40CB80BC409060088131A
:10236C00020590FFEF16AC0DC4090A008813030296
:10237C008DFF2E2AA00FC409000088130000000056
:10238C000000000000000000010000000000000040
:10239C000000000000000000000000000100000030
:1023AC0000000000F401000001000000CC980608B9
:1023BC0000990608150000008200FFFF17000000BE
:1023CC001D0000008200FFFF1A0000008300FFFFC9
:1023DC000600000005000000FF000000A400000043
:1023EC0000000000000000000000040100000200DA
:1023FC0001000002100000000700000000000000B7
:10240C00000000000102030406070809C7000000D1
:10241C000500000006FF0000441B00200000000027
:10242C0000000000000000000000000000000000A0
:10243C000000000000000000000000000000000090
:10244C000000000000000000000000000000000080
:10245C000000000000000000000000000000000070
:10246C000000000000000000000000000000000060
:0C247C0000000000000000000000000054
:082800000000000000000000D0
:10800000134B0268196821EA02011960596821EAD4
:108010000201596019680A431A609968026821EAE6
:1080200002019960D96821EA0201D96041791029D9
:1080300007D001F1804303F59E3319680A431A60A3
:108040007047996811439960D9680A43DA607047AC
:10805000003C01402DE9F04700230F6801264FF056
:10806000030C02E00133102B41D006FA03F232EA8E
:108070000704F7D1D0F800E05C000CFA04F52EEA12
:10808000050EC0F800E091F80490D0F800A009FABD
:1080900004FE09F1FF394EEA0A0EB9F1010FA846B4
:1080A000C0F800E06FEA050515D8D0F808E005EA49
:1080B0000E0585604D79D0F808E0A54045EA0E052B
:1080C0008560456825EA020242608A7945689A40DF
:1080D00092B22A434260C26822EA0802C260CA79A8
:1080E000C568A24001332A43102BC260BDD1BDE850
:1080F000F08700BF074AD2E9003199421FBFD1186B
:108100000133097A01701DBFC3F30A030120136014
:1081100000207047A81B0020064BD3F80C08D3F8AA
:108120000828D3F80838824298BF03F50063181A6C
:10813000704700BFA81B0020012380F85130704712
:1081400007B501A8FFF7D6FF0028FAD09DF8040074
:1081500003B05DF804FB044BD3E90003984288BFE9
:1081600003F50063181A7047A81B00200120704710
:10817000024BC3F81028C3F814187047A81B00203E
:10818000024BC3F81828C3F81C187047A81B00201E
:108190007047704730B4124DD5E900239A4286BF2C
:1081A00003F50064A21A9A1A0A44B2F5006F11D8B6
:1081B00099B101444A1E013810F8014FE918824272
:1081C00003F101030C72C3F30A03F5D16B600020C5
:1081D00030BC7047022030BC70470846F8E700BF4B
:1081E000A81B002041B370B5144C0144D4F80C38DE
:1081F0004E1E451E1A4604E001203DF0B9F8D4F8A1
:108200000C28D4F80818531CC3F30A038B42F3D08C
:10821000D4F80818B1F5006FEED094F820180029B2
:10822000EAD115F8011FC4F80C382244B54282F88F
:108230002418DFD1002070BD00207047A81B00204B
:1082400010B5094C54F8D43C084611465BB154F8BB
:10825000D43C052B07D1002A54F8D03C03DDFFF7AE
:10826000C1FF54F8D03C10BDA02C002010B590F8F0
:108270005010002380F8503081B10B4C54F8D42CAE
:1082800072B154F8D42C052A0CD13C3054F8D03CAF
:10829000FFF7A8FF54F8D03C012010BD0120FCE7F7
:1082A0001046FAE71846F8E7A02C0020002280F8D4
:1082B0005120DBE790F85020531C0244DBB280F8D9
:1082C000503082F83C1090F851200AB1132B00D99D
:1082D000CCE77047212838B50C4605D022282FD08E
:1082E000202813D0002038BD0029FBD0072AF9D15F
:1082F0001A4B53F8CC0C13F8C81C13F8C72C13F8FE
:10830000C63C206021716271A371EBE70029E9D0BE
:10831000072AE7D1124AD2F814381BB1D2F8100854
:10832000096898470D4B256820796179A27943F84F
:10833000CC5C03F8C80C03F8C71C03F8C62CD1E7C3
:108340000029CFD0022ACDD1054AD2F81C38002B03
:10835000C8D00988D2F818089847C3E7A02C002095
:10836000A81B0020024B002043F8D40C704700BF2C
:10837000A02C0020054B064A0020052142F8D41C01
:10838000C3F81C08C3F81408704700BFA81B0020DE
:10839000A02C0020704700BF704700BF704700BF8F
:1083A000704700BF704700BF704700BF704700BFF5
:1083B000042301480B8070479801002010B4074A3D
:1083C000074B12F8C40C122403F114020C8001288C
:1083D0000CBF184610465DF8044B7047A02C0020D7
:1083E0009C01002010B40C4A12F8C03C02EBC301FF
:1083F0000133DBB2042B4FF0050408BF00234FF418
:10840000045001F8BC4C02F8C03C41F8B80C5DF8CF
:10841000044B4FF0FF307047A02C00202023014870
:108420000B807047C4010020642301480B80704713
:10843000E4010020432301480B80704748020020DC
:1084400010B5084CD4F8F400FF2808D0064951F8BC
:108450009C2C9839FFF73EFFFF23C4F8F43000202E
:1084600010BD00BF98010020A02C0020E8E700BF4D
:1084700008B5D0F8E4355B6A9847002008BD00BF16
:1084800008B5D0F8E4351B6A9847002008BD00BF46
:10849000D0F8E43510B504461B689847D4F8E835A1
:1084A0009B689847002010BD08B5D0F8E435DB691B
:1084B00003B19847002008BD08B5042290F81211B6
:1084C000D0F8E83580F8131180F81221DB6898475E
:1084D000002008BD10B5D0F8E83504461B69984760
:1084E000032384F81231002010BD00BF0B0617D4FF
:1084F00001EB810300EBC30310B400EB8100012406
:10850000002283F8764383F8741383F87523426D51
:108510005DF8044B136843F40013002013607047A8
:1085200001F07F0101EB810300EBC303012200EBAB
:10853000810083F81C1183F81E2183F81D218269B4
:108540001368002B01DA43F0804343F400131360F7
:10855000002070470B0630B41CD401EB810200EB05
:10856000C202002300EB810582F8741382F8753390
:1085700001241A4604FA01F16D6D61F31F4201698D
:108580006FF3CF332B60CB6923EA0203002030BCAA
:10859000CB61704701F07F0101EB810400EBC40463
:1085A000012200EB8105002384F81C1184F81D21B1
:1085B00002FA01F11A46AD6961F30F02DFE700BF6D
:1085C00010B581210446FFF7C5FF20460121FFF7C2
:1085D000C1FF024B002003F8900C10BDA02C00201E
:1085E00010B581210446FFF7B5FF20460121FFF7B2
:1085F000B1FF82212046FFF7ADFFFFF7B3FE002059
:1086000010BD00BF38B50D4604468321FFF7A2FF19
:1086100029462046FFF7E4FF002038BDF0B4164697
:108620000A063AD401EB810500EBC5052824002297
:1086300004FB0104022B85F87413C5F87C6385F8EC
:10864000773385F8752304F55D7448D0154600EB43
:108650008107012202FA01F17F6D61F31F45D7F80E
:1086600000C01CF4004F11D1E488204946F080522C
:1086700042F4004242EA834204F00F041C4B42EAF7
:10868000845211400CEA0303194339600269D3692B
:108690002B430020F0BCD361704701F07F0101EB58
:1086A000810500EBC5052824012204FB0104022BEF
:1086B00085F81C11C5F8246185F81F31A5F8221131
:1086C00085F81D2104F58E740CD0002500EB810780
:1086D000012202FA01F1BF6961F30F05BFE72271C0
:1086E0001546B4E700252571F0E700BFFF87CC13DE
:1086F000007833EC002310B5194604464022FFF7FA
:108700008DFF8021204600234022FFF787FFD4F809
:10871000E835A078012284F812215B689847002090
:1087200010BD00BF82B00023016801930B69019363
:108730000E4B03E00A690192013B13D0019A002A13
:10874000F8DA019A094B42F001020192019A0A619A
:108750000A69019203E00A690192013B02D0019A81
:10876000D207F8D4002002B0704700BF400D0300CC
:10877000436D064A1A61C278012A06D100F2CC5034
:1087800058614FF0802219681A607047180008601D
:1087900010B580210446FFF7A9FE20460021FFF70F
:1087A000A5FE2046BDE81040E2E700BF70B44B785C
:1087B000012B26D00B784A6900EB83035C6D25689A
:1087C0002369D2B18A684A6102F07F0223F4002350
:1087D00023F07F0342F4002213432361C378012B6B
:1087E00004BF0B696361C5F3076363F07B0363F345
:1087F0001F652560002070BC70478A6802F07F0208
:10880000E4E782694C691568136944B38E68B44221
:108810008CBF06F07F0404F07F0423F4002323F0D0
:108820007F0344F4002443EA040388BF4E611361CC
:10883000C378012B1DD0C5F3076464F07B0464F397
:108840001F651560002BD5D14B69002BD2D0026972
:108850000878516B012383400B435363CAE723F429
:10886000002323F07F0343F400231361C378012B1B
:10887000E1D10B780C6900EB8300C5F307638169D4
:1088800063F07B0363F31F654C610020156070BCCF
:10889000704700BF2DE9F0434B78012B30D00B78A7
:1088A0004C6900EB83035E6D356837691CB38B68D8
:1088B0001C44013CB4FBF3F4C4F3090203FB02F3D0
:1088C000C3F312034B61144643EAC44363F31C072A
:1088D0003761C378012B04BF0B697361CB78012B1F
:1088E00044D0C5F3076363F07B0363F31F65356012
:1088F0000020BDE8F0838A680124C2F31203E3E795
:1089000091F800804E6900EB880EDEF818C0DCF8A4
:108910000050DCF8107076B3D1F80890384A06EBB6
:108920000904013CB4FBF9F402EAC444C6F31202A0
:108930002243CC7807F060473A43012C174649D0D0
:10894000CCF81020C278012A55D00269516B03FA85
:1089500008F30B435363C5F3076363F07B0363F3CF
:108960001F65CCF800500020BDE8F0834B7973B34D
:1089700045F00055B5E707F0604747F40027CC788D
:10898000CCF81070C378012B2FD0012CE3D10269F1
:108990009268D20554BF45F0005545F08055C5F3A7
:1089A000076262F07B0262F31F65CCF80050002B77
:1089B0009ED1B0B203308010DEF8D04098D0CA68A3
:1089C00052F8041B216001339842F9D190E745F039
:1089D000805586E764F35E77CCF81070C378012B7E
:1089E000D5D10A69CCF81420D1E70A69CCF8142053
:1089F000012CB0D1CBE70B69CCF81430ABE700BF4A
:108A00000000F81F38B501EB810400EBC4040D46EB
:108A1000002184F87453C4F88C1384F87513C4F8D7
:108A20008833C4F88023C3782821012B01FB05017A
:108A300008BFEDB201F55D7108BFC4F884231DB90C
:108A4000FFF7B4FE002038BDFFF724FF002038BD3B
:108A500070B5104B53F8842C13F86C5C04461AB1B3
:108A600013F8803C2B430DD081212046FFF73EFDBB
:108A7000022D00D070BD2046074ABDE870401F237C
:108A80000121BFE70121FFF731FD20468121BDE82B
:108A900070402BE5A02C0020142C002010B501EB19
:108AA0008101084A00EBC1010446B1F88C1310465D
:108AB000FFF770FB034A204640230121FFF7A2FF86
:108AC000002010BD382C0020E8E700BF10B50223BD
:108AD000044640228121FFF7A1FD204602234022C7
:108AE0000121FFF79BFD8221204603230822FFF787
:108AF00095FD064B02229A83FFF73CFC044A204670
:108B000040230121FFF77EFF002010BD98010020C7
:108B1000382C002038B509220D4604460323832152
:108B2000FFF77CFD29462046FFF7D0FF002038BD27
:108B300082B000230193019A094B42F01002019286
:108B4000C168019A0A610A69019203E00A69019207
:108B5000013B02D0019AD206F8D4002002B070473F
:108B6000400D030082B000230193019A0B4B42F0A9
:108B700020020192019A61F38A120192C168019A5E
:108B80000A610A69019203E00A690192013B02D07D
:108B9000019A9206F8D4002002B07047400D0300FD
:108BA00070B50446144EFFF70BFD20460223402209
:108BB0008121FFF733FD4022012120460223FFF7E8
:108BC0002DFD56F8283C00251B6806F8905C2846C9
:108BD00006F86C5C98472046FFF7AAFF2046012163
:108BE000FFF7C0FF2046A6F18C021F230121FFF7EB
:108BF00009FF284670BD00BFA02C00200E4BDA688C
:108C0000D20310D4DA68D1060FD4DA68D20510D4B2
:108C1000DA6812F0E00F0AD1DB6813F0020F14BF1C
:108C20000820092070470120704706207047072060
:108C300070470220704700BF003C0240044B93F88D
:108C4000F82012B9012283F8F8200020704700BFF5
:108C500098010020054B33F8242C23F8241C8A4269
:108C60001CBF012203F8222C704700BFA02C00205B
:108C7000054B13F8212C03F8211C8A421CBF01224A
:108C800003F8222C704700BFA02C0020084B13F8DB
:108C9000200C884203D113F81F0C904202D001200F
:108CA00003F8220C03F8201C03F81F2C704700BFA8
:108CB000A02C002028B1034B13F81E0C431E584271
:108CC00058417047A02C002008B5FFF7F3FF30B1E2
:108CD000034B13F8213C003B18BF01230B6008BD78
:108CE000A02C002070B5FFF7E5FF60B10B4A32F809
:108CF0001C5C3DB152F8186C0023B3421C4603DBE8
:108D0000002000E00D7070BD02EB4404013334F824
:108D1000144CAC42DBB2F0D10B70F4E7A02C002075
:108D200010B5FFF7C7FF30B1034B13F8204C13F811
:108D30001F3C0C70137010BDA02C00200520704744
:108D40000B4A12F8043C13F001010CD1D07850B951
:108D500092F83020012A08D0022A07D183F00200BD
:108D6000C0F340007047002070471046704700BFB6
:108D7000A02C00200268064B934307D1054B93F8C3
:108D80003500A0F109035842584170470020704750
:108D900040000200A02C002000207047104A906D77
:108DA000A8B1D36D9BB188420FD88B4234BF00234A
:108DB0000123DBB243B1536E116699421FBF094BC9
:108DC0005166142083F8F90070470023F1E7A1F5FC
:108DD0009C53083BB3F57A7F2CBF00230123E9E7BE
:108DE000A02C002098010020064B93F8692083F8FE
:108DF00068108A421FBF044A83F86910142082F861
:108E0000F9007047A02C002098010020704730B175
:108E1000034B93F86A00012894BF0020012070479B
:108E2000A02C002008B5FFF7F2FF60B1064A92F8C7
:108E30006B3092F868205B0003F00203002A18BF31
:108E400043F001030B6008BDA02C002008B5FFF71C
:108E5000DEFF10B1014BDB6E0B8008BDA02C0020A3
:108E600070B5FFF7D4FF60B10B4AB2F870503DB156
:108E700052F8186C0023B3421C4603DB002000E0CC
:108E80000D7070BD02EB4404013334F8144CAC4255
:108E9000DBB2F0D10B70F4E7A02C002008B5FFF78F
:108EA000B6FF10B100230B70137008BD042070478B
:108EB00028B1034B93F9FA00003818BF012070471E
:108EC0009801002008B5FFF7F3FF50B1054B93F967
:108ED000FA20012AC3BF93F8FD30C3F340030B60AF
:108EE000002008BD9801002008B5FFF7E1FF18B188
:108EF000024B93F8FC300B7008BD00BF98010020B6
:108F000070B5FFF7D5FF38B10E4C94F8FD30DB0794
:108F100003D500230B70137070BD0B4D94F9FB301B
:108F200095F8746093FBF6F301330B7094F9FB40F2
:108F300095F8741094FBF1F301FB134301331370A4
:108F4000EAE700BF98010020A02C00200320704712
:108F5000144B30B49C6F14B300220F2583F87E109D
:108F6000090A83F87D0083F87F10C3F88020C3F8D6
:108F70008420C3F8882083F87C5003F17C00012111
:108F800010F8015F01312A440E29D2B2F8D183F8DA
:108F90008A202046044930BC10223CF0D1BD30BCB0
:108FA000704700BFA02C00201C2D0020034B002187
:108FB00083F88C10C3F89010CAE700BFA02C0020E3
:108FC0002DE9F04F87B0DFF85CA0002416469DF82D
:108FD000402005460F4698462046D346A14654F801
:108FE0000A30C3B193F83830142B14D0A91C01D027
:108FF000AB4210D106EB080302A90BEB0400CDE94C
:109000000499019202960393ADF810708DF81590B3
:1090100030F09AFE019AE034B4F5287FDFD107B032
:10902000BDE8F08F342D00202DE9F04FDFF878A354
:10903000CE4D564686468C4617460FCE05F54D74E6
:109040002DED068B0FC40FCE0FC496E807008BB032
:1090500095F86A33059784E80700CDE906EC042B00
:1090600000F25181DFE813F0B6014F014A0105001B
:10907000C6019FEDBF8ADFEDBF8ABF49C5F8501317
:10908000BE49BF4BBF4AC5F84C130599002918BF0C
:10909000134638EE887AF5EE006AC6EE879ABA4E25
:1090A000C5F85833A6F1120B06F1C0080027DFED12
:1090B000B77A9FEDB79A28EE278AB0EE67AA079B8A
:1090C000BB4200F015811BF8012BAB1893F86F43DE
:1090D000002C00F01D81002102E0152900F018810C
:1090E00001EB41004B0018F800C0A44501F101015B
:1090F000F3D1284490F84D14002900F069812046EE
:10910000CDE903233BF06EF8DDE9032381464846B1
:10911000CDE903233BF0ACF990F800C0BCF1000F9F
:1091200040F0F680039A049B01322B44D2B2032113
:1091300083F88D2483F88C14B9F1000F00F0E880D7
:109140002309013B032B04F00F0000F205810AEB19
:109150004304B4F82CC04CFA00F414F0010400F0FD
:109160003581012404FA00F0013800EA0C00CDE951
:10917000032356F00FFD049BDFF830C2039A5344DB
:10918000032193F8343018440CEBC00373619971D8
:10919000DA715CF8300099F8082000F13F4101F5E0
:1091A0007E010AEB912191F8381001F01F0C49095A
:1091B000032904FA0CF400F00281042900F0F8807D
:1091C000022900F0CC809B880893B3FA83F3C3F1A3
:1091D0001F03C3F3CC0100EB810103F007030C6A0A
:1091E0009B004FF00F0C0CFA03FC24EA0C040C62F9
:1091F0000C6A02FA03F323430B62022308A90993C2
:10920000FEF728FF059B002B00F08E80B5F8683331
:10921000D5F8401607EE903AF8EEE77AFCEEE77ADA
:1092200017EE900AB1FBF0F202F57F42FF32120C0A
:10923000B1FBF2F2B2FBF0F083B295F86A130429A5
:109240000BBF07EE900A07EE902AF8EE677AF8EE69
:10925000676A05BF07EE102A67EE8A7A66EE887A9B
:10926000F8EE476A29EE677A95F86B030699009144
:10927000A6EEA87A019049463046C6ED027A86ED00
:10928000037A2FF0B5FA002F62DD7368D5F89023CA
:1092900093425FD0012F5BD0D5F8A823934259D0D9
:1092A000022F55D0D5F8C023934253D0032F4FD06F
:1092B000D5F8D82393424DD0042F49D0D5F8F023C8
:1092C000934247D0052F43D0D5F80824934241D08C
:1092D000062F3DD0D5F82024D31A18BF012301371B
:1092E0000122082F3374727406F118067FF4E7AE7A
:1092F00028480BB0BDEC068BBDE8F08F9FED268AA9
:10930000F0EE488AB9E69FED258AF0EE488AB4E689
:10931000234A1C4BC5F850230020C5F858330BB026
:10932000BDEC068BBDE8F08FB0EE690A57F0ECFAA1
:10933000FCEEC07A4FF6FF7317EE902AD5F8401670
:10934000B1FBF2F21A44120C1846B1FBF2F274E7C8
:109350000123C4E70023C2E7C6F814C052E711494D
:10936000D1F844C044EA0C044C642CE7A02C002043
:10937000ACC5A737ACC5A7365557030875260408F2
:10938000C5530308692604082C3000206F12833A65
:1093900000007A44D42F0020282930386F12033976
:1093A0001555030800380240D02006085831002027
:1093B0001249D1F830C044EA0C040C6303E70F49AA
:1093C000D1F840C044EA0C040C64FCE6746119E76F
:1093D00089469CE69FED0A8A0A4A0B4BC5F8502342
:1093E000C5F84C3300220123CDE90532F0EE488A5E
:1093F000064B4EE69FED068AEEE700BF00380240BE
:109400006F12833A55570308752604086926040825
:109410000000000013B504462620019125F0E4FF6A
:10942000019920B9204602B0BDE8104090E502B095
:1094300010BD10B5074B93F8041149B193F80521FD
:1094400032B1054CD4F8440615F032FBA4F84806B6
:1094500010BD00BF98010020A02C002037B5234884
:10946000D0F8445604461DB900F24C6003B030BD3C
:109470001F4A2846511E15F09CFBFFF7DAFF01A991
:10948000284615F08DFB18B1019800F0010001305D
:10949000184D84F8500605F1F801D4F8440615F08B
:1094A00085FB10B9012385F8F830134AD4F86036EB
:1094B00084F85836511C114BC4F85426C4F8881649
:1094C0000C3A616FC4F85C3684F88C16C4F8B82680
:1094D00003F1300154F8182CC4F89016603384F866
:1094E000BC26C4F8C0360020C0E700BFA02C002076
:1094F0009D020020980100209C02002004330020DF
:1095000008B5064B93F8052122B9012283F80521FD
:10951000002008BDFFF78DFFFAE700BF980100208B
:1095200008B5064B93F8042122B9012283F80421DF
:10953000002008BDFFF77DFFFAE700BF980100207B
:1095400070B506460D46FFF7B5FB044640B1054B26
:10955000304613F81F2C13F8201C15F0A9FA2880A8
:10956000204670BDA02C002038B50D46FFF7A0FCAA
:10957000044638B10C4890F8FD30DB0704D5B0F84C
:10958000FE002880204638BD084A90F9FB3092F84A
:10959000742093FBF2F102FB11320132013100F52C
:1095A000847015F085FAECE798010020A02C0020CB
:1095B00037B5134C134DD4F8440695F8052195F8AA
:1095C0000411019015F02AFD95F8F810019815F096
:1095D0001BFD95F8041195F8052195F8F830D4F89D
:1095E000440684F8281084F8292084F82A3015F0DD
:1095F0005FFAA08545F036FC04F24C6003B030BD44
:10960000A02C00209801002008B5084B93F85016B4
:1096100021B9012283F85026002008BD0139D3F872
:10962000440618BF012115F063FCF5E7A02C0020CB
:1096300007B50DF1060215F027FA58B1074BBDF832
:10964000062033F81C1C23F81C2C91421CBF01215E
:1096500003F8221C03B05DF804FB00BFA02C00201F
:1096600007B50DF1060215F00FFA70B1084BBDF801
:109670000620B3F8E816A3F8702091421FBF0549F1
:10968000A3F8E826142081F8F90003B05DF804FB84
:10969000A02C002098010020354BD3F8602673B52C
:1096A00012B153F8182C3AB9324933481F2202B08C
:1096B000BDE8704058F0F9BCD3F844562F4C2A232B
:1096C00084F80C310DF1020220230DF1030128462C
:1096D00084F80D3115F06DFA30B19DF803109DF846
:1096E000026051EA06032CD1552384F80E3146233B
:1096F00084F80F3120230DF10601284684F810313B
:1097000015F051FA03461E4813B1BDF806202ABBD6
:109710001C4949F0B1F90DF10101284615F046FA4E
:10972000194CF8B19DF8011001AA284615F0ACF9C2
:10973000C0B1BDF804201549204649F09DF902B09A
:1097400070BD284615F01AFA314684F80E012846F5
:1097500015F002FA037884F80F31CBE70C4949F091
:109760008BF9D8E70B49204649F086F9E7E700BFB7
:10977000A02C0020C49C0608A40200209801002010
:10978000A9020020E59C0608AD020020DE9C060828
:109790003FF40608E49C06082DE9F743BF4CA36F8D
:1097A0000D4643B14FF0020800274FF00109A06FAA
:1097B0003CF0F6F960B9002694F86A30042B00F208
:1097C0006881DFE813F09100EE0002014D015601BF
:1097D000A06F3CF0DDF9D4F890305A1C2344C4F853
:1097E000902083F8EA0694F88C30012B0AD0022BE3
:1097F00011D0002B73D10F280CBF84F88C90C4F8C3
:109800009030D4E7A0F17203012B01D9762866D1FC
:1098100084F88C80CBE7102AC9D1A149002301220A
:1098200011F8010F013203440E2ADBB2F8D194F88B
:10983000F82684F88C709A42C4F89070B7D194F8E6
:10984000F936002BB3D194F8EB66732E3AD0762E0E
:109850000DD0722EABD194F8ED2694F8EC3653EA85
:109860000223A4D0A365B4F8EE36E365A4E794F828
:10987000ED2694F8EC3653EA022398D094F8EF16CC
:1098800094F8EE2694F8F306E36642EA012294F88F
:10989000F01684F86B1094F8F11684F8FC1694F81E
:1098A000F216A4F8FA2641EA0021A4F8FE16216E69
:1098B00001B92366B4F87030002B7FF47DAFA4F8B3
:1098C000702079E794F8F12694F8F03643EA022301
:1098D0001AB2002B3FF46BAFA4F800276CE784F8B2
:1098E0008C70C4F8907062E7722E4CD1012384F81A
:1098F0006A30002294F80837402B34D1B4F8700055
:10990000A4F80E6794F8FC6694F86A30B4F8FAC6C6
:10991000A4F80C370502330394F86810E76E05F4D9
:10992000706503F440532B434FEA0C1543EA81332F
:10993000EDB22B43256E1BB2BD4214BF0825002596
:109940001343604514BF042000202B430343B1425E
:1099500014BF022100211943524BA4F8101793F8A9
:10996000F930A4F81237D4F8603623B154F8183C13
:10997000002B40F0A1804C494C481F2203B0BDE8A9
:10998000F04358F092BBD4F80437494AEB1A93429B
:1099900001DC0022AEE77220FFF708FBC4F8045791
:1099A000F7E7762E04D1022384F86A300022A1E77B
:1099B000D4F804373E4AEB1A9342EADD7620FFF7EB
:1099C000F5FAC4F80457002294E7364FD4F8043768
:1099D00097F8F920EB1AA2B3354A934234DD94F894
:1099E0006B20D2071DD4216EE26E91420FD089B256
:1099F0004620FFF70FFD97F8F930C4F80457013BF4
:109A000087F8F930042384F86A30012272E7B4F849
:109A10007010B4F8FA268A4203D05020FFF7FAFCFF
:109A2000E9E794F8681094F8FC268A4206D0B1FA67
:109A300081F149094920FFF7EDFCDCE7142287F8A2
:109A4000F9201C4A9342B9DC762EA2D17320FFF78D
:109A5000ADFA032384F86A30C4F80457002249E7BA
:109A6000732E96D0D4F80417114B691A99429ADCD8
:109A70008FE7D4F804370E4AEB1A934289DD76203B
:109A8000FFF794FA022384F86A30C4F804570022DE
:109A900030E7002384F86A301A462BE7A02C002018
:109AA0008A33002098010020C49C0608C3020020CD
:109AB0003F0D03003F420F00334DD4F844662A2384
:109AC00085F82B310DF1020220230DF10101304602
:109AD00085F82C3115F06DF830B19DF801109DF826
:109AE000027051EA070339D1552385F82D314623F9
:109AF00085F82E31202301A9304685F82F3115F045
:109B000052F80346214813B1BDF804209ABB2049FE
:109B100048F0B2FFB4F8FE761E4D87B30DF1030195
:109B2000304615F043F850B39DF803100DF10602CE
:109B3000304614F0A9FF10B3BDF8062016493B4685
:109B4000BA420CBF20222A22284648F095FFB4F8DA
:109B50000037A4F8143703B0BDE8F083304615F0A1
:109B60000DF8394685F82D01304614F0F5FF0378DD
:109B700085F82E31BEE7094948F07EFFCAE708495B
:109B8000284648F079FFE2E798010020C80200204B
:109B9000E59C0608CC020020EA9C06083FF4060873
:109BA000E49C06082DE9F8432DED028B0F46904604
:109BB000FFF780F860B1144A9FED148A52F8184CF0
:109BC00000239146DEB2A64203F1010504DBE0B2B8
:109BD000BDEC028BBDE8F88309EB4603B2EE040A44
:109BE00033F8143C27F8163007EE903AF8EEE70AFF
:109BF00060EE880A56F0F2FFBCEEC00A10EE103A92
:109C000028F816302B46DDE7A02C0020CDCCCC3D2B
:109C10002DE9F0472DED028BFFF74AF9C8B31E4B33
:109C200093F9FA00012834DD93F84A411B4F9FED68
:109C30001C8A15468E1E02EB44084FF0320945453A
:109C400004D1BDEC028B2046BDE8F08737F802ABAB
:109C500026F802AF07EE90AAF8EEE70AB2EE040A81
:109C600060EE880A56F0BAFFBCEEC00ABAF10E0FD9
:109C700010EE103A9BB209D91933B3FBF9F39BB23A
:109C800003EB830303EB83035B009BB225F8023BEA
:109C9000D5E70024D5E700BF98010020B6330020A7
:109CA000CDCCCC3D38B50B680E4D5A1C0A60052250
:109CB0001A700B6895F8FA200C46591C21601A702E
:109CC000236895F8FD20591C21601A70B5F8001121
:109CD000204644F0EBFA236895F80221591C2160D4
:109CE0001A7038BD9801002008B5FFF7E1F850B1AF
:109CF000A1F59C53083BB3F57A7F04D2BDE8084038
:109D000008460AF0FBBA08BD10B5FFF7D1F8B8B3A2
:109D10001C4C94F9FA30012B32DD69B3022B2FD0A1
:109D200094F80231A3B971B180230521164884F853
:109D30004F310AF0ADFA062184F85001BDE8104019
:109D400011480AF08BBABDE8104004200AF0B6BAF8
:109D5000002914BF0020042094F8FD301A0748BFE2
:109D600040F002005B0701D411B108B940F00100D6
:109D7000BDE810400AF0A2BA022BD1D10420EBE7D3
:109D800010BD00BF98010020E302002013B5044677
:109D9000FFF78EF808B300230DF106022046ADF858
:109DA000063014F071FEC0B10D4C9DF8062094F9F8
:109DB000FA1084F85521032908BF62F07F024FF0A2
:109DC0000501084808BF84F855210AF061FA062108
:109DD00084F8560103480AF041FA02B010BD00BFF2
:109DE00098010020E902002010B5E9B10F4BD3F82B
:109DF0006006814218DCBAB15B6F9A4214DC0C4CED
:109E0000013A013903FB012184F85B1104F2571078
:109E100005210AF03DFA062184F85C0104F257108E
:109E2000BDE810400AF01ABA10BD00BFA02C0020F7
:109E30009801002000F01F0240090123032803FAC3
:109E400002F304D004280CD0022805D07047074A3A
:109E5000116C0B4313647047044A516C0B435364F9
:109E60007047024A116B0B4313637047003802407E
:109E700000487047B83100200E4B30B4DB684278A0
:109E800001780D4CDB43C3F30223C3F10403DBB2BF
:109E900002FA03F360181B0101F01F0501224909B2
:109EA00003F0F003AA4080F8003344F8212030BCCE
:109EB000704700BF00ED00E000E100E0002878D02E
:109EC0002DE9F0418388B3FA83F3202B174684B041
:109ED0000446C3F11F0255D0364DDFF8E4804FF041
:109EE000004008EB020605EB820205F5ED6C30FA46
:109EF00003F396F84060C2F828C705D02E4A1068D0
:109F000020EA03001060536120463AF0C5FCA288A5
:109F10002168B2FA82F2C2F11F0303F0FC0000F1E3
:109F2000804000F59C3003F003039C004FF00F0CC1
:109F300001F13F4381680CFA04FC21EA0C018160C5
:109F400003F57E0308EB8707D0F808C0396D8DF85C
:109F50000D10C3F38723A34043EA0C034FF00041E5
:109F6000354421FA02F283600021012302A88DF812
:109F70000E3002928DF80C10FEF742F895F86C370F
:109F8000F02B02D804B0BDE8F0810C4B9B5D8DF83E
:109F90000430F02103224FF4807301A885F86C1778
:109FA0008DF80520ADF80630FFF766FF04B0BDE878
:109FB000F0817047A02C0020003C0140C49D0608A1
:109FC000D020060800286BD0F0B58388B3FA83F35D
:109FD000202B85B00446C3F11F024CD0314D3248CE
:109FE0004FF00041104405EB820205F2747731FA1C
:109FF00003F390F84060C2F8287705D02B4A116827
:10A0000021EA030111605361204600213AF044FC2B
:10A01000A3882268B3FA83F4C4F11F0303F0FC01A0
:10A0200001F1804101F59C3103F0030398000F27F3
:10A0300002F13F438A68874022EA070203F57E0364
:10A040008A60C3F38723834088684FF0004203434C
:10A05000354422FA04F48B604FF44062012302A8D5
:10A060008DF80E300294ADF80C20FDF7C9FF95F87D
:10A070006C37F02B01D805B0F0BD0D4B9B5D8DF812
:10A080000430F02103224FF4807301A885F86C1787
:10A090008DF80520ADF80630FFF7EEFE05B0F0BDF7
:10A0A000704700BFA02C0020D0200608003C0140D3
:10A0B000C49D0608002869D0F0B58388B3FA83F3FD
:10A0C000202B85B00446C3F11F024AD0304E314DDB
:10A0D00016444FF0004005EB820230FA03F396F885
:10A0E0004060C2F8281705D02B4A116821EA030105
:10A0F00011605361204600213AF0CEFBA38822680C
:10A10000B3FA83F4C4F11F0303F0FC0101F18041B1
:10A1100001F59C3103F0030398000F2702F13F4340
:10A120008A68874022EA070203F57E038A60C3F348
:10A130008723834088684FF000420343354422FA66
:10A1400004F48B604FF40062012302A88DF80E30F6
:10A150000294ADF80C20FDF753FF95F86C37F02B07
:10A1600001D805B0F0BD0D4B9B5D8DF80430F0219A
:10A1700003224FF4807301A885F86C178DF8052031
:10A18000ADF80630FFF778FE05B0F0BD704700BFB0
:10A19000D0200608A02C0020003C0140C49D0608E9
:10A1A0002DE9F84FBA4C94F878170546C1F34001F1
:10A1B000D4F880073EF0EEFF94F87817D4F87C07C7
:10A1C000C94301F001013EF0E5FF002D00F0CD8014
:10A1D0006E1EB04FB04D5FFA86FB4FF01008D4F8FA
:10A1E00080073EF0BBFFD4F87C073EF0B7FFB4F821
:10A1F0008837002B40F0438194F88A17D4F88C07F5
:10A200003EF0C8FF4FF0FA094FF47A704FF0010C9E
:10A210007B68C3F30803002B40F00881EFF3118340
:10A22000002B40F0038154F8D02CA96854F8D03C9E
:10A230009A42F8D1D4F8B0379942F4D8D4F8AC6740
:10A2400000FB06F35B1AB3FBF6F300FB02327B68FC
:10A25000C3F30803002B40F0A880EFF31183002B19
:10A2600040F0A38054F8D03CD5F808A054F8D01C96
:10A270008B42F7D1D4F8B0178A45F3D8D4F8AC673D
:10A2800000FB06F1A1EB0A01B1FBF6F100FB0313A1
:10A290009B1AB3F57A7FDAD3B9F10109B8D1D4F8B2
:10A2A00080073EF05BFFD4F87C073EF057FFB4F820
:10A2B0008837002B40F0D78094F88A17D4F88C07A1
:10A2C00081F001013EF066FF4FF0FA0C4FF47A7016
:10A2D0004FF0010E7B68C3F30803002B40F086802B
:10A2E000EFF31183002B40F0818054F8D02CA96843
:10A2F00054F8D03C9A42F8D1D4F8B0379942F4D807
:10A30000D4F8AC9700FB09F35B1AB3FBF9F300FB3D
:10A3100002327B68C3F308034BBBEFF3118333BBFB
:10A3200054F8D03CD5F808A054F8D01C8B42F7D193
:10A33000D4F8B0178A45F3D8D4F8AC9700FB09F1EC
:10A34000A1EB0A01B1FBF9F100FB03139B1AB3F572
:10A350007A7FDED3BCF1010CBCD10BF1FF365FFA82
:10A3600086FBBBF1FF0F7FF43AAFBDE8F88FEFF348
:10A37000118988F31288AE682B68DB0344BFC4F8E8
:10A38000A8E7AE6854F8D03CD4F8A8175FFA89F96A
:10A3900089F31188D4F8AC970B4400FB09F1891BB1
:10A3A000B1FBF9F100FB0313D0E7EFF3118E88F353
:10A3B0001288D5F808A02B68D90344BFC4F8A8C7F1
:10A3C000D5F808A054F8D03CD4F8A8175FFA8EFE50
:10A3D0008EF31188D4F8AC670B4400FB06F1A1EBB7
:10A3E0000A01B1FBF6F100FB031351E7EFF3118112
:10A3F00088F31288D5F808902B68DA0344BFC4F8B4
:10A40000A8E7D5F8089054F8D03CD4F8A827C9B2EA
:10A4100081F31188D4F8AC171A4400FB01F3A3EBC5
:10A420000903B3FBF1F300FB023272E7EFF3118192
:10A4300088F31288AE682B68DB0344BFC4F8A8C752
:10A44000AE6854F8D03CD4F8A827C9B281F311887B
:10A45000D4F8AC171A4400FB01F39B1BB3FBF1F3D8
:10A4600000FB0232F3E6D4F8A437002B3FF42CAF04
:10A47000D4F89037C3F8009084F8A19724E7D4F873
:10A48000A437002B3FF4BEAE3BF036F8BAE600BF6F
:10A49000A02C002000ED00E010E000E02DE9F84FD6
:10A4A000B74CB84F94F87817D4F88007B64DC1F37D
:10A4B00040013EF06FFE94F87817D4F87C07C9434A
:10A4C00001F001013EF066FE4FF0050B4FF0100861
:10A4D000D4F880073EF042FED4F87C073EF03EFE02
:10A4E000B4F88837002B40F0438194F88A17D4F8E9
:10A4F0008C073EF04FFE32264FF47A704FF0010C7D
:10A500007B68C3F30803002B40F00781EFF311834E
:10A51000002B40F0028154F8D02CA96854F8D03CAC
:10A520009A42F8D1D4F8B0379942F4D8D4F8ACE7CD
:10A5300000FB0EF35B1AB3FBFEF300FB02327B68F9
:10A54000C3F30803002B40F0A780EFF31183002B27
:10A5500040F0A28054F8D03CD5F808A054F8D01CA4
:10A560008B42F7D1D4F8B0178A45F3D8D4F8ACE7CA
:10A5700000FB0EF1A1EB0A01B1FBFEF100FB03139E
:10A580009B1AB3F57A7FDAD3013EB9D1D4F88007AC
:10A590003EF0E4FDD4F87C073EF0E0FDB4F88837E7
:10A5A000002B40F0DA8094F88A17D4F88C0781F0F9
:10A5B00001013EF0EFFD4FF0320C4FF47A700126AE
:10A5C0007B68C3F30803002B40F08780EFF311830F
:10A5D000002B40F0828054F8D02CA96854F8D03C6D
:10A5E0009A42F8D1D4F8B0379942F4D8D4F8AC975D
:10A5F00000FB09F35B1AB3FBF9F300FB02327B6843
:10A60000C3F308033BBBEFF3118323BB54F8D03CE7
:10A61000D5F808A054F8D01C8B42F7D1D4F8B01765
:10A620008A45F3D8D4F8AC9700FB09F1A1EB0A01F5
:10A63000B1FBF9F100FB03139B1AB3F57A7FDED36C
:10A64000BCF1010CBCD10BF1FF3616F0FF0B7FF40F
:10A650003FAFBDE8F88FEFF3118988F31288D5F882
:10A6600008A02B68DB0344BFC4F8A867D5F808A08E
:10A6700054F8D03CD4F8A8175FFA89F989F3118807
:10A68000D4F8AC970B4400FB09F1A1EB0A01B1FB34
:10A69000F9F100FB0313CFE7EFF3118E88F3128873
:10A6A000D5F808A02B68D90344BFC4F8A8C7D5F8CB
:10A6B00008A054F8D03CD4F8A8175FFA8EFE8EF3A9
:10A6C0001188D4F8ACE70B4400FB0EF1A1EB0A01B2
:10A6D000B1FBFEF100FB031352E7EFF3118188F3A6
:10A6E0001288D5F808902B68DA0344BFC4F8A8672D
:10A6F000D5F8089054F8D03CD4F8A827C9B281F313
:10A700001188D4F8AC171A4400FB01F3A3EB09033A
:10A71000B3FBF1F300FB023271E7EFF3118188F331
:10A720001288D5F808E02B68DB0344BFC4F8A8C73B
:10A73000D5F808E054F8D03CD4F8A827C9B281F382
:10A740001188D4F8AC171A4400FB01F3A3EB0E03F5
:10A75000B3FBF1F300FB0232F1E6D4F8A437002B8F
:10A760003FF429AFD4F890371E6084F8A16722E740
:10A77000D4F8A437002B3FF4BEAE3AF0BDFEBAE6E3
:10A78000A02C002000ED00E010E000E010B4B8B113
:10A790000D4CD4F8B437102B05D15DF8044B0521CE
:10A7A00000203AF061BB03EB4302224482F8B91760
:10A7B00001210B4482F8B80782F8BA17C4F8B437FD
:10A7C0005DF8044B704700BFA02C002000285FD02C
:10A7D0000368374A2DE9F04103F13F4404F57E0454
:10A7E00002EB9422012492F8382002F01F0552094E
:10A7F000032A04FA05F456D0042A4FD0022A48D07E
:10A800008588B5FA85F0C0F11F00C0F3CC0603EBD4
:10A81000860600F0070082000F24306A944020EA88
:10A8200004003062306A01FA02F20243002132620F
:10A830004FF0010E0A464FF0030C02270EFA02F801
:10A8400038EA050002F101021CD118680CFA01F483
:10A8500020EA04001860186807FA01F606431E6033
:10A860009E6826EA04069E6098689860586820EA08
:10A870000800586058685860D86820EA0400D8601A
:10A88000D868D860102A01F10201D7D1BDE8F08163
:10A890007047084A556C2C435464B1E7054A156B60
:10A8A0002C431463ACE7034A156C2C431464A7E7EC
:10A8B000D02006080038024070B5464E96F8E847AA
:10A8C00004EB440306EBC303650093F8EC37032B5A
:10A8D0006ED8DFE803F059291E02254406EBC505B2
:10A8E000D5F8F007002870D196F84C389C425FD01C
:10A8F000013404F00302934286F8E82758D002EBB3
:10A90000420406EBC4040223C4F8F00784F8EC37D1
:10A9100070BD2B1906EBC303D3F8F02772B1013ACF
:10A92000C3F8F027002070BD2B1906EBC303D3F842
:10A93000F027002AF3D1022283F8EC27254406EB06
:10A94000C50595F8F837013BDBB285F8F8378BBBC6
:10A95000214B96F84C68D3F86011D5F8F407621CC7
:10A9600002F003024B1E0324B242034485F8EC4775
:10A97000B3FBF1F0C5F8F0071AD0994218D80138A6
:10A98000C5F8F007012070BD40F078FD80B1124B92
:10A990002C44D3F8602106EBC404012102F51C53BA
:10A9A00084F8EC170F33B3FBF2F3C4F8F03770BD43
:10A9B000012070BD084BD3F86021012002F2E7337B
:10A9C000B3FBF2F3C5F8F03770BD0138C5F8F007F6
:10A9D000002070BDA02C0020980100202DE9F04F30
:10A9E000B44CB54F95B0002305460E464FF4F072B7
:10A9F000202104F50560019584F84D3884F84E381F
:10AA000057F015FB202104F523604FF4F07257F046
:10AA10000EFBAA49B34632254FF0100C4FF47A7062
:10AA200001267B68C3F30803002B40F0BC80EFF3E2
:10AA30001183002B40F0B78054F8D02CD1F8088057
:10AA400054F8D03C9A42F7D1D4F8B0379845F3D8AF
:10AA5000D4F8AC9700FB09F3A3EB0803B3FBF9F3BD
:10AA600000FB02327B68C3F30803002B7AD1EFF3BB
:10AA70001183002B76D154F8D03CD1F808A054F8BB
:10AA8000D08C4345F7D1D4F8B087C245F3D8D4F879
:10AA9000AC9700FB09F8A8EB0A08B8FBF9F800FB33
:10AAA00003839B1AB3F57A7FDCD3013DB9D194F8C7
:10AAB000112C002A51D094F8123C013B022B4CD8A7
:10AAC00003EB830004EBC0017D4D91F8AC7C05EBFA
:10AAD000C0004FF0010C022FC4F8140C84F89CCC79
:10AAE00000F0B882DBB204EB0313D3F8243DC1F8C5
:10AAF000B03C93B302234FF4807081F8AC3CA5F1D5
:10AB000088034C3DA1F8B80CC1F8C43CC1F8C85C3E
:10AB10001509013D032D02F00F0200F27E82694FFC
:10AB200007EB4503988D40FA02F3DB0740F175828D
:10AB3000012303FA02F2013A10403D4455F02AF88D
:10AB400095F83420604B104403EBC000C4F81C0C93
:10AB50008379002B48D0412B46D06FF0010015B00F
:10AB6000BDE8F08FEFF311898CF31288D1F808A0BB
:10AB70000B68DB0344BFC4F8A867D1F808A054F8F9
:10AB8000D03CD4F8A8875FFA89F989F31188D4F802
:10AB9000AC97434400FB09F8A8EB0A08B8FBF9F8A6
:10ABA00000FB03837DE7EFF311888CF31288D1F863
:10ABB00008900B68DA0344BFC4F8A867D1F808907E
:10ABC00054F8D03CD4F8A8275FFA88F888F31188A5
:10ABD000D4F8AC871A4400FB08F3A3EB0903B3FBDA
:10ABE000F8F300FB02323DE72323C380092139F04B
:10ABF00053FED4F81C3C13B11A689B881383D4F815
:10AC00004026324BB3EB920F80F02A82B3EBD20F87
:10AC100080F02882B3EB121F80F02882B3EB521F22
:10AC200080F02882B3EB921F80F02882B3EBD21F12
:10AC300080F02882B3EB122F80F026824FF48072CE
:10AC400000230DF10D01FF20A4F8182C0122CDE9FD
:10AC50000413CDE90833CDE90A33D4F8141C8DF878
:10AC60000D000D9306928DF81C208DF83020EFF327
:10AC70001180102383F31288D4F8143C1B6A002B34
:10AC800000F0CF81069B04AD2A461BB1D369143274
:10AC9000002BFBD10B6A002B00F00A82996839B9AE
:10ACA0009A4218D0196899B15B6899680029F7D061
:10ACB0001433F3E7A02C002000ED00E010E000E0EA
:10ACC0004C390020D020060858310020404B4C0061
:10ACD000B44AC3E90025C0B280F31188D4F8141C2B
:10ACE0000B6A002BFCD18C220120CDE908330DF139
:10ACF0000E080DF10F0A05938DF81C300D9310937B
:10AD000012938DF80E2000230022CDE90E23CDF8FA
:10AD1000108006900B908DF830008DF84400CDF82F
:10AD200028A0EFF31180102383F31288D4F8143C89
:10AD30001B6A002B00F07E81069B2A461BB1D3695B
:10AD40001432002BFBD10B6A002B00F0B181996803
:10AD500039B993420AD0196829B15B68996800290A
:10AD6000F7D01433F3E78F4AC3E90025C3B283F366
:10AD70001188D4F8142C136A002BFCD19DF80F30E5
:10AD80001B2B40F08781D4F81C3C012284F84D280D
:10AD90000BB12322DA80DFF80C92402248460A21C8
:10ADA00040F026FA8A21002301228DF80E1000209F
:10ADB0000021CDE90E01CDE90833D4F8141CCDF8FB
:10ADC0001080CDF828A005938DF81C300D931093BA
:10ADD000129306920B928DF830208DF84420EFF3F9
:10ADE0001180102383F31288D4F8143C1B6A002BC3
:10ADF00000F02881069B2A461BB1D3691432002B30
:10AE0000FBD10B6A002B00F05081996839B993424D
:10AE100009D0196829B15B6899680029F7D0143303
:10AE2000F3E7C3E90095C3B283F31188D4F8142C77
:10AE3000136A002BFCD19DF80F2094F8107CC2F30C
:10AE4000801284F8542D002F00F0CB80022F00F0E8
:10AE5000AF80D4F840365449B1EB930F80F016819F
:10AE6000B1EBD30F80F00081B1EB131F80F00081B4
:10AE7000B1EB531F80F00081B1EB931F80F0008194
:10AE8000B1EBD31F80F00481B1EB132F34BF4FF42B
:10AE90008077802794F80817A4F8567D18290ED1DA
:10AEA0004249A4F80CB75B08B3FBF7F3A1FB03130B
:10AEB0005B0BA4F80E27A4F81077A4F812373948D2
:10AEC000A4F8187C0222002140F092F9C8203AF040
:10AED00013F9D4F8140C4FF0800B00260027002340
:10AEE0000122CDE90E67CDE908338DF80EB0CDF81B
:10AEF0001080CDF828A005938DF81C300D93109389
:10AF0000129306920B928DF830208DF84420EFF3C7
:10AF10001181102383F31288D4F8143C1B6A002B90
:10AF200037D0069B2A461BB1D3691432002BFBD1C4
:10AF3000006A002800F0B68083683BB9824209D0DD
:10AF400003682BB140688368002BF7D01430F3E717
:10AF5000C0E90095C9B281F31188D4F8140C036AD2
:10AF6000002BFCD19DF80F3013F00203B7D10198EC
:10AF700041788278007884F8580DC1F12001C2F13F
:10AF80001002184684F8591D84F85A2D15B0BDE8F2
:10AF9000F08F0562C9B281F31188024851F0A0FB1D
:10AFA000DBE700BFB4380020809698005917B7D16E
:10AFB000D4F840364049B1EB930FBFF46BAFB1EB1F
:10AFC000D30F51D2B1EB131F52D2B1EB531F53D257
:10AFD000B1EB931F54D2B1EBD31F34BF802740276E
:10AFE00058E7D4F840363549B1EB930F4ED2B1EB68
:10AFF000D30F39D2B1EB131F3AD2B1EB531F3BD26F
:10B00000B1EB931F3CD2B1EBD31F41D2B1EB132F65
:10B0100034BF4FF4807780273CE70020C4F81C0C35
:10B02000E4E504ADC0B20D6280F31188244851F00C
:10B0300057FB53E60D62C3B283F31188204851F0E9
:10B040004FFB96E60D62C3B283F31188484651F078
:10B0500047FBEBE691F8B93C634481F8B93C57E50E
:10B060000222EDE50422EBE5042713E70822E7E5D9
:10B0700008270FE71022E3E510270BE72022DFE582
:10B08000202707E74022DBE58022D9E5022701E7F8
:10B090004027FFE6D4F81C0C202139F0FDFB4FF0CF
:10B0A000FF305CE5C0F80090FFDEC3F80090FFDEE3
:10B0B000034A1A60FFDE00BF002D3101404B4C00F7
:10B0C000B438002038B50C4C0546A11CD5224BF0F5
:10B0D0003DFE2B68A342C5E90043A3EB04000AD060
:10B0E00004F14002611C2960237802F8013BD5E994
:10B0F0000041A142F6D138BDFC390020F0B40D6802
:10B1000000240CE0BCF1050F18D8A0F137030A2B7E
:10B1100014D104EB840415F8010B03EB4404A0F1F3
:10B120003003DEB2092EA0F16107A0F1410CF0D985
:10B13000052FE7D8A0F157030A2BEAD00D60146061
:10B14000F0BC704710B5204B84B0C82403F69C5166
:10B1500003F65D522128CDE9022183F85C4D18D019
:10B160000CD802281ED0082825D102A801900AF088
:10B170007DFE0198FFF7A6FF04B010BD29281AD163
:10B1800002A801900AF02CFD0198FFF79BFF04B084
:10B1900010BD02A801900AF06DFD0198FFF792FF23
:10B1A00004B010BD02A801900AF0AEFE0198FFF7AE
:10B1B00089FF04B010BD02A801900AF0CDFD0198EE
:10B1C000FFF780FF04B010BDA02C0020014488428E
:10B1D0000ED010B40346074C074813F8012B04FBAC
:10B1E00000F0994280EA0200F7D15DF8044B704705
:10B1F0000148704793010001C59D1C81094B93F8DC
:10B200006A33042B08D9053B032B08D801231A46BF
:10B2100000B103701046704700230122F8E70023B5
:10B220001A46F5E7A02C00209FED727A07EE901ADF
:10B2300020EE070AF8EE677A27EE800AFDEEC07A64
:10B2400017EE903A2033402B00F2C480DFED6A7A8B
:10B25000B4EEE70AF1EE10FAF0EE407A0CDD9FED65
:10B26000676ADFED676AB0EE677AB4EEE67AF1EE10
:10B2700010FA77EEC67AF6DC9FED627AF4EEC77AC2
:10B28000F1EE10FA0CD59FED5D6ADFED5F6AB0EE6E
:10B29000677AB4EEE67AF1EE10FA77EE867AF6D4B3
:10B2A0009FED5A7AF4EEC77AF1EE10FA00F38A8035
:10B2B0009FED577AF4EEC77AF1EE10FA44BF9FED96
:10B2C000517A77EE677A27EEA76ADFED525A9FED43
:10B2D000527ADFED526AA6EE257A67EE865AE6EEDE
:10B2E000076AB6EE007AE5EEA67A27EE877ADFEDFA
:10B2F000476A70EE267ABDEEE76A16EE103A203302
:10B30000402B64D8B4EEE60AF1EE10FA0CDDDFED66
:10B310003B5A9FED3B6AF0EE676AF4EEC66AF1EEC7
:10B3200010FA77EEE57AF6DCDFED366AF4EEE67ACF
:10B33000F1EE10FA0CD5DFED315A9FED336AF0EEE5
:10B34000676AF4EEC66AF1EE10FA77EEA57AF6D4E3
:10B35000DFED2E6AF4EEE67AF1EE10FA3DDDDFED78
:10B36000266A76EEE77A67EEA75A9FED2A5A9FED96
:10B370002A6ADFED2A6AA5EE856A27EEA55AE5EE70
:10B38000866AB8EE006AE5EE267A67EE867AC7EE40
:10B39000206AB7EE006A76EE865A76EE666A86EE28
:10B3A000257A80ED091A67EE277A66EE876AC0ED86
:10B3B000017AC0ED037A80ED007A80ED027AC0ED6B
:10B3C000046A70479FED0C7A77EE677A7BE7DFEDD2
:10B3D000147ADCE79FED127A89E7DFED0D6AF4EE6F
:10B3E000E67AF1EE10FA44BFDFED066A76EEE77A10
:10B3F000B9E700BF27D4D236DB0F4940DB0FC94085
:10B40000E4CB1641DB0F49C0E4CB16C1DB0FC93FCB
:10B41000DB0FC9BF92E741B99730083C15A82ABE97
:10B42000000000002DE9F843DFF8E8E3E34CDEF824
:10B43000E03D94F8605207EE903AF8EE670A2DED81
:10B44000028BC4ED970A002D75D1DFF8CCC394F8B8
:10B450007072C4F86C529CF80050002F41D0B4F8C0
:10B4600066329FEDD76A9FEDD77A07EE903AF8EEF5
:10B47000677A20EE877AC6EE276A0023012FC4F888
:10B48000C43376EE876AC7EE267AC4EDF27A28D006
:10B49000022FC4F8CC33C4EDF47A22D0032FC4F8C1
:10B4A000D433C4EDF67A1CD0042FC4F8DC33C4EDD9
:10B4B000F87A16D0052FC4F8E433C4EDFA7A10D028
:10B4C000062FC4F8EC33C4EDFC7A0AD0072FC4F879
:10B4D000F433C4EDFE7A04D0BB4AC4F8FC33C2EDA9
:10B4E000007A9EF88A339FEDB96A9FEDB97A9FED95
:10B4F000B90A07EE903AF8EEE77A9CF8583BC6EEA8
:10B50000276A1D4415FB07F7FFB207EE907A60EE3D
:10B51000870AF8EEE77AC4EDEF6AA7EEA00A55F0C5
:10B52000FFFABDEC028BFCEEC07A17EE903A84F87D
:10B53000C033BDE8F883BCEEE06A9FEDA77A94F8CB
:10B540006132B4F864229FEDA52ADFEDA56ADFF829
:10B55000C8C294F87072C4F86CC2F8EE465A07EE8E
:10B56000903A87EE255A8CF8005007EE102AB4F86E
:10B5700062228CED025A16EE103AF8EE677A06EE69
:10B58000102AB8EEC77A27EE822AB8EE466A67EE2E
:10B59000266ACCF81430012322EE252ACCED017A5C
:10B5A0008CED036ACCED046A84F86832002F98D0E1
:10B5B000DFED8C7A9FED8C4ADFED8C5AC7EE871A4F
:10B5C000C7EB0716A7EB07190CEBC6064FEAC9092C
:10B5D0004FF00008B1EE611A9FED856A09EB060095
:10B5E0009FED843ADFED843ADFED846A0346002262
:10B5F00007EE902AB8EEE77A27EE027AFDEEC77AD8
:10B6000017EE901A2031402900F2D080B4EEC47AAF
:10B61000F1EE10FAF0EE477A0CDDDFED794A9FED9E
:10B62000795AF0EE672AF4EEC52AF1EE10FA77EEB9
:10B63000E47AF6DCF4EEE57AF1EE10FA0CD5DFED03
